:020000040800F2
:1008000000500020B98A0008018B0008018B000805
:10081000018B0008018B0008018B0008000000001C
:10082000000000000000000000000000018B000834
:10083000018B000800000000018B0008FB7B000812
:10084000018B0008018B0008018B0008018B000858
:10085000018B0008018B0008698900086F89000876
:10086000758900087B89000881890008018B0008D0
:10087000018B0008018B0008018B0008018B000828
:10088000018B0008018B0008018B0008018B000818
:10089000C5A60008018B0008018B000887890008A5
:1008A000018B000861910008018B00087591000818
:1008B000799100088D910008A1910008D9410008A4
:1008C000E5410008F1410008FD410008018B0008E6
:1008D000018B0008A9860008C1860008D986000897
:1008E0009D8900082D810008D1A6000800000000A5
:1008F00000000000000000000000000000000000F8
:0C09000000000000000000005FF808F19B
:10090C00034613F8012B002AFBD1181A0138704743
:10091C0010B5054C237833B9044B13B10448AFF32D
:10092C0000800123237010BDB402002000000000E1
:10093C00F4AF000808B5034B1BB103490348AFF3F0
:10094C00008008BD00000000B8020020F4AF0008D1
:10095C002DE9F0410024184D184E194FDFF868802E
:10096C0015F8013BE1B24BB93B7806EB0412D25CB3
:10097C004046003A18BF012201F007FB0121152067
:10098C00013408F059F9082CEAD1012008F0DFF9FC
:10099C0000240C4D0C4E2B7823B1002221463046FE
:1009AC0001F0F3FA013400211520E4B208F044F907
:1009BC00082CF0D1BDE8F0817A0300202000002043
:1009CC00D802002083030020D803002070B5002437
:1009DC00074D084E15F8012902B1012221460134B8
:1009EC003046E4B201F0D1FA082CF3D170BD00BF4F
:1009FC00E8020020D803002000220A4B30B503EB9C
:100A0C0001110124102315460F2B02F10102D2BF54
:100A1C000D70103B0C70102A034401F10101F3D14D
:100A2C0030BD00BF200000202DE9F843044600280B
:100A3C0006460F46B8BFC61D0021142008F0FCF86E
:100A4C000120634203F0070304F0070458BF5C4223
:100A5C0000FA04F4E4B26FEA04080025DFF84090D1
:100A6C00F6105FFA88F8D9F80030AE4203EB0502B5
:100A7C0003D15B5D87B12343137013781E210122D0
:100A8C001F2008F03BF92DB12946BDE8F84314208E
:100A9C0008F0D2B80125E6E708EA0303ECE700BF4B
:100AAC00D4050020F8B5114F08243E46104D2B6894
:100ABC00A4F1080007EB0313195D0134003918BFCA
:100ACC000121FFF7B1FF102CF1D100242B6804F1A8
:100ADC00080006EB0313195D0134003918BF01211E
:100AEC00FFF7A2FF082CF1D1F8BD00BF20000020B9
:100AFC00EC0200202DE9F0472849294808F0EEFBCC
:100B0C000024284F264DDFF8B480E6B23146384633
:100B1C0001F010F90A220146284608F03EFC414635
:100B2C00284608F0B7FBF30603D128461E4908F007
:100B3C00D5FB0134FF2CE8D11C49194808F0CEFB39
:100B4C001B49174808F0CAFB08241A4E144FDFF84B
:100B5C006C90DFF85480B2460F251AF8011B0A225C
:100B6C00003918BF0121384608F000FC013D494608
:100B7C00384608F08FFB15F0FF05EED1414638469C
:100B8C00013C08F0ABFB14F0FF0406F11006E2D1B7
:100B9C00BDE8F0470849024808F0A0BBAEB0000819
:100BAC00C4090020D803002029CD0008C2B00008D9
:100BBC00D2B0000820000020DEB00008C0B0000851
:100BCC0070B50446144D154EC0F30011284601F0C3
:100BDC0058FAC4F34011284601F042FA3178C4F3B4
:100BEC00C0030022284601F0CCF83178C4F340034E
:100BFC000122284601F0C5F8317804F001030022E7
:100C0C00284601F0D7F828463178C4F38003012236
:100C1C00BDE8704001F0CEB8D8030020EC020020F3
:100C2C0070B5094D094C2978C0F3810600F0030317
:100C3C000022204601F047FA33462046297801224B
:100C4C00BDE8704001F03FBAEC020020D803002050
:100C5C00044A431A002B1268B8BF5B429342D8BFB8
:100C6C00084670471400002010B5044600F001013E
:100C7C001C2007F0E1FF1D20C4F3400107F0DCFF4E
:100C8C001E20C4F3800107F0D7FF1F20C4F3C0015E
:100C9C0007F0D2FF094A0A4B11680A4A5868B1FB9F
:100CAC00F2F21E2151435A68121A9142FBDC1320B6
:100CBC0007F0F2FFB0FA80F0400910BDC000002030
:100CCC00001000E040420F0010B5044600F0010196
:100CDC001C2007F0B1FF1D20C4F3400107F0ACFF4E
:100CEC001E20C4F3800107F0A7FF1F20C4F3C0012E
:100CFC0007F0A2FF084A094B1168094A5868B1FB72
:100D0C00F2F21E2151435A68121A9142FBDCBDE8E3
:100D1C001040262007F020BFC0000020001000E08B
:100D2C0040420F006A4B73B51B5C06460D461446D9
:100D3C00002B40F082806749674808F0ABFA711CC1
:100D4C000A22654808F012FB6449634808F0A2FACD
:100D5C000F2D72D8DFE805F008151D252D353C5DEB
:100D6C007B838B939BA3A8AD314600225C48E3B2F6
:100D7C0001F069F85B49584808F08CFA0A222146C0
:100D8C0039E0314600225648E3B201F074F8564976
:100D9C00F1E7314600225248E3B201F084F853499E
:100DAC00E9E7314600224E48E3B201F094F850498D
:100DBC00E1E7314600224A48E3B201F014F84D490C
:100DCC00D9E731464648E2B201F02CF94A49D2E75C
:100DDC004A4B4B491B68A3B94A4BC4F387028A554B
:100DEC003F48197801F0B3F8A51047493A4808F084
:100DFC0051FA0A222946384802B0BDE8704008F082
:100E0C00B7BA8A5D36483146E3B201F0DCF83F49A7
:100E1C00B1E73A4B1B68DB0711D53D4B1D7875B913
:100E2C000720FFF751FFF0234FF48062009329460F
:100E3C00322308F0CAFB374B186002B070BD314644
:100E4C0000222748E3B200F0E6FF334993E731462E
:100E5C0001222348E3B200F0F6FF30498BE731461C
:100E6C0001221F48E3B201F006F82D4983E7314611
:100E7C0001221B48E3B201F016F82A497BE7314600
:100E8C0001221748E3B201F026F8274973E73146EF
:100E9C0001221348E3B200F0A6FF24496BE7E0B24D
:100EAC00FFF7BEFE224966E7E0B2FFF789FE214953
:100EBC0061E7E5B22B4600223146094800F0ABFF52
:100ECC0031462B460122064800F0A5FF1A4952E78D
:100EDC0070030020EFB00008C4090020F8B000082F
:100EEC00D803002006B1000813B100081FB1000898
:100EFC002DB100083BB100084CB10008D402002011
:100F0C0018000020EC02002058B1000863B1000862
:100F1C006A030020000000206CB1000879B10008C1
:100F2C0086B1000892B10008A1B10008B0B1000868
:100F3C00C2B10008D7B10008F0B10008494BF7B5B1
:100F4C001B78494A002B00F08B80484B1978484B92
:100F5C0011B11968013119601968464E0729C4BFCF
:100F6C000021196013780133DBB2102B13703FD1C1
:100F7C00002133781170012B3AD13F4C3F4A237832
:100F8C000133DBB2072B94BF237021702378D75C1D
:100F9C00002F59D13A493B4808F07CF921780A22B4
:100FAC000131384808F0E4F90A21032008F003FB6A
:100FBC002178FFF721FD0F2008F0F2FAC5B200F0FE
:100FCC00F700042808BF0B254621282008F0F3FA67
:100FDC002D4B394603EBC502526853F8353000925D
:100FEC00642208F0F2FA294602462078FFF79AFEAE
:100FFC003378022B28D1204C204A23780133DBB2E2
:10100C00072B88BF002323702378D65CE6B90F200A
:10101C0008F0C6FAC5B200F0F700042808BF0B258B
:10102C004621282008F0C7FA174B314603EBC502BE
:10103C00526853F835300092642208F0C6FA2946FB
:10104C0002462078FFF76EFE104A1378013BDBB2A4
:10105C0013701BB90E490B700123137003B0F0BD54
:10106C001370F1E783030020D80200206B030020EB
:10107C00EC0200206A0300206903002070030020AA
:10108C0000B20008C409002004B300086803002063
:10109C006E0300202DE9F3470024184E184F194D0C
:1010AC00DFF86490DFF864A033685FFA84F8404698
:1010BC003B60FFF709FE56F8041BFFF7C9FD57F814
:1010CC00042B46F8040C90420FD06B684FF48062EE
:1010DC00002100932B6808F078FA4146024699F8F3
:1010EC000000FFF71FFE8AF800800134102C05F178
:1010FC000805D9D102B0BDE8F08700BF90050020EB
:10110C009403002004B30008EC020020F402002039
:10111C0070B5441CE4B2012C86B026D0022C47D00A
:10112C00032C47D0042C47D0052C47D0062C47D095
:10113C00072C47D0082C47D0244903A808F094FA70
:10114C000A222146684608F0B2FA694603A808F05C
:10115C00D6FA01461E4808F0B7F8684608F03FFA80
:10116C0003A808F03CFA06B070BD1A4D1A4903A842
:10117C0008F07AFA0A222146684608F098FA69467D
:10118C0003A808F0BCFA0146114808F09DF868461F
:10119C0008F025FA03A808F022FA00240F4E2A5D65
:1011AC00E1B23046013400F0C9FDFF2CF7D1DAE78B
:1011BC000B4DDBE70B4DD9E70B4DD7E70B4DD5E7C7
:1011CC000B4DD3E70B4DD1E70B4DCFE71CB200080D
:1011DC00C4090020C4B3000832B20008D8030020B0
:1011EC00C3B40008C2B50008C1B60008C0B70008F7
:1011FC00BFB80008BEB90008BDBA00082DE9F04F11
:10120C000027674B85B00293664BDFF8DC81664C98
:10121C00664D0193F8B2FFF727FD029B019A03F884
:10122C00010B029312F8013B9842019247D002F84D
:10123C00010C28B198F8003083F0010388F80030D5
:10124C0021782B6811B35A4A4FF0000E1668594A90
:10125C00DFF868C102EB06120F269CF8000043FA77
:10126C0006F919F0010F06D010788E46B0FA80F00E
:10127C00400910702020013EB6F1FF3F02F101023F
:10128C00EDD1BEF1000F01D08CF80000DA0630D59C
:10129C00494802786ABB2021484B02701970484BB0
:1012AC0048491A70484B1A70484B1A700123237026
:1012BC00474B1A70474B1A703D4B1B68CA54013789
:1012CC00102F08F10108A5D100240126374D2C6000
:1012DC00E0B2FFF7C9FC2A6806FA04F3002800F014
:1012EC00508113430134102C2B60F1D105B0BDE8B3
:1012FC00F08F0029E3D113F0010F03F0020E03F07D
:10130C00040C73D0BEF1000F1CD1BCF1000F24D122
:10131C0029680B0730D48E0609D50122294B1A7087
:10132C005A709A70DA701A715A719A71DA71480699
:10133C00C5D5294A137883F0010313700022274B7B
:10134C001A70BCE70122264B1A705A709A70DA7028
:10135C001A715A719A71DA71D7E71E4A08201378FC
:10136C000133DBB2022B88BF0023137008F018F98D
:10137C001C4B01301870CBE708234FF0000C0D48C4
:10138C0006461022013A12F0FF0206F801CBF9D101
:10139C00013B13F0FF0300F11000F1D1BBE700BFDC
:1013AC00D9020020840300206E030020D402002008
:1013BC00EC020020200000206B03002068030020BA
:1013CC007903002070030020820300206C030020AE
:1013DC006F0300206A0300207803002083030020A1
:1013EC007A0300206903002004000020664E674841
:1013FC00674ABEF1000F0CD096F80090017089F08E
:10140C00010986F80090DFF88C911170217089F831
:10141C000010BCF1000F0DD0002190F800C031700D
:10142C008CF0010C80F800C0DFF868C111702170DD
:10143C008CF8001019070DD5002192F800C03170FE
:10144C008CF0010C82F800C0DFF848C101702170EB
:10145C008CF80010990609D50021117031700170BB
:10146C0021704C490A7882F001020A70580641BF7B
:10147C0049490A7882F001020A70190641BF474AAD
:10148C00137883F001031370BEF1000F01D0FFF746
:10149C0031FB0726DFF818A1DFF80491DFF808B15B
:1014AC000121C6F10F032A68994041F0400131EA4D
:1014BC00020204D1F0B20393FFF72AFE039B354AD4
:1014CC0012784AB12A681A41D20742BF99F807200C
:1014DC0082F0010289F807202B4A12784AB12A6857
:1014EC001A41D00742BF9AF8072082F001028AF80D
:1014FC000720264A12788AB1DBF8002028498A5C3A
:10150C0062B92A681A41D10708D50720039308F05D
:10151C0047F831460330FFF76FFA039B1C4A1278E9
:10152C00F2B900231A4694F800E0DBF800101D48CD
:10153C0010F801C9BCF1000F04D0BEF1000F04BFBC
:10154C00634611460132082AF2D10BB1164B1960D1
:10155C00013E731C0AF1FF3A09F1FF39A0D1AEE646
:10156C002A6842FA03F3DA07DBD5102300210F4A6D
:10157C0002EB0612013B13F0FF0302F8011BF9D139
:10158C00CFE722EA0303ADE67903002082030020B3
:10159C006C0300206F0300206B03002083030020EA
:1015AC0070030020E8020020EC0200202000002044
:1015BC007A0300202DE9FF47694C204600F01FFFFD
:1015CC000221204602F027F8664B0A222361664B63
:1015DC0020461968013107F0CBFE0121204602F0AC
:1015EC001AF800232361614B1B78002B00F0A680B6
:1015FC0020465F4907F045FE5E4E3378002B00F025
:10160C00A4805D49564807F055FE4FF4A0132361A2
:10161C005A4B1B781BB15A49514807F04BFE594B9A
:10162C001B781BB158494E4807F044FE574B1B78AA
:10163C001BB157494A4807F03DFE564B1B781BB16E
:10164C005549474807F036FE544B2361544B1B78E1
:10165C0053B15449424807F014FE534B0A221978EF
:10166C003F48013107F084FE352323614F4B1B7833
:10167C00002B6CD04E493A4807F01CFE0223012285
:10168C00CDE901322022802300213548009201F05F
:10169C00FAFC0F254FF02208464FDFF84491DFF893
:1016AC00C0A017F8013B33B1494650462582A4F837
:1016BC00128007F0FFFD0C35ADB26F2DF1D10F2567
:1016CC004FF02B083C4FDFF81C91DFF894A017F873
:1016DC00013B33B1494650462582A4F8128007F0ED
:1016EC00E9FD0C35ADB26F2DF1D1344B344923618A
:1016FC001B4807F0DFFD3378D3B10024314D324E57
:10170C00174F337805EB0412D35C73B10123CDE989
:10171C0001330B2304EB440189000D310093332278
:10172C000A23384609B201F0AEFC0134082CE8D18A
:10173C000B4804B0BDE8F04701F0B0B9234B0A22C6
:10174C002046196807F012FE56E721495AE7214B4B
:10175C001B780BB120498EE72C23204923828AE782
:10176C00F80200203C000C00EC0200207803002062
:10177C0048B20008830300204DB200086F0300201C
:10178C0053B200087903002058B2000882030020ED
:10179C005DB200086C03002061B200086200140006
:1017AC006A03002067B20008690300206E03002062
:1017BC006CB200087A030020700300200F00350083
:1017CC0080B2000820000020D80200200000002079
:1017DC0050B200086B03002071B2000876B200080A
:1017EC007EB200087CB2000810B50D4C23782BB9E2
:1017FC000C4B1B783BB9FFF7E9F804E0FFF7A8F8AE
:10180C002378002BF4D0FFF799FBFFF7F7FCFFF7D9
:10181C0041FCFFF747F9BDE81040FFF7CBBE00BF16
:10182C00830300206E0300201FB5094B094A802159
:10183C00CDE901320423402200930748074B00F006
:10184C00D3FC074805B05DF804EB00F05BB900BFB2
:10185C00801A0600A0860100F80200207006002005
:10186C00D8030020014800F0EDBC00BFF8020020B6
:10187C0073B54FF4E1314C4807F082FE0A2007F0B3
:10188C0066FA062247F61221484807F055FB4848ED
:10189C0000F02AFA0A2007F05AFA0121444800F015
:1018AC0001FC642007F053FA01211C2007F06AF9AF
:1018BC0001211D2007F066F901211E2007F062F9B5
:1018CC0001211F2007F05EF90121152007F05AF9BC
:1018DC000221132007F056F90121142007F052F9C8
:1018EC000421262007F04EF900211B2007F04AF9AD
:1018FC00022007F025FF002601252E4B2E4C1860E8
:10190C00067046702B463C2202212046009500F0C2
:10191C0085FD20B92949244807F0CCFCFEE7204678
:10192C0000F06DFD2946204601F075FE4FF00113C5
:10193C006361332332462046009325213B230195D6
:10194C0001F03EFA1E4B20461E49236107F0B2FC03
:10195C001D4B20461D49236107F0ACFC1C4B204657
:10196C001C49236107F0A6FC1B4B20461B49236135
:10197C0007F0A0FC1A4B20461A49236107F09AFC89
:10198C00194B1A492046236107F094FC204601F0BC
:10199C0085F84FF4FA6007F0DAF9042002B0BDE8DC
:1019AC007040FFF7B5BB00BFC4090020B40800208D
:1019BC00D8030020D4050020F802002090B20008C3
:1019CC0028000200AAB2000828000C00B4B20008DB
:1019DC0028001600BEB2000828002000C8B200087B
:1019EC0028002A00D2B2000816003800DCB2000829
:1019FC0038B51E4D2B78002B37D01D4807F0C7F992
:101A0C00002832D01A4807F0E5FA1A4CC0B2FA286E
:101A1C0020700BD11849194807F060FC00230121F4
:101A2C00174A1370174A1170174A13702378FC2B3E
:101A3C000AD11649114807F051FC0023114A1370C2
:101A4C000F4A1370104A13702378F82B0DD10C4CDD
:101A5C0023780BB9FFF7C8FE23785A1C042B22708D
:101A6C0003D92B780BB10023237038BD78030020E9
:101A7C00B4080020D0020020ECB20008C4090020F9
:101A8C00D005002083030020D8020020F7B2000804
:101A9C0038B543F69824FFF7ABFF154B154D1B6873
:101AAC0094FBF3F42B68013C1C4407F04EF9844280
:101ABC00114C0FDA07F049F9286007F046F90F4B83
:101ACC001860012323700E4B1B7883B9BDE8384096
:101ADC00FFF78ABE237853B1084B1D6807F035F920
:101AEC001435854203D8064B1B7803B9237038BDD7
:101AFC0000000020D40300206D030020F002002021
:101B0C007803002041F61813F0B503801A2304461D
:101B1C00334D061D83700FCD0FC695E80F0005F1F0
:101B2C00100786E80F000FCF04F124060FC60FCF65
:101B3C000FC697E80F0005F1400786E80F000FCF9E
:101B4C0004F154060FC697E80F0086E80F0005F164
:101B5C00600304F17402703516461868596808332E
:101B6C0003C6AB423246F7D11B8833801D4B1A6833
:101B7C00C4F886205A68C4F88A201A89A4F88E20E2
:101B8C001A4652F80A0F9288C4F89000A4F89420D0
:101B9C001A4652F8101F1279C4F8961084F89A203D
:101BAC001A4653F81A0F52F8151F9B881279A4F88D
:101BBC00A4304FF4807384F89F20A4F8A6310A4A0D
:101BCC000A4BC4F8A000C4E96A230023C4F8B0315E
:101BDC004FF07E532046C4F89B10C4F8B431F0BDCE
:101BEC000CB000088EB0000808070B050000FF03BE
:101BFC00F8B50D46044600214078174607F01CF84E
:101C0C002A46012325212548254D01F0D9FD002127
:101C1C00A07807F011F82B68224A234EB3FBF2F29E
:101C2C00716873685B1A9A42FBDC0121A07807F09B
:101C3C0003F82B681B4A7168B3FBF2F31A4E9B0036
:101C4C007268521A9342FBDC0121607806F0F4FFB3
:101C5C0001233A462521114801F0B2FD0021A0785C
:101C6C0006F0EAFF2B680F4A7168B3FBF2F20E4ED6
:101C7C0073685B1A9A42FBDC0121A07806F0DCFF4A
:101C8C002A68084B7168B2FBF3F317225A430648D3
:101C9C0043685B1A9A42FBDCF8BD00BFD8050020F4
:101CAC00C000002040420F00001000E0F8B50546CF
:101CBC002E4600240021007806F0BEFF012007F01C
:101CCC0046F8012116F8A60B06F0B6FF2746E1B23E
:101CDC000022284606F8017B0134FFF789FFB4F592
:101CEC00807FF4D1F8BD000010B5044625211048C2
:101CFC0001F0E6FCA078012106F044FF6078012198
:101D0C0006F040FF2078012106F03CFFA07801216D
:101D1C0006F092FF2078012106F08EFF60780021FA
:101D2C0006F08AFF2046BDE81040FFF7BFBF00BF9A
:101D3C00D8050020084490F8A600704710B50C4652
:101D4C00431883F8A620FFF753FF204610BD10B5AB
:101D5C0090F8A73190F8A6419A4228BF1A4690F8FD
:101D6C00A831A24238BF22468B4228BF0B4602EB59
:101D7C00C2021044A3422CBFC118011991F874007F
:101D8C0010BD70B505461E46FFF7E1FF00F12004BB
:101D9C00E4B2291991F8A6204EB142F080022846EF
:101DAC0081F8A6202146FFF723FF204670BD02F0E4
:101DBC007F02F4E770B505461E46FFF7C8FF00F139
:101DCC002004E4B2291991F8A6204EB142F0400249
:101DDC00284681F8A6202146FFF70AFF204670BD51
:101DEC0002F0BF02F4E770B506461D46FFF7AFFFE1
:101DFC0000F12004E4B2331993F8A62005F00F0586
:101E0C0022F00F022A433046214683F8A620FFF722
:101E1C00EFFE204670BD70B506461D46FFF797FFD6
:101E2C0000F14004E4B2331993F8A62005F03F0505
:101E3C0022F03F022A433046214683F8A620FFF7C2
:101E4C00D7FE204670BD70B505461E46FFF77FFFD6
:101E5C0000F16004E4B22B1993F8A620284602F096
:101E6C000F0242EA0612D2B2214683F8A620FFF7EF
:101E7C00BFFE204670BD70B506461D46FFF767FFD6
:101E8C0000F16004E4B2331993F8A62005F00F05B5
:101E9C0022F00F022A433046214683F8A620FFF792
:101EAC00A7FE204670BD70B505461E46FFF74FFFD6
:101EBC00A0F18004E4B22B1993F8A620284602F076
:101ECC000F0242EA0612D2B2214683F8A620FFF78F
:101EDC008FFE204670BD70B506461D46FFF737FFD6
:101EEC00A0F18004E4B2331993F8A62005F00F0595
:101EFC0022F00F022A433046214683F8A620FFF732
:101F0C0077FE204670BDF8B590F8A84105468C4286
:101F1C0028BF0C4690F8A61116468C4238BF0C46CA
:101F2C00A4F16007FFB23946D2B2FFF707FFEB19F5
:101F3C0093F8B620C6F30126A4F1500122F0030257
:101F4C0028463243C9B2FFF7F9FE3846F8BD10B542
:101F5C0090F8A84103468C4228BF0C4690F8A61175
:101F6C0092008C4238BF0C46503CE4B2234493F8A8
:101F7C00A61002F01C0221F01C010A4383F8A620D3
:101F8C002146FFF735FE204610BD10B590F8A8414C
:101F9C0003468C4228BF0C4690F8A6118C4238BFE1
:101FAC000C46503CE4B2234493F8A61042B141F0E5
:101FBC002002214683F8A620FFF71AFE204610BD0A
:101FCC0001F0DF02F5E7F8B50446174600220D468E
:101FDC001E46FFF7DAFF94F8A92194F8A631BA420D
:101FEC0028BF3A469A4238BF1A4629462046FFF780
:101FFC00AEFF94F8AA3194F8A621B34228BF334619
:10200C00934238BF134604EB83032946B3F92420CB
:10201C002046FFF778FF29462046BDE8F84001220C
:10202C00FFF7B3BF10B590F8A84103468C4228BF08
:10203C000C4690F8A61152008C4238BF0C46403C1E
:10204C00E4B2234493F8A61002F00E0201F0010151
:10205C000A4383F8A6202146FFF7CAFD204610BD8F
:10206C0008B5034690F8632141B142F08002BD21CE
:10207C0083F86321FFF7BCFDBD2008BD02F07F0291
:10208C00F5E708B5034690F8632141B142F04002F0
:10209C00BD2183F86321FFF7ABFDBD2008BD02F025
:1020AC00BF02F5E708B5034690F8632141B142F051
:1020BC002002BD2183F86321FFF79AFDBD2008BDE6
:1020CC0002F0DF02F5E770B506461D46FFF73FFE4E
:1020DC00A0F12004E4B2331993F8A62005F003050F
:1020EC0022F003022A433046214683F8A620FFF74C
:1020FC007FFD204670BD002910B550DBB0F90C40B7
:10210C008C424CDD002A4ADBB0F90E40944246DD8D
:10211C00847E022C22D0032C29D0012C04D1D24352
:10212C00048914440A4621B2012B26D0022B37D045
:10213C00002B34D11346002AB0F90840B8BFD31D88
:10214C0043F3CF0304FB03110123C06A02F007021F
:10215C009340425C22EA0302425420E0C943D2433A
:10216C0004892144448909B2224412B2DCE7C943F0
:10217C0044890C44114622B2D6E71346002AB0F922
:10218C000840B8BFD31D43F3CF0304FB0311C36A4C
:10219C0002F0070001228240585C02435A5410BDE1
:1021AC001346002AB0F90840B8BFD31D43F3CF0340
:1021BC0004FB03110123C06A02F0070203FA02F2C6
:1021CC00435C5A40C8E710B586B003AC84E80E00F7
:1021DC00059B2521009394E80C0001F099FA06B0B8
:1021EC0010BD252101F0CCBA38B504461D4600F0CF
:1021FC0077FE114B114A236000239D4208BF154600
:10220C006362C4E90A534FF6FF73FF22A386A4F856
:10221C0064300B4B84F83320A366012384F83620FA
:10222C009DF91020204684F83720059AA4F86C30CC
:10223C00A265069AE26538BD64C0000870060020ED
:10224C0000093D0010B50446C06A08B108F02AFD2B
:10225C00204610BD2DE9F0410446806A0D4690B130
:10226C0094F9301001F061FDA06A002103681B682D
:10227C009847A06A294603681B689847A06ABDE87E
:10228C00F04101F0C7BD226C216D1368606A23EA2E
:10229C000103136030B12A46BDE8F041012325212A
:1022AC0001F08EBA0821D4E90E2380201668A76CA1
:1022BC00054214BF3E43BE4316601E68E76C0139ED
:1022CC0046EA07061E601E68E76C4FEA500026EAD5
:1022DC0007061E60EAD1BDE8F08138B50446806A75
:1022EC000D4680B1A16D01F01DFD002D204614BFDF
:1022FC00A721A621FFF7AEFFA06A90B1E16DBDE862
:10230C00384001F00FBD606A20B104F164030ECBBC
:10231C00FFF759FF626C616D136823EA01031360C8
:10232C00E3E7626C616D1368606A0B43136008B17C
:10233C00FFF757FF38BD2DE9F0410446806A0D4682
:10234C008F1840B394F9301001F0EFFCA06A002113
:10235C00036801261B689847BD42A06A17D01F2E40
:10236C000CD901F057FD94F93010A06A01F0DDFC96
:10237C00A06A0021036801261B689847A06A15F81B
:10238C00011B036801361B689847B6B2E4E7BDE849
:10239C00F04101F03FBD226C216D136823EA01036B
:1023AC001360BD4229D0606A15F8012B20B10123BE
:1023BC00252101F005FAF4E74FF00808D4E90E13D3
:1023CC004FF0800CD1F800E0A06C12EA0C0F14BF97
:1023DC0040EA0E002EEA000008601868E66CB8F1BE
:1023EC00010840EA060018601868E66C4FEA5C0CBD
:1023FC0020EA06001860E5D1D3E7BDE8F081B0F91A
:10240C000A300021DA1D48BF03F10E02B0F9083082
:10241C00D2105A43C06A08F05BBC00002DE9FF41A2
:10242C001E46C36A04460F4615469DF82880B3B174
:10243C002046FFF7E4FFB4F90A00B4F9081020288D
:10244C001FDC20230122CDE901327323203873399C
:10245C00009300EBD070A64B01EBD1711FE0B0F9EB
:10246C000A30D81D48BF03F10E00B4F90830C01073
:10247C00584308F00FFCE0620028D9D104B0BDE845
:10248C00F08140234FF0010CCDE9013C5223403840
:10249C0052390093974B00EBD07001EBD17140F3A4
:1024AC004F0241F34F01204600F086FE84F8317054
:1024BC00A76A002F00F09880002D40F09380B4F9AB
:1024CC000A30202B0CBF3C253D2584F83050B8F148
:1024DC00000F03D00021384601F020FCDEB194F946
:1024EC003700002817DB012106F04CFB012194F981
:1024FC00370006F0A1FB012006F029FC002194F91D
:10250C00370006F099FB0A2006F021FC012194F912
:10251C00370006F091FBA06A002800F07781A16DCE
:10252C0001F000FC042220467349FFF704FFA17A56
:10253C0020460139C9B2FFF78DFE704904222046AE
:10254C00FFF7F9FE94F931302046012B0CBF102116
:10255C001421FFF77FFE042220466949FFF7EBFEAA
:10256C008F23684A84F86030A368934200F0678137
:10257C0002F50012934240F0578194F93130122544
:10258C00012B0CBF9F23CF2384F86030DA21204627
:10259C00FFF760FE29462046FFF75CFE81212046AE
:1025AC00FFF758FE204694F86010FFF753FED92130
:1025BC002046FFF74FFE94F931302046012B0CBF1B
:1025CC002221F121FFF746FE204606224E49FFF755
:1025DC00B2FEA06A002800F03481E16D01F0A2FB8C
:1025EC0001204BE76DB270E7012194F9350006F03C
:1025FC00C9FA012194F9360006F0C4FA94F9353081
:10260C00242B3FD8414A32F91320C2F30312042A77
:10261C0044D83F4951F822200C32242B22643FD855
:10262C003A4A32F8133003F00F020123934023652A
:10263C0094F93630242B41D8344A32F91320C2F3A2
:10264C000312042A9CBF324951F8227007F10C0284
:10265C00242B62643ED82D4A32F8133003F00F025B
:10266C00012393406365FA68656A1343FB60002D90
:10267C0052D0B8F1000F3FF431AF2521284601F0BC
:10268C001FF82BE7A3F12602D1B2092906D821495C
:10269C0051F822101D4A32F91120B6E73A46BBE731
:1026AC00263BDAB2092A06D81A4A52F82320174BCD
:1026BC0033F81230B7E74FF40043B8E7A3F1260222
:1026CC00D1B20929C2D8134951F822100F4A32F954
:1026DC001120B4E7263BDAB2092A06D80D4A52F883
:1026EC0023200A4B33F81230B8E74FF40043B9E714
:1026FC007CBE0008BCBB0008BCC00008C0C0000801
:10270C00C4C0000880002000C8C000089CCB000892
:10271C00AC00002074CB0008012194F9330006F0C2
:10272C0031FA012194F9340006F02CFA94F9333083
:10273C00242B35D8494A32F91320C2F30312042A48
:10274C003AD8474951F822200C32242BA26335D8B1
:10275C00424A32F8133003F00F0201239340A36472
:10276C0094F93430242B37D83C4A32F91320C2F375
:10277C000312042A9CBF3A4951F8225005F10C026D
:10278C00242BE26334D8354A32F8133003F00F02AD
:10279C0001239340E364EA6822EA0303EB609DE6BD
:1027AC00A3F12602D1B2092906D82E4951F82210DC
:1027BC002A4A32F91120C0E72A46C5E7263BDAB28D
:1027CC00092A06D8274A52F82320244B33F8123012
:1027DC00C1E74FF40043C2E7A3F12602D1B20929A5
:1027EC00CCD8204951F822101C4A32F91120BEE7EE
:1027FC00263BDAB2092A06D81A4A52F82320174B7C
:10280C0033F81230C2E74FF40043C3E7606A20B1DB
:10281C0004F164030ECBFFF7D6FC626C616D136898
:10282C0023EA010313607DE60F4A934207D194F922
:10283C003130012B0CBF1023AF2384F860300225FC
:10284C00A4E6626C616D1368606A0B431360002828
:10285C003FF4C6AEFFF7C5FCC2E600BF9CCB000838
:10286C00AC00002074CB00086000100070B5002A8A
:10287C00BDF810403FDBB0F90A5095423BDD002912
:10288C00BEBF5B1800211BB2B0F908605D18B542E1
:10289C00C4BF731A1BB2002B2DDDD51006FB05111E
:1028AC00C06A012C014402F007004FF0010202FA49
:1028BC0000F2D2B216D0022C0BD0E4B9D2430B44A6
:1028CC00D2B2994217D011F8010B104001F8010C4B
:1028DC00F7E70B4499420ED011F8010B504001F868
:1028EC00010CF7E70B44994205D011F8010B10438A
:1028FC0001F8010CF7E770BDF0B50029BDF81460C4
:10290C0076DBB0F90850A94272DA002ABEBFD218A1
:10291C0013B20022B0F90A40D718A742C4BFA31AB9
:10292C001BB2002B64DDC2F3C40405FB0411C76A9F
:10293C0012F00702DBB207EB010424D0C2F108024B
:10294C00D2B2934238BF4FF0FF0C2B4D38BFA2EBE5
:10295C00030EAD5C3CBF4CFA0EFC0CEA0505012ED7
:10296C0007D0022E2ED04EB917F801C02CEA05055F
:10297C0003E017F801C045EA0C057D54934237D3A8
:10298C00B0F908100C449A1AD2B2072A0ED9022EAA
:10299C001DD113462178083BC9432170B0F90810AA
:1029AC00DBB2072B0C44F5D802F0070202B3134B31
:1029BC00012E9B5C19D0022E1BD0CEB9227822EAB4
:1029CC00030314E017F801C085EA0C05D5E7002EC7
:1029DC0014BFFF25002513462570083BB0F90810DD
:1029EC00DBB2072B0C44F7D8DEE7227813432370B5
:1029FC00F0BD22785340FAE7ACC00008B4C0000820
:102A0C0030B41446827EBDF80850022A0DD0032A39
:102A1C0018D0012A11D1E4430289144424B20A4685
:102A2C000295214630BCFFF767BFE443428914444A
:102A3C00CA18018924B2891A09B22246029530BCFF
:102A4C00FFF714BFCA184189891A09B2E7E730B4F5
:102A5C001446827EBDF80850022A0DD0032A18D0E5
:102A6C00012A11D1E2180489A41A24B20A4602954B
:102A7C00214630BCFFF7FABEC94302891144E21863
:102A8C00448909B2A41A24B22246029530BCFFF73D
:102A9C0033BFC9434289114409B2E7E72DE9F0413C
:102AAC000446806A002841D0A16D01F03BF9052253
:102ABC0020464A49FFF73FFC217A20460139C9B22A
:102ACC00FFF7C8FBD4E90A06B4F90A30DD1D48BF8C
:102ADC0003F10E052389ED105D43ADB2354400289A
:102AEC003CD094F9301001F020F9A06A4021036821
:102AFC0001271B689847AE42A06A25D01F2F0CD91E
:102B0C0001F088F994F93010A06A01F00EF9A06A6E
:102B1C004021036801271B689847A06A16F8011B1F
:102B2C00036801371B689847BFB2E4E7606A20B1BD
:102B3C0004F164030ECBFFF746FB626C616D136806
:102B4C0023EA01031360B2E701F064F9A06A0028DC
:102B5C0039D0E16DBDE8F04101F0E4B8226C216D93
:102B6C0013680B431360AE42F0D0606A16F8012B69
:102B7C0020B10123252100F023FEF4E74FF00808D3
:102B8C00D4E90E138027D1F800C0D4F848E03A42BB
:102B9C0014BF4CEA0E0C2CEA0E0CC1F800C0D3F892
:102BAC0000C0E06CB8F101084CEA000CC3F800C09E
:102BBC00D3F800C0E06C4FEA57072CEA000CC3F8BE
:102BCC0000C0E0D1CFE7626C616D1368606A0B43A3
:102BDC00136008B1FFF705FBBDE8F081CEC000081B
:102BEC002DE9F04F1F4685B0BDF93880A7EB010ADF
:102BFC00A8EB0209B9F1000FB8BFC9F10009BAF18D
:102C0C00000FB8BFCAF1000AD14583460C461646E0
:102C1C00BDF83C3004DD3A46344647460E469046F5
:102C2C00BC4205DD32464646904622463C46174697
:102C3C003A1B91B20091A8EB06010029B8BF49429A
:102C4C00C2F3C035019111B24645B4BF01224FF019
:102C5C00FF320D446D100292BC421CDCDBF80020EC
:102C6C00D145D2F81080C7BF3146224632462146A4
:102C7C0003935846C047019A039BAD1AA9B22DB2D3
:102C8C00002D05DA029A1644009A36B255182DB268
:102C9C00013424B2E0E705B0BDE8F08F704710B402
:102CAC000468A468A44610BC604730B4BDF8085052
:102CBC0004680295246BA44630BC604730B4BDF860
:102CCC00085004680295646BA44630BC604770B42D
:102CDC00BDF90C50BDF810600468CDE90356A46B27
:102CEC00A44670BC60472DE9F3411C4616460546C8
:102CFC000F460368013CBDF82080DB6834449847DC
:102D0C0024B22B68CDF80480009428461C6A324605
:102D1C003B463946A04728462B685B6A02B0BDE8A3
:102D2C00F04118472DE9F341174604461D460E465F
:102D3C000368BDF82080DB689847CDE900782268ED
:102D4C006B1E33442046156A31463A461BB2A847DF
:102D5C00204623685B6A02B0BDE8F04118472DE9B4
:102D6C00F3471E4603680C46DB6805461746BDF95B
:102D7C002880BDF82C9098472644B4422B680BDA77
:102D8C00CDF800902146D3F818A03A464346284681
:102D9C000134D04724B2F0E728465B6A02B0BDE8A4
:102DAC00F047184713B50191B0F90E100268009165
:102DBC00946B0022B0F90C301146A04702B010BD44
:102DCC002DE9F34704460F4616461D460368BDF829
:102DDC002C80DB68BDF9289098472368CDF80080DB
:102DEC00324639462046D3F81CA02B46D0472368E0
:102DFC0009F1FF32CDF80080324439462046D3F831
:102E0C001CA012B22B46D0472368CDF80080324666
:102E1C0039462046D3F818A04B46D047013D2368CD
:102E2C00E919CDF8008020469D6932464B4609B21F
:102E3C00A847204623685B6A02B0BDE8F0471847F4
:102E4C0070472DE9F7439942164680460D461C46BD
:102E5C00BDF92870BDF82C90026812D1BE42C2BFD9
:102E6C0033463E461F46CDF828907B1C146B9B1BAB
:102E7C00324629464046A4461BB203B0BDE8F04397
:102E8C006047BE420AD19942C2BF0B4625461C463A
:102E9C00CDF82890631C5B1B546BE9E7D36898470B
:102EAC00CDE90079D8F8003040461F6A32462346F7
:102EBC002946B8474046D8F800305B6A03B0BDE8F5
:102ECC00F043184701F00303B0F90A208376B0F9F8
:102EDC000830C90759BF8381C2818281C381704781
:102EEC0030B50181002481814FF0FF31054D4281C5
:102EFC00C281054A4460C0E905120560046104778B
:102F0C00046230BDDCC50008010100012DE9F04F61
:102F1C001C4687B00192A2B29DF84030C2F1010666
:102F2C00C2EBC2325200029313B2049300238146C7
:102F3C000393029BBDF8447003F0040305938BB21A
:102F4C0036B20093039BA34280F29A80002E07DBDB
:102F5C00049A013C023213B2164424B2049336B2E2
:102F6C00039A013213B295B2039306EB4506059B07
:102F7C00013636B2F3B1009BBDF804801FFA84FA17
:102F8C005919D9F8003008EB0A02D3F810B04846AA
:102F9C003B4612B209B2D847009B08EB050203EB83
:102FAC000A01D9F800304846D3F810B012B23B46AB
:102FBC0009B2D847029B99071ED5009BBDF8048027
:102FCC001FFA84FA5919D9F80030A8EB0A02D3F881
:102FDC0010B048463B4612B209B2D847009BA8EB4A
:102FEC00050203EB0A01D9F800304846D3F810B0BB
:102FFC0012B23B4609B2D847029B1A071ED5009B5A
:10300C00BDF804A01FFA84F8A3EB0801D9F800302E
:10301C000AEB0502D3F810B048463B4612B209B28F
:10302C00D847009B08EB0A02591BD9F800304846D8
:10303C00D3F810B012B23B4609B2D847029BDB075B
:10304C0080D5009BBDF804801FFA84FAA3EB0A011B
:10305C00D9F80030A8EB05024846D3F810B012B2EC
:10306C003B4609B2D847009BA8EB0A02591BD9F87A
:10307C0000503B4648462D6912B209B2A84761E799
:10308C0007B0BDE8F08F2DE9F04F89B09346BDF93C
:10309C0048208A469A420592A8BF1A46BDF94C10A0
:1030AC0002EBD2756E108E42A8BF0E460446016824
:1030BC000393C968BDF850701FFA86F988471FFA48
:1030CC008AF3029303EB0908039B21689BB20393D9
:1030DC004FEA49039BB20493DDE903329B1A0FFAC2
:1030EC0088F81BB200975A462046CD690793414693
:1030FC00A847BDF814301FFA8BF56A1E21681A44D4
:10310C000593009793B22046D1F81CB00693414624
:10311C00079B12B2D847DDE904234D449B1A226861
:10312C000FFA85FB1BB20097514620469569049314
:10313C005A46A847029B2268591E039B00971944C4
:10314C0020469569049B5A461FFA81FA09B2A84792
:10315C0001235A4641462046009301973346FFF718
:10316C00D5FE0223AAEB090A0FFA8AFA5A465146EF
:10317C002046009301973346FFF7C8FE069B514645
:10318C00A3EB090904230FFA89F94A462046009358
:10319C0001973346FFF7BAFE0823204600934A46B0
:1031AC00334641460197FFF7B1FE204623685B6A20
:1031BC0009B0BDE8F04F18472DE9F04F0026354611
:1031CC0089B00493BDF94C30BDF948800593036870
:1031DC00CDE90212DB680446BDF850A0984718F1FF
:1031EC00070348BF08F10E034FEAE30B0196039B5C
:1031FC00019A05999A18BDF9043012B2994227DD4B
:10320C004FF00009049B334406930FFA89F3984559
:10321C001FFA89F117DD480705BF0698DB106D0012
:10322C00C55C18BFEDB22B060AD5029B0792194458
:10323C00236820461B6909B21F465346B847079AB4
:10324C0009F10109E1E7019B5E4401330193CEE7EB
:10325C00204623685B6A09B0BDE8F04F18470000B0
:10326C002DE9F04F91B017461E46026ABDF8683042
:10327C008246BDF86C809DF870509DF874400591A5
:10328C000293002A40F0B980B0F90C308B4240F325
:10329C003C81B0F90E30BB4240F33781062303FB6F
:1032AC000513002B40F3318107EBC403002B40F3D3
:1032BC002C81037F1BB9AF2E84BF0136F6B2DAF82E
:1032CC0000305046DB68984705230993002304938C
:1032DC008F4B06EB860633440C93BBB206930C9BC8
:1032EC00049ABDF810609B5C4FF000090793ABB2D9
:1032FC000B93BDF81430039305FB06331BB20893F4
:10330C0008230A93039B1E4436B2079ADAF800305E
:10331C00D2074DD5012D06991FFA89F23BD1012C0C
:10332C0039D1D3F810B0029B0A443146504612B240
:10333C00D847079B09F101095B0807930A9B4FFAD1
:10334C0089F9013B13F0FF030A93DED1049B01338F
:10335C005BB20493099B013B13F0FF030993BED1AD
:10336C00029B43450FD0012DDAF8003034D1012CEB
:10337C0032D10399CDF8008005319C693A46082377
:10338C00504609B2A0475046DAF800305B6A11B0DB
:10339C00BDE8F04F184704FB02120299019100940A
:1033AC00D3F814B050462B46089912B2D847C0E750
:1033BC00029A4245BDD0012D06991FFA89F206D119
:1033CC00012C04D1D3F810B00A444346ADE704FBFA
:1033DC000212CDF80480E2E70B9AE40002EB8201C2
:1033EC00039ACDF804800A44114600945C693A466D
:1033FC002B46504609B2A047C5E7137A5168F61A16
:10340C001268F6B20E9231F8362001EBC603049224
:10341C009A78012D0892DA7893F906B00C9293F908
:10342C000520099201D8012C53D9BDF924300793FA
:10343C000FFA8BF306934FF00008C146DAF8003010
:10344C005046DB689847BBB20A935B44CDF80C80BE
:10345C000F930C9B039A9A4295D2069B0027134418
:10346C000A9A039903FB04231BB20B9343460F9A4E
:10347C0002EB010B0FFA8BFB089A97423CD25A1CB9
:10348C00D2B25B070D9207D1049B04990E9A0133BB
:10349C009BB212F80190049319F0800F11D0012DFA
:1034AC00DAF80030BDF8141017D1012C15D1099A97
:1034BC001B69114439441E465A465046029B09B2B8
:1034CC00B0474FEA490901370D9B5FFA89F9FFB202
:1034DC00D2E70023CDE90633ADE7079A50463A44CC
:1034EC0002FB0511029A09B2CDE900425B690B9A05
:1034FC001E462B46B047E4E7039E089B01369844D2
:10350C00F3B25FFA88F80393A3E711B0BDE8F08F2C
:10351C00D3C00008F0B5026A04460B4685B0002AF9
:10352C0034D10A2908D1438A0282427E03EBC203BA
:10353C006382012005B0F0BD0D29FAD0E17E007E3A
:10354C00657E71B10621B4F9106001FB0061B4F91C
:10355C000C60B142C1BFB4F91210228201EBC5025A
:10356C006282E28ACDE902050192A28A204600928B
:10357C00B4F91010B4F91220FFF772FE237E228AE0
:10358C0003EB430302EB43032382D2E70A2907D15F
:10359C0000230382137B417E428A01FB0323C7E78E
:1035AC000D29C6D0157AA942C3D3917A9942C0D3BA
:1035BC0051685D1BEDB201EBC505AF782FB3E9780F
:1035CC0019B3E17E007E667E91B195F90510394400
:1035DC00B4F9107000FB0171B4F90C70B94207DD3D
:1035EC0000272782B4F91210127B02FB06126282AA
:1035FC00E28ACDE902060192A28A20460092B4F931
:10360C001010B4F91220FFF72BFE2979237E228AA1
:10361C0001FB0323B8E7012938BF0121017641766C
:10362C007047252970B504461BD800230C2505FBD3
:10363C0003F6A65FD8B2B1420DD00133042BF6D1FC
:10364C00012A0CD100230C2505FB03F2A65ED8B28F
:10365C00013601D1A15270BD0133042BF4D11846AF
:10366C00F9E70420F7E7000070B503464FF6FF7248
:10367C00012500240F4E00F130011A805E601D728E
:10368C005C720C338B42F8D10B490C4B8C69028663
:10369C0033F81440A0F89040CC69496933F81440D1
:1036AC0033F81130A0F89240A0F89430A0F896208E
:1036BC0070BD00BF00093D0074CB00089CCB000816
:1036CC00252970B505460E4621D80122FFF7A9FF22
:1036DC00032804461BD8252E0BD0B5F996300133A0
:1036EC0007D10121304605F04DFA0121304605F095
:1036FC00A3FA0C20002300FB045485F88530627A71
:10370C00237A616805F1340000F0DAF82E8670BD7A
:10371C0082B0F8B5252906AC05460E4684E80C00A7
:10372C0029D80122FFF77DFF0328044623D80C2754
:10373C0007FB0057079BBDF820207B609DF82230CB
:10374C00252E3A81BB720BD0B5F99630013307D1D7
:10375C000121304605F016FA0121304605F06CFACD
:10376C000C2000FB04547968237A627A05F134004A
:10377C0000F0A6F82E86BDE8F84002B070470000B5
:10378C002529F0B519D803464FF6FF7401260027FA
:10379C000A4D00F13002B3F900C00C338C4501BF67
:1037AC0023F80C4C43F8085C03F8046C03F8037C16
:1037BC009342F0D14FF6FF730386F0BD00093D0034
:1037CC00F0B587B08DF80F200022252904460D4650
:1037DC001F468DF817203FD8FFF723FFB4F9303080
:1037EC0006469D4210D0032803D99DF8170007B058
:1037FC00F0BD0C2101FB004104F134000B7A4A7A34
:10380C00496800F05DF82586252D07D0B4F996306F
:10381C00013303D10021284605F00EFA0C2000FBE1
:10382C000646B37A0DF1170201934FF47A730DF13A
:10383C000F01009304F13400012300F069F9252DE8
:10384C00D3D0012FD1D1B4F996300133CDD1394633
:10385C00284605F0F1F9C8E71046C8E70148FFF71C
:10386C0003BF00BFD805002070B50D0E445991FA66
:10387C00A1F3B3FA83F30F269B0006FA03F324EAB1
:10388C00030491FAA1F1B1FA81F1890002FA01F174
:10389C002143415170BD00000346074A106853B1E3
:1038AC00064A934205D002F57842934203D103F0C5
:1038BC00F5B803F0E3B87047C000002000380040B2
:1038CC002DE9F74F0D46174698460446002800F0A0
:1038DC00D0808649B0F95E0004F0E2FB8449814651
:1038EC00B4F95C0004F0DCFB82498246B4F9600058
:1038FC0004F0D6FB80490646B4F9620004F0D0FB14
:10390C008346B9F1000F00F0B480BAF1000F00F05B
:10391C00B080002E00F0AD805146484604F0E9FB23
:10392C0059468246304604F0E4FB01468146504637
:10393C0004F0DFFBA065BAF1000F00F09A80B9F13A
:10394C00000F00F09680002800F09380B4F96230EC
:10395C0020605A1C14BF4FF480234FF40073A361F2
:10396C004FF482736360FFF797FFB5EB500FC0F015
:10397C0083800023002617F0FD0FE3610CBF334654
:10398C000123022F636134BF3346022323610723D3
:10399C00B045E36214BF33468023B4F95E00C4E93A
:1039AC000836A660A662E660504904F059FBB4F9EB
:1039BC005C004F4904F054FBB4F960004D4904F02D
:1039CC004FFB2369B342B4F9603008BF0225C3F33F
:1039DC00031218BF0125042A8CBF3046474903F057
:1039EC000F0398BF51F82200454A52F823100B0ED2
:1039FC00C65891FAA1F2B2FA82F39A000F239340BF
:103A0C00334091FAA1F2B2FA82F2022D4FEA82020D
:103A1C0023FA02F34FEA11254DD0042B02D10822D0
:103A2C00FFF722FFC26822EA050295FAA5F50123E9
:103A3C00B5FA85F503FA05F51543C5602E49B4F9B9
:103A4C00620004F00DFB23682E4A93423FD12E4BAB
:103A5C009A6942F480529A619B6903F480530093F3
:103A6C00009B204603F02FF92268136843F04003B3
:103A7C00136003B0BDE8F08FB5EB900F01D30823B2
:103A8C0078E7B5EBD00F01D3102373E7B5EB101F1C
:103A9C0001D318236EE7B5EB501F01D3202369E740
:103AAC00B5EB901F01D3282364E7B5EBD01F2CBFD7
:103ABC00302338235EE7042B02D10822FFF7D4FE13
:103ACC00C36823EA050395FAA5F5C360B6E70F4A68
:103ADC009342C6D10C4BDA6942F48042DA61DB695D
:103AEC0003F480430193019BBBE700BF48CA000865
:103AFC0018CA000878CA0008A8CA0008AC00002040
:103B0C008CC7000800300140001002400038004013
:103B1C002DE9F047DDF820800C4615461E469DF831
:103B2C0024905BB1B8F1000F0BD0076800F0D4FB08
:103B3C0082462644B44207D1002003E0B8F1000FBE
:103B4C001BD10120BDE8F087BB689A07FCD514F89F
:103B5C00013B3B73B9F1000F05D1BB68DB07FCD50A
:103B6C00FB6805F8013BB8F1FF3FE3D000F0B4FB74
:103B7C00A0EB0A004045DDD3E3E70220E2E7827DBB
:103B8C00407D101A70470346427D817D914281BF72
:103B9C000169885C01325A7598BF4FF0FF3070474D
:103BAC00827D437D9A4286BF0269D05C4FF0FF3024
:103BBC007047836DD3F8B8201AB1002159779977E3
:103BCC0010477047202938BF202138B50546806939
:103BDC000C4607F05FF910B1A8612C7738BD21466F
:103BEC00BDE83840014804F0A1BA00BF24C6000863
:103BFC0013B5C37F04468DF80710BBB1817F037FDB
:103C0C000131994201D9FFF7DDFFA06918B90123F1
:103C1C00636002B010BD637F9DF80720C254637FC0
:103C2C0001200133DBB26377A377F2E701220DF1B8
:103C3C000701243000F0F2F9B0FA80F04009E8E70F
:103C4C0070B5C37F04460E461546CBB1817F037F0A
:103C5C001144994201D9FFF7B5FFA36923B9012299
:103C6C001D466260284670BD607F2A461844314666
:103C7C0007F020F8637F2B44DBB26377A377F1E77F
:103C8C0092B2243000F0CAF9002818BF0025E9E7E9
:103C9C0000214FF47A72C0E90112054A0260054A0C
:103CAC00D18DA0F88010928DA0F88220704700BFB3
:103CBC009CC600089CCB000838B500230446C0E91C
:103CCC000433C0E90633C0F8B8304B00DBB280F8DF
:103CDC002030C067A1F133004142414104F1240579
:103CEC0084F8B61084F8B72028464FF4804208496F
:103CFC0000F0AAF894F8B6304BB92846054900F004
:103D0C0008FA2846BDE83840034900F0FBB938BD35
:103D1C00A0860100BF3B00087D3D00080A46332108
:103D2C00FFF7CABF243000F051B9002343774FF49A
:103D3C0080734900C175C3837047000038B5037D9B
:103D4C0005468B420C4609D2202938BF2024006935
:103D5C00214607F09FF810B128612C7538BD21461B
:103D6C00BDE83840014804F0E1B900BF24C60008A2
:103D7C0070B5846D0546D4F8BC30466EEBB1627DEF
:103D8C00A37D9A4219D331462046FFF7D7FF23690A
:103D9C0023B94FF4CF71094804F0C8F932462069B1
:103DAC0005F1700106F086FF0023A6756375304699
:103DBC00D4F8BC30BDE87040184770BD3CC6000854
:103DCC000346806918B100211A7F06F081BF704745
:103DDC0038B50446C9B94FF42A03636594F8B63074
:103DEC00012B15D1A37FA269E17D04F1240000F021
:103DFC0049F9042828BF042045B22046FFF7E0FF0C
:103E0C0000236377E383E8B238BD4FF02A43E4E73D
:103E1C000425F8E70121FFF7DBBF002110B50446AC
:103E2C0041758175006910B1227D06F051FF0023A8
:103E3C0020466377A377FFF7C3FF10BD0148FFF758
:103E4C0027BF00BF700600202DE9F3410D46164632
:103E5C001F460446002800F086805349B0F95C00E8
:103E6C0004F01EF951498046B4F95E0004F018F9CB
:103E7C000146B8F1000F76D0002874D0404604F00B
:103E8C0038F9206000286ED0494B04F104089842A0
:103E9C006CD103F5DE33DA6942F40012DA61DA69C7
:103EAC0002F400120092009A1A6942F400121A618C
:103EBC001A6922F400121A6142F21F03A4F860304E
:103ECC003C4BC3F800803949B4F95E0004F0C8F8E3
:103EDC00B4F95C00344904F0C3F8374823688542D0
:103EEC00636006D93548854203D93548854288BF79
:103EFC0000203149FF238D428CBF4FF480450025B3
:103F0C00C4E903570025E36194F893302A46AB4289
:103F1C000CBF2B4640230221C4E90835A060666122
:103F2C0094F96000A56184F8415000F029FD94F9E2
:103F3C00600000F057FD2A46022194F9610000F060
:103F4C001FFD94F9610000F04DFD404600F022FE8B
:103F5C0020B140F2D5211B4804F0E8F80023636639
:103F6C00022384F8913002B0BDE8F081164B9842E0
:103F7C00A9D103F5DC33DA6942F48002DA61DA693B
:103F8C0002F480020192019A1A6942F480021A61C9
:103F9C001A6922F480021A6142F22123A4F86030DB
:103FAC00044BC3F804808EE7B0C8000880C8000832
:103FBC000054004030070020A0860100801A060043
:103FCC0040420F00BCC6000800580040104B10B512
:103FDC009942044606D90F4B994203D90E4B99428C
:103FEC0088BF00236068026822F001020260A360AF
:103FFC00074B201D99428CBF4FF480410021E1609A
:10400C0000F0C8FD6268136843F00103136010BD33
:10401C00A0860100801A060040420F00202A30B50D
:10402C000ED800239CB2A24204D8D2B280F89020C1
:10403C00002030BDCD5CC41884F870500133F1E71A
:10404C000120F6E710B564230446043000F042FE6C
:10405C0002280AD0032801D068B910BD94F8413069
:10406C00202B0CBF02200520F7E794F84130202BC1
:10407C0018BF0620F1E794F84130202B0CBF02202A
:10408C000420EAE72DE9F34105460C4690461F460D
:10409C0000F022F906463FB901222146284602B01B
:1040AC00BDE8F041FFF7CEBF2B6B043521460093E2
:1040BC0042463B46284600F0B7FE044650B100206D
:1040CC0002B0BDE8F08100F007F9841B284601F02E
:1040DC005CFD30B9284601F055FD202801D0632C39
:1040EC00F1D9284601F051FD632C07D8820605D47E
:1040FC00430705D40028E2D00420E1E70520DFE7E0
:10410C000320DDE720B119B18166043000F07CBFDB
:10411C00704720B119B1C166043000F075BF70470B
:10412C00C36810B59A4204461DD179B9836E80F8E4
:10413C008D100BB104389847204694F88C2004F16C
:10414C006C012023BDE8104000F0E8BE00230122E2
:10415C00036680F88D20016E0423BDE810400144F5
:10416C006C3100F016BF10BD10B590F88D300446C0
:10417C00012B04D1036E13B1436E0438984702230C
:10418C0084F88D30002320462366BDE8104000F0F3
:10419C003BBF036E1F2BDEBF036E0133036690F82B
:1041AC008D30012BDAB205D1016E042301446C3140
:1041BC0000F0EFBE7047002380F88C30704790F809
:1041CC008E300BB900F020BF70470000014B18680F
:1041DC0001F018B830070020014B186801F036BC0C
:1041EC0030070020014B586801F00CB83007002054
:1041FC00014B586801F02ABC3007002003460A49DD
:10420C0010B508680344EFF30882934205D90C22D9
:10421C004FF0FF30054B1A6010BD054A054C121BC0
:10422C009342F4D20B60F7E7A0000020E0130020CB
:10423C000050002000040000FEE700001622024B94
:10424C004FF0FF301A607047E013002001207047D8
:10425C007047000038B50E4B054618784FF47A734A
:10426C00B3FBF0F30B4A1068B0FBF3F000F0DCFB8F
:10427C00044658B90F2D09D8024629464FF0FF3095
:10428C0000F07EFB2046044B1D6038BD0120FCE78E
:10429C00A4000020C0000020A8000020074A08B598
:1042AC001368032043F01003136000F057FB002049
:1042BC00FFF7D0FFFFF7CCFF002008BD0020024025
:1042CC00034A044B11681B780B441360704700BF02
:1042DC00EC090020A4000020014B1868704700BFB7
:1042EC00EC090020F7B5002604460D460196FFF7B1
:1042FC00F3FF236807469A68D20508D50120A36A04
:10430C0084F8246043F02003A36203B0F0BD5A6824
:10431C00D60503D4DB6A13F4700F3AD0394B022064
:10432C001E6802F043FC2368374A1969B6FBF0F6A5
:10433C001142364A4DD1D8683549084249D11969DC
:10434C00114257D1DA68334B1A4214BF2923142374
:10435C005E43019BB34220D26A1C05D085B1FFF7A6
:10436C00BBFFC01BA8420BD8019B01330193F0E7A4
:10437C00681C0FD025B1FFF7AFFFC01BA84208D9AE
:10438C00A36A032043F00403A362002384F82430BF
:10439C00BBE7226813689907EAD56FF0120322680D
:1043AC001360A36A43F40073A362936803F460235D
:1043BC00B3F5602F24D1207B10BBA36A23F4807348
:1043CC00A362A36ADB041BD4A36A43F00103A362B8
:1043DC009BE71969114203D1D9680E4A11420BD0DF
:1043EC0019690D4A114209D1DB68134214BFFC2331
:1043FC005423ADE72923ABE75423A9E7FC23A7E714
:10440C00002082E7C0000020244992249224491203
:10441C002449920092244900499224000368D86CE4
:10442C0070470000002373B5019390F824300446C4
:10443C00012B6CD0012380F824304D680268062DC6
:10444C00086805EB850322D81F26556B053B9E405B
:10445C0025EA060500FA03F32B43536309288B68FE
:10446C0000EB40054FF0070129D9D6681E3DA94045
:10447C0026EA0101AB400B43D360A0F11003012BE2
:10448C0025D90020002384F8243002B070BD0C2DF7
:10449C004FF01F0509D8166B233B9D4026EA0505F6
:1044AC0000FA03F32B431363D8E7D66A413B9D40D4
:1044BC0026EA050500FA03F32B43D362CEE7106915
:1044CC00A94020EA0101AB400B431361D9E7114B22
:1044DC009A4216D193681B02D3D49368102843F4E4
:1044EC0000039360CDD10C4B0C4A1B68B3FBF2F26A
:1044FC000A2353430193019B002BC2D0019B013B28
:10450C00F8E7A36A012043F02003A362BAE7022074
:10451C00BBE700BF00240140C000002040420F0058
:10452C00806A7047002373B50193036804469A6848
:10453C00D20702D5002002B070BD9A6842F0010289
:10454C009A60124B124A1B68B3FBF2F30193019B66
:10455C00C3B9FFF7C1FE064623689D6815F0010537
:10456C00E8D1FFF7B9FE801B0228F5D9A36A012018
:10457C0043F01003A362E36A84F8245043F0010370
:10458C00E362D8E7019B013BE0E700BFC0000020DD
:10459C0040420F0010B590F824300446012B54D043
:1045AC00012380F82430FFF7BDFF002849D1A36A0E
:1045BC00274A23F4407323F0010343F48073A3626E
:1045CC002368934204D123494A6812F4702F2ED1E8
:1045DC00A26A22F48012A2625A68520541BFA26AF2
:1045EC0022F4405242F48052A262A26A12F4805227
:1045FC001CBFE26A22F00602E262002284F8242048
:10460C006FF002021A609A6802F46022B2F5602F11
:10461C0013D10F4A934205D1A2F58062526812F46D
:10462C00702F0AD19A6842F4A0029A6010BDA26A57
:10463C0042F48012A2624A68CFE79A6842F4801270
:10464C00F3E7002384F82430F0E70220EEE700BF04
:10465C00002801400024014038B5036804469A68DC
:10466C00D20701D4002038BD9A6822F001029A606A
:10467C00FFF732FE054623689B68DB07F2D5FFF790
:10468C002BFE401B0228F6D9A36A012043F010032D
:10469C00A362E36A43F00103E362E4E7F8B504467E
:1046AC0000286ED0836A23B9C36280F8243004F0EA
:1046BC001BF82046FFF7D0FFA36A13F0100362D15A
:1046CC00002860D1A26AE569616822F4885222F060
:1046DC00020242F002022943A568A262227BB5F5D0
:1046EC00807F41EA420137D0012D14BF00274FF4DF
:1046FC008077267D012E06D182BBA269013A47EA5A
:10470C00423646F400672268B5F5807F566826F479
:10471C00694646EA0706566097681D4E06EA070684
:10472C0046EA0106966001D0012D02D12369013BB6
:10473C001B05D56A25F470052B43D3629268154B83
:10474C001340994213D10023E362A36A23F00303BD
:10475C0043F00103A362F8BD2F46CAE7A26A42F0F8
:10476C002002A262E26A42F00102E262CBE7A36A93
:10477C0023F0120343F01003A362E36A43F0010336
:10478C00E3620120E7E7A36A43F01003A362F8E7B2
:10479C00FDF7E1FFFE0E1FFF38B50446002850D090
:1047AC00836A43F002038362FFF756FF0546002835
:1047BC0042D16FF01F02236823481A605968234ABC
:1047CC000A405A609968224A0A409A60DA6802F0F4
:1047DC007F42DA601A6902F040421A6159691D4A37
:1047EC0011405961996911409961D9691140D96198
:1047FC00196A11401962596A11405962996A0A4042
:10480C009A62DA6A02F07F42DA62DA6A02F07F4276
:10481C00DA621A6B02F040421A635A6B02F04042A1
:10482C005A63996B014099639A6B02409A632046D4
:10483C0003F08CFFE562A562002384F8243028463F
:10484C0038BD0125FBE700BF0000C0FF00003FFFA3
:10485C00F00601FF00F0FFFF10B590F8243004467D
:10486C00012B11D0012380F82430FFF7F5FE38B965
:10487C00A36A23F4885323F0010343F00103A362DA
:10488C00002384F8243010BD0220FCE7002373B50C
:10489C00019390F824300446012B5AD0012380F860
:1048AC002430FFF7D9FE0546002832D1A36A022036
:1048BC0023F4885323F0020343F00203A362264B34
:1048CC001E6802F073F9B6FBF0F676000196019BB8
:1048DC001BBB2046FFF726FE2268936843F00803B3
:1048EC009360FFF7F9FC064623689A68120718D400
:1048FC009A6842F004029A60FFF7EEFC06462368C1
:10490C009B685B071FD4A36A23F0030343F00103E6
:10491C00A362002384F8243012E0019B013B019335
:10492C00D5E7FFF7D9FC801B0A28DDD9A36A01253E
:10493C0023F0120343F01003A362002384F8243005
:10494C00284602B070BDFFF7C7FC801B0A28D6D9D9
:10495C00ECE70225F4E700BFC00000200749030282
:10496C00CA6803F4E06322F4E0621204120C1343ED
:10497C0043F0BF6343F40033CB60704700ED00E0BD
:10498C00164B30B5DC68C4F30224C4F10703251DB3
:10499C00042B28BF0423062D4FF0FF3598BF0024AD
:1049AC0005FA03F388BF033C21EA0303A34005FA8D
:1049BC0004F422EA0402002843EA0203ACBF00F12B
:1049CC006040074A4FEA0313DBB2ABBF00F561400E
:1049DC0000F00F0080F80033135430BD00ED00E000
:1049EC0014ED00E0002808DB0123420900F01F0051
:1049FC0003FA00F0014B43F82200704700E100E09D
:104A0C0000280DDB0122430900F01F0002FA00F020
:104A1C00044A203342F82300BFF34F8FBFF36F8F4C
:104A2C00704700BF00E100E00138B0F1807F0AD28E
:104A3C00F021064B064A586082F82310002007220A
:104A4C0098601A6070470120704700BF10E000E0CA
:104A5C0000ED00E0002809DB0122430900F01F00F3
:104A6C0002FA00F0024A603342F82300704700BF9C
:104A7C0000E100E0704708B5FFF7FCFF08BD00003F
:104A8C0008B590F82130022B03D004238363012056
:104A9C0008BD03681A6822F00E021A601A6822F028
:104AAC0001021A60174A93421CD0143293421BD055
:104ABC00143293421AD0143293421AD014329342C5
:104ACC001AD0143293420CBF4FF480134FF0807302
:104ADC000D4A53604FF480730384436B7BB198474A
:104AEC000020D5E70123F3E71023F1E74FF480739F
:104AFC00EEE74FF48053EBE74FF48033E8E71846CA
:104B0C00C6E700BF080002400000024090F82100F8
:104B1C0070470000044A08B55169014202D0506147
:104B2C0003F006FF08BD00BF000401402DE9F84664
:104B3C0006460F4691461D464FEA114A3368BAF1B4
:104B4C00010F0CBF5C699C6927EA0404A4B2B4FA97
:104B5C0084F46409A14501D0002017E06A1CEED052
:104B6C00FFF7BAFB089BC01AA84201D8002DE5D16B
:104B7C00002320220120336386F83D2086F83E3046
:104B8C00326C86F83C3042F020023264BDE8F88684
:104B9C007047000070B5044608B9012070BD90F84C
:104BAC003D3003F0FF021BB980F83C20FFF7F0FF0B
:104BBC002423226884F83D30136823F0010313602A
:104BCC0001F05CFF3F4A6368934294BF3E4A3F4A00
:104BDC0090428CBF00220122002ADED13C4E22687A
:104BEC00B0FBF6F65168013821F03F0131435160BA
:104BFC003449156A8B4281BF4FF4967171434FF45F
:104C0C007A76B1FBF6F125F03F0594BF711C0131AA
:104C1C0029431162D1692B4D21F44F41AB4221F054
:104C2C00FF0132D85B00B0FBF3F0431C40F6FC7084
:104C3C00034242D0C3F30B030B43D3611168D4E995
:104C4C00073021F0C00103430B4313609168D4E992
:104C5C00030321F40341034321F0FF010B43936051
:104C6C00D168D4E9053021F0FF0103430B43D36035
:104C7C001368002043F0010313602023206484F8A0
:104C8C003D30206384F83E0088E7A56855B903EBF6
:104C9C004303B0FBF3F30133C3F30B037BB143F4D6
:104CAC000043C9E719256B43B0FBF3F30133C3F39E
:104CBC000B0323B143F44043BEE70423BCE70123B9
:104CCC00BAE700BFA08601007F841E00FF083D00EC
:104CDC0040420F002DE9F04F044685B01E460F46AA
:104CEC009146FFF7F9FA94F83D300546202B03D096
:104CFC00022005B0BDE8F08F009019230122204658
:104D0C004849FFF713FF0028F2D194F83C30012BEF
:104D1C00EED0012384F83C3023684FF0010A1A6866
:104D2C00DFF800B1D20758BF1A6807F0FE075CBF66
:104D3C0042F001021A601A6822F400621A602423FD
:104D4C0084F83D3000232364A3F58033E3622268AA
:104D5C004FF001111368204643F4807313603346FF
:104D6C0000220095FFF7E2FE08B10120C1E723689D
:104D7C004FF0A0081F61FFF7AFFA054623685A6988
:104D8C005B69C2F34002C3F3802394F83D10A02961
:104D9C0001D0134321D04FF02008236884F83D80C4
:104DAC005A6912F0020F1A6842F400721A6024D089
:104DBC00002203925A69204603929B6901220393B5
:104DCC00039B184919230095FFF7B0FE0028CCD19E
:104DDC0084F83D8084F83C008BE7FFF77DFA401B9C
:104DEC00B04200D80EB984F83D8023685A695B69DB
:104DFC00C2F34002C3F38023C7E76FF480625946C5
:104E0C005A612046192301220095FFF78FFE0028D6
:104E1C00ABD10AF1010ACA4599D384F83D8084F8D4
:104E2C003C00A2E702001000F7B5002400940194A6
:104E3C0090F83D40089D202C02D0022003B0F0BD1C
:104E4C00082D354F01D0012D1ED146F2A8163C6815
:104E5C00B4FBF6F6192474430194019C013C0194B3
:104E6C00019C6CB92023046380F83D3080F83E40EF
:104E7C00036C80F83C4043F0200303640120DDE721
:104E8C000468A469A407E8D446F2A8163C68B4FBED
:104E9C00F6F6192474430194019C013C0194019C85
:104EAC00002CDFD004682668B705F5D490F83C6078
:104EBC00012EC2D02668F6075EBF266846F00106B2
:104ECC002660266826F400662660212680F83D6060
:104EDC00102680F83E60002606644385438DC5622B
:104EEC0041640385036B42620093009B112B05D137
:104EFC00B5F52A0F02D0B5F12A4F03D1236843F43C
:104F0C0080732360002380F83C306268184642F4BA
:104F1C00E062626092E700BFC000002037B590F8F5
:104F2C003D4004F02804282C31D100292DD0002A32
:104F3C002BD090F83C40012C29D005682C68E40754
:104F4C005EBF2C6844F001042C602C6824F40064CF
:104F5C002C60292480F83D40202480F83E40002419
:104F6C0004644285428DC36201946B694162019372
:104F7C00AB69028580F83C4020460193019B6B682D
:104F8C0043F4E0636B6003B030BD0120FBE702200B
:104F9C00F9E737B590F83D4004F02804282C31D1BE
:104FAC0000292DD0002A2BD090F83C40012C29D080
:104FBC0005682C68E4075EBF2C6844F001042C6083
:104FCC002C6824F400642C602A2480F83D402024B2
:104FDC0080F83E40002404644285428DC3620194F3
:104FEC006B6941620193AB69028580F83C402046B5
:104FFC000193019B6B6843F4E0636B6003B030BDBD
:10500C000120FBE70220F9E790F83D30202B14D16A
:10501C00282380F83D30036800201A68D2075EBF51
:10502C001A6842F001021A601A6842F480621A602F
:10503C005A6842F440725A607047022070477047B9
:10504C007047704770477047002370B5406A02681C
:10505C0090F83D101468466B856B24F48064B36241
:10506C00AB62146043851468736324F001046B63B2
:10507C00146090F83D40C9B2602C08D1202280F811
:10508C003D2080F83E300364FFF7DDFF70BD01F07A
:10509C00280128290DD1146844F001041460146807
:1050AC0044F480641460036380F83D10FFF787F8C4
:1050BC00ECE7202280F83D2080F83E30F6E7000037
:1050CC0010B590F83D2090F83E1004461029036866
:1050DC00D2B212D1222A10D1196821F400611960C0
:1050EC005968090504D4602A1CBF202284F83D208D
:1050FC000022226384F83E2007E002F028012829D0
:10510C00EED10022226384F83D105A6812F400623A
:10511C004CD05A68606B22F400625A6090F82130CF
:10512C00012B364B28D04363FFF7AAFC50B1226801
:10513C00606B136823F001031360202384F83D3067
:10514C00436B984794F83D30226CDBB2520712D572
:10515C00282B10D122682046536823F4E063536057
:10516C00274B2022E3620023236384F83D2084F83C
:10517C003E30FEF7F9FF10BDA06B4363FFF780FCD8
:10518C000028DFD023685A69520605D51A69636A6C
:10519C001A70636A013363622268A06B136823F090
:1051AC0001031360202384F83D30C9E794F83D10C7
:1051BC00602915D1202184F83D1022645A695006CB
:1051CC0005D51A69636A1A70636A013363622268CF
:1051DC002046136823F001031360FFF734FFB1E797
:1051EC005A69510605D51A69636A1A70636A0133E4
:1051FC0063622046FEF7E3FFA4E700BF55500008AA
:10520C000000FFFF70B5036804465A68C16A90F845
:10521C003E5090F83D00102D8CB0EEB2C0B202D0D2
:10522C00402E40F0B7829D695869C60707D4B1F586
:10523C002A0F02D0B1F12A4F52D10CB070BD91059A
:10524C004ED5E26AB2F52A0F0CD10122E26294F833
:10525C003E20402A11D1226D52B9626C02F0FE023E
:10526C001A61EAE7E26AB2F12A4FF0D10822EDE7BF
:10527C00626C42F00102D2B2F2E72269B2F5804FC1
:10528C001BD194F83D20212A626C12D102F0FE024F
:10529C001A61626B12B9A16B0029CED0926A1AB94D
:1052AC00A26B926A002AC8D05A6842F400625A6013
:1052BC00C3E742F00102D2B2EAE7226D32B9626C66
:1052CC00D21102F0060242F0F002C9E7226D012A67
:1052DC00B3D1626CD21102F0060242F0F102BFE7C8
:1052EC00060703D5910501D5626CE4E7860740F10A
:1052FC00E680910540F1E38094F83E10E26A256B5C
:10530C0094F83D00C9B2222840F0D180206D40B9FC
:10531C00402906D100905A6900929B690093009B2A
:10532C008BE7216D81B92069B0F5404F0CD101910B
:10533C005A6901929A690192019A1A6842F4807230
:10534C001A60236D013328E0618D89B251B9029145
:10535C005A6902929A690292029A1A6842F400728D
:10536C001A6019E0618D89B201294AD112F5803F8A
:10537C001CD11A6822F480621A605A6812F4006216
:10538C000DD01A6822F480621A60002203925A69C6
:10539C0003929B690393039B002323654DE70492BF
:1053AC005A6904929A690492049AD6E7082A1CD086
:1053BC00202A1AD0122D0DD1012A16D11A6822F4E6
:1053CC0080621A60002205925A6905929B690593C6
:1053DC00059BE1E7102AF1D88F4921FA02F2D60792
:1053EC00ECD51A6842F48062EBE71A6822F480620A
:1053FC001A60002206925A6906929A690692069AD7
:10540C00ABE7618D89B2022933D1102A05D88249C4
:10541C00D140C94311F0010120D0196841F4006159
:10542C0019600021079159690791996907910799AA
:10543C00196821F48061196059680D05ACD512F515
:10544C00803F06D0511E1F29A6D8744ACA40D007E7
:10545C00A2D55A6842F480525A609DE7186840F40D
:10546C0080601860089159690891996908910899A8
:10547C00E2E7196841F480611960596809050ED595
:10548C0012F5803F07D0013A1F2A08D8634921FA48
:10549C0002F2D60703D55A6842F480525A600022B1
:1054AC0009925A6909929B690993099B74E7002236
:1054BC000A925A690A929B690A930A9BBDE66D0788
:1054CC00596840F1AD800E053FF5B7AE0506C0F347
:1054DC00800169D5500567D5002968D194F83D2025
:1054EC00258D94F83E10D2B2E06AC9B2C5B9212A12
:1054FC0018D1082878D0202876D010F5803F73D0AA
:10550C005A6822F4E0625A6011232363002384F862
:10551C003E302023204684F83D30FFF790FD8CE68A
:10552C00212A05D040297FF488AE222A7FF485AE4B
:10553C00628D92B21AB95A6822F48062B7E694F876
:10554C003E20402A26D1226D62B9E26C012AA26C5F
:10555C0004D1D2B21A61236D02331EE7C2F30722C3
:10556C001A61EEE6226D012A02D1A26CD2B2F7E7E3
:10557C00226D022A7FF461AE94F83D20222A04D1D8
:10558C001A6842F480721A6057E694F83D20212A7A
:10559C007FF453AE626A12F8011B19616262638D6B
:1055AC00013B9BB2638548E600293FF446AE920569
:1055BC007FF543AEE16A94F83D20212A7FF43DAE9D
:1055CC00628D92B2002AE5D108290DD020290BD08A
:1055DC0011F5803F08D0596821F4E061596011231E
:1055EC00236384F83E2094E75A68204622F4E06254
:1055FC005A601A6842F400721A6000232022236356
:10560C0084F83D2094F83E2084F83E30402A84D122
:10561C00FFF717FD11E600BF140001008180008028
:10562C000E053FF50AAE4506C0F3800148D550057E
:10563C0046D5002947D194F83D20222A7FF4FDADB0
:10564C00628D92B2032A14D91A69636A1A70636A5A
:10565C0001336362638D013B9BB26385638D9BB2A7
:10566C00032B7FF4EAAD2268536823F48063536004
:10567C00E3E5E06A02283FF4E0AD012A3FF6DDAD38
:10568C001A6822F480621A605A6822F4E0625A6046
:10569C001A69636A1A70636A01336362638D013B32
:1056AC009BB26385202384F83D3094F83E3084F817
:1056BC003E10402B68D121632046FFF7C3FCBCE5AC
:1056CC0000293FF4BAAD92057FF5B7ADE26A608D63
:1056DC00616A80B2042809D15A6822F480625A6047
:1056EC001B690B70636A0133636258E7608D80B28B
:1056FC0003280CD15868042A20F480605860EFD03D
:10570C00022AEDD01A6822F480621A60E8E7608DF4
:10571C0080B20228E4D1012A01D0102A28D11A68BB
:10572C0022F480621A601B690B70626A531C6362FC
:10573C00638D013B9BB2638523681B695370636A5D
:10574C00226801336362638D013B9BB263855368AE
:10575C0023F440735360202384F83D3094F83E309A
:10576C00402B4FF0000384F83E300DD12363A3E7A8
:10577C00042A01D0022A03D11A6842F48062D1E7CC
:10578C001A6842F40072CDE7122320462363FFF718
:10579C0057FC52E5216C11B3002559698E0728D5A9
:1057AC00960526D5226C02B19D6994F83D2002F035
:1057BC002802282A16D15A686FEA950122F48062D1
:1057CC005A602B064FF00003204654BFA289228B4F
:1057DC0001F0010184F83C30FEF7A2FC2DE59D6937
:1057EC005969DBE76FF002025A61002384F83C3000
:1057FC0023E5CE0640F1B180950540F1AE8094F8DA
:10580C003D505A68EDB222F4E0625A6000220B92CD
:10581C005A690B921A6842F001021A600B9A1A68C4
:10582C0022F480621A605A68120520D505F0F7023E
:10583C00222A4AD1A06B0268526892B26285628DAC
:10584C0092B21AB1226C42F0040222645A6822F419
:10585C0000625A60FFF75AF9012808D0A06B794B07
:10586C004363FFF70DF910B1A06B436B9847638D41
:10587C009BB213B323685A69560709D51A69636A30
:10588C001A70636A01336362638D013B9BB263855B
:10589C0023685A69500609D51A69636A1A70636AD3
:1058AC0001336362638D013B9BB26385638D9BB255
:1058BC001BB1236C43F004032364236C13B3204605
:1058CC000CB0BDE87040FFF7FBBB606B0268526820
:1058DC0092B26285628D92B21AB1226C42F00402CD
:1058EC0022645A6822F400625A60FFF70FF901280B
:1058FC00BDD0606B534B4363FFF7C2F80028B6D0A2
:10590C00606BB2E72A2D06D123632823204684F846
:10591C003D30FEF73EFC94F83D30282B0CD14A4B21
:10592C002022E36200232046236384F83D2084F880
:10593C003E30FEF719FC80E4236B222B02D0222D83
:10594C007FF47BAC00232022236384F83D2084F871
:10595C003E302046FEF71DFC6FE400F0F7002128D6
:10596C00C1F3800535D1090627D5560525D53DBB94
:10597C0094F83D10628DC9B292B2002A3FF45DAC2E
:10598C00626A12F8015B1D616262628D013A92B229
:10599C006285628D92B2002A7FF44FAC29297FF484
:1059AC004CAC5A6822F480625A602823206320464B
:1059BC0084F83D30FEF7FFFB3FE4002D3FF43DAC97
:1059CC0095057FF53AAC628D92B2002A3FF435AC66
:1059DC00E0E5480627D5510525D53DBB94F83D207B
:1059EC00618DD2B289B200293FF427AC1969636A80
:1059FC001970636A01336362638D013B9BB26385EB
:105A0C00638D9BB2002B7FF418AC2A2A7FF415AC63
:105A1C002268536823F48063536022232363282372
:105A2C0084F83D3095E7002D3FF407AC92057FF5E7
:105A3C0004AC628D92B2002A3FF4FFAB1A69636A20
:105A4C001A704FE6555000080000FFFFF8B50368C8
:105A5C0004465F695E68FA05C7F300250BD5F005AF
:105A6C00C6F3002507D56FF4807201255A611A68B8
:105A7C0042F400421A60B90506D5F20542BF6FF434
:105A8C00007245F002055A61780537D5F10535D518
:105A9C0094F83EC0618D94F83D20BCF1200F206B32
:105AAC0089B2D2B25AD1002958D102F0F70121297A
:105ABC0003D0282A52D1212850D194F83D20E16AF4
:105ACC00D2B2082901D020292AD1282A28D12C4A3F
:105ADC002046E2625A6822F4E0625A606FF48062F7
:105AEC005A611A6822F480621A6000232022236310
:105AFC0084F83D2084F83E30FEF736FB3A053BD562
:105B0C00F30539D56FF40062236845F008055A6136
:105B1C00236C20461D432564BDE8F840FFF7D0BA3E
:105B2C00212A17D116492046E1622263202284F8EB
:105B3C003D20002284F83E205A6822F4E0625A602C
:105B4C006FF480625A611A6822F480621A60FEF760
:105B5C0032FBD3E76FF480625A61CFE76FF4806257
:105B6C005A6194F83E2045F00405102A02BF1A68C9
:105B7C0042F400721A60C1E7002DC9D1F8BD00BF14
:105B8C000000FFFF90F83D007047006C7047F0B5C7
:105B9C00044687B0002867D090F8A93403F0FF02C0
:105BAC001BB980F8A82404F0F1FC032325466E46AB
:105BBC0084F8A93455F8100B01F0D0FB0FCD0FC6AB
:105BCC002B68271D336097E80E00206801F0B6FBA8
:105BDC000021206801F0CCFB00212346224601263F
:105BEC00084604F1100582F82810918601310F291E
:105BFC00C2E90E0082F8296082F82B001064A2F82A
:105C0C004800A2F84A0002F12402ECD100210A4615
:105C1C0083F86812A3F8741201310F29C3E99E228C
:105C2C0083F8692283F86B22C3F88022A3F88822B8
:105C3C00A3F88A2203F12403EAD16E460FCD0FC6D6
:105C4C002B68336097E80E00206801F093FB4FF04F
:105C5C00000384F824300123206884F8A93401F06F
:105C6C0092FE002007B0F0BD0120FBE710B590F8C4
:105C7C00A8340446012B0ED0012180F8A81400F0A2
:105C8C0084FC206801F07DFE206801F05EFB0020A2
:105C9C0084F8A80410BD0220FCE710B590F8A824E5
:105CAC000446012A0BD0012280F8241080F8A82485
:105CBC00006801F060FE002084F8A80410BD0220EA
:105CCC00FCE710B50446242011F0800F1BBF01F037
:105CDC007F0100FB014100FB0141283108BF01F5A8
:105CEC001A710A61CB7094F8A834012B09D00123E6
:105CFC00206884F8A83401F059FB002084F8A8042B
:105D0C0010BD0220FCE7242310B511F0800F1ABF40
:105D1C0001F07F0103FB010103FB010190F8A834A2
:105D2C0014BF283101F51A71012B044609D0012347
:105D3C0080F8A834006801F0DFFC002084F8A80487
:105D4C0010BD0220FCE72DE9F04F242701F07F065F
:105D5C007743C119C1E99F23002307F51A7905463A
:105D6C00814485B00068C1F8843236B9494601F0E7
:105D7C0020FE002005B0BDE8F08F91F8683230F8B5
:105D8C0023309BB2ADF80C30BDF80C30580632D530
:105D9C00B1F88A324FF0240B4FF6FE780BFB065409
:105DAC0007F5227A07F28A27AA442F440BB1434500
:105DBC0024D10BFB065696F87232002BD9D1D6F8AB
:105DCC007C32002BD5D0D6F88032002BD1D096F86F
:105DDC0068122A6832F8213023F4804323F07003D0
:105DEC001B041B0C83F4405343F4004343F0800327
:105DFC0022F82130BDE7B1F88832CBE7D4F87C1219
:105E0C000029B6D0D4F880020028B2D04FF6FF7C1F
:105E1C00BDF80C2052064BBFB4F87022B4F86E22B9
:105E2C00A4F88A82A4F88882634506D0984205D2E9
:105E3C004946286801F02BFD9BE700232868019355
:105E4C0001F029FE019BD4F884221A44C4F8842260
:105E5C00D4F87C221A44C4F87C22D4F88022D21ABA
:105E6C00C4F880221AB1D4F87822934204D228467E
:105E7C0094F8681204F0DAFB94F869327BBB94F85E
:105E8C0068122A6832F8213023F0F0031B051B0D31
:105E9C0043F4004343F0C00322F82130BDF80C302A
:105EAC00002213F0400F0CBF51463946D1E85F3F3A
:105EBC009BB2ADF80E30BDF80E309BB243451ED0F0
:105ECC0094F868222B6833F822309BB2ADF80C3072
:105EDC00BDF80C305B0617D4B4F8883266E7012B9A
:105EEC00DCD194F868122A6832F8213023F0F003E0
:105EFC001B051B0D43F4404343F08003CCE7C1E882
:105F0C00532F002BD2D1DBE7B4F88A324EE724238F
:105F1C0001F00F0103FB0101B1F88402704738B5A1
:105F2C0001F07F04242100256143441828310144E9
:105F3C00C4E90F236564006801F03BFD284638BDB9
:105F4C002DE9F7430446006801F01FFD020440F1FF
:105F5C003B8100237E4FDFF8FC81DFF8FC91ADF82C
:105F6C000430ADF806302068B0F844309BB21A0407
:105F7C00ADF8043040F12881BDF8046016F00F062E
:105F8C0040F0AB80BDF80410038811F010019BB2F7
:105F9C0026D13B400380B0F8503094F828209BB2B7
:105FAC0003EBC20300EB4300D0F80434E26BC3F301
:105FBC00090363641344E363204604F040FB94F844
:105FCC002430002BCFD0226C002ACCD194F8243072
:105FDC00216843F08003A1F84C3084F82420C2E7F8
:105FEC00ADF80630BDF806301B051FD5B0F85030A3
:105FFC0094F868229BB203EBC20300EB4303D3F883
:10600C000C34B4F86C22C3F30903C4F8843204F2E0
:10601C00AC4101F040FD22682046138823F0700348
:10602C001B051B0D138004F0FBFA9CE7BDF8063032
:10603C001E0498D5038823F070031B051B0D0380E9
:10604C00B0F8503094F868229BB203EBC20300EB1B
:10605C004303D3F80C34C3F30903C4F8843263B19B
:10606C00B4F86C22D4F87C1201F015FDD4F87C3213
:10607C00D4F884221344C4F87C320021204604F066
:10608C00D5FA2268D4F87852B2F850103E2D89B265
:10609C0001F1060102F5806017D9C5F34F13ED0627
:1060AC0004BF03F1FF339BB249EA83239BB240F850
:1060BC00113013889BB203EA080383F4405343F472
:1060CC00004343F0800313804DE7C5F34F03EE0705
:1060DC0044BF01339BB29B02E8E730F826309BB2F9
:1060EC00ADF80630BDF806301D0440F1478124227E
:1060FC0030F8263002FB064223F070031B051B0D03
:10610C0020F8263092F8723200F5806533BBB0F877
:10611C00503092F868129BB2063303EBC10355F86A
:10612C001350C5F30905002D00F00981B2F86CE29B
:10613C002421714304EB010CDCF880329D4240F2C7
:10614C00788101F51A71214401F0A1FB3CE000BFFC
:10615C000F8FFFFF8FBFFFFF0080FFFFBDF80630E2
:10616C00590640F1C980B2F88AC2BCFA8CFC4FEADD
:10617C005C1C242101FB064191F86832D1F8802285
:10618C004FEAC30EB0F850309BB27344BCF1000F11
:10619C0000F03281063355F81350B1F870E2C5F3B4
:1061AC0009053AB1D1F87C3223B1BDF806305A0654
:1061BC0000F1AA804FF6FF73002D08BF1D46242363
:1061CC0003FB0646A6F88A52206801F0DEFB430565
:1061DC000FD522682046B2F8443023F480631B04A8
:1061EC001B0CA2F8443004F036FA00212046FFF7CD
:1061FC0054FD206801F0C9FB470408D52268B2F8A9
:10620C00443023F480431B041B0CA2F84430206858
:10621C0001F0BBFB860408D52268B2F8443023F4A5
:10622C0000531B041B0CA2F84430206801F0ADFB9A
:10623C00C5041CD522682046B2F8403023F0040374
:10624C001B041B0CA2F84030B2F8403023F00803BA
:10625C001B041B0CA2F8403004F01AFA2268B2F8A6
:10626C00443023F480531B041B0CA2F844302068E8
:10627C0001F08BFB00051DD52068B0F840309BB2B7
:10628C0043F00803A0F84030B0F8443023F4006326
:10629C001B041B0CA0F84430B0F840309BB243F008
:1062AC000403A0F8403001F070FBC10402D4204676
:1062BC0004F0DEF9206801F068FB82050BD522683A
:1062CC002046B2F8443023F400731B041B0CA2F8D4
