:020000040800F2
:1008000000500020C99500081196000811960008B4
:1008100011960008119600081196000800000000CB
:100820000000000000000000000000001196000819
:100830001196000800000000119600080B870008C0
:1008400011960008119600081196000811960008EC
:100850001196000811960008799400087F9400080A
:10086000859400088B940008919400081196000864
:1008700011960008119600081196000811960008BC
:1008800011960008119600081196000811960008AC
:1008900011B20008119600081196000897940008FC
:1008A00011960008999C000811960008AD9C00085C
:1008B000B19C0008C59C0008D99C0008E94C0008C0
:1008C000F54C0008014D00080D4D00081196000878
:1008D00011960008B9910008D1910008E99100082B
:1008E000AD9400083D8C00081DB200080000000017
:1008F00000000000000000000000000000000000F8
:0C09000000000000000000005FF808F19B
:10090C00034613F8012B002AFBD1181A0138704743
:10091C0010B5054C237833B9044B13B10448AFF32D
:10092C0000800123237010BDB802002000000000DD
:10093C0040BB000808B5034B1BB103490348AFF398
:10094C00008008BD00000000BC02002040BB000875
:10095C0008B5084B1B785BB10749084809F05AFAEF
:10096C0000230121064A1370064A1170064A1370BF
:10097C0008BD00BF82040020FABB0008E00A00207A
:10098C00E40600208D040020E903002008B5074B85
:10099C001B7853B10649074809F03CFA0023064A74
:1009AC001370064A1370064A137008BD82040020A7
:1009BC0005BC0008E00A00208D040020E40600209D
:1009CC00E903002003681B68184701F10803DBB238
:1009DC00072B09D8012202FA03F313F0DD0F03D021
:1009EC0003681868FFF7EEBF70470000243810B595
:1009FC000C2800F2DB80DFE810F00D00D9002A0093
:100A0C00D90044005E00D9007700D9009000D900CD
:100A1C00A900C1006649674809F0FCF9664B1B78D0
:100A2C000BB9664A1370664B1C78002C40F0BE80E4
:100A3C0001222146634802F030F8022008F023FF1F
:100A4C0022462146BDE810405E4802F026B85E49B9
:100A5C00584809F0DFF9584B1B7813B90122574B52
:100A6C001A70574B5C78002C40F0A080012255483E
:100A7C00114602F012F8042008F005FF224601216D
:100A8C00E0E752494B4809F0C5F94B4B1B7813B9B9
:100A9C0002224A4B1A704A4B9C78002C40F08680FC
:100AAC0001220221474801F0F8FF022008F0EBFE7A
:100ABC0022460221C6E746493E4809F0ABF93E4BB7
:100ACC001B7813B903223D4B1A703D4BDC78002C7C
:100ADC006CD1012203213B4801F0DFFF022008F01A
:100AEC00D2FE22460321ADE73A49324809F092F989
:100AFC00314B1B7813B90422304B1A70304B1C79D4
:100B0C00002C53D1012204212E4801F0C6FF0220F3
:100B1C0008F0B9FE2246042194E72F49254809F034
:100B2C0079F9254B1B7813B90522244B1A70244BE9
:100B3C005C79002C3AD101220521224801F0ADFF4D
:100B4C00022008F0A0FE224605217BE72349194824
:100B5C0009F060F9184B1B7813B90622174B1A7061
:100B6C00174B9C7914BB01220621164801F095FF06
:100B7C00022008F088FE2246062163E718490D483A
:100B8C0009F048F90C4B1B7813B907220B4B1A7060
:100B9C000B4BDC7954B9012207210A4801F07DFF87
:100BAC00022008F070FE224607214BE710BD00BF63
:100BBC000FBC0008E00A00208D040020E803002090
:100BCC0084040020E804002027BC00083FBC000877
:100BDC0057BC00086FBC000887BC00089FBC00080D
:100BEC00B7BC00080346084611461AB1012B01D1C7
:100BFC00FFF7FCBE704700002DE9F04100241A4DB0
:100C0C001A4E1B4FDFF8748015F8013BE1B24BB95B
:100C1C003B7806EB0412D25C4046003A18BF012226
:100C2C0001F03BFF01211520013408F0A1FD082C37
:100C3C00EAD1012008F027FE00240E4D0E4E0F4F76
:100C4C002B7833B1337823B100222146384601F09A
:100C5C0024FF0134E4B2082CF2D1BDE8F0410021AC
:100C6C00152008F085BD00BF84040020240000205E
:100C7C00E90300208D0400208E040020E8040020ED
:100C8C00F8B500240F4D104E104F2B68C4F10F0215
:100C9C001341DB07E1B20ED50D4BC1F10F021A70F7
:100CAC003846012201F0F9FE022008F0ECFD013477
:100CBC00082CEAD1F8BD3278002AF8D1384601F078
:100CCC00ECFEF4E7E40300208D040020E80400208F
:100CDC00E004002000220A4B30B503EB0111012483
:100CEC00102315460F2B02F10102D2BF0D70103BE1
:100CFC000C70102A034401F10101F3D130BD00BF87
:100D0C00240000202DE9F8430446002806460F462F
:100D1C00B8BFC61D0021142008F02AFD0120634233
:100D2C0003F0070304F0070458BF5C4200FA04F414
:100D3C00E4B26FEA04080025DFF84090F6105FFA81
:100D4C0088F8D9F80030AE4203EB050203D15B5DA5
:100D5C0087B12343137013781E2101221F2008F042
:100D6C0069FD2DB12946BDE8F843142008F000BDFB
:100D7C000125E6E708EA0303ECE700BFEC060020D8
:100D8C00F8B5114F08243E46104D2B78A4F10800FD
:100D9C0007EB0313195D0134003918BF0121FFF76C
:100DAC00B1FF102CF1D100242B7804F1080006EBD4
:100DBC000313195D0134003918BF0121FFF7A2FF9D
:100DCC00082CF1D1F8BD00BF24000020E80300205E
:100DDC002DE9F0472849294809F01CF80024284F30
:100DEC00264DDFF8B480E6B23146384601F02AFDD4
:100DFC000A220146284609F06CF84146284608F0BC
:100E0C00E5FFF30603D128461E4909F003F8013427
:100E1C00FF2CE8D11C49194808F0FCFF1B49174866
:100E2C0008F0F8FF08241A4E144FDFF86C90DFF826
:100E3C005480B2460F251AF8011B0A22003918BF3C
:100E4C000121384609F02EF8013D4946384608F094
:100E5C00BDFF15F0FF05EED141463846013C08F0C8
:100E6C00D9FF14F0FF0406F11006E2D1BDE8F047FB
:100E7C000849024808F0CEBFCFBC0008E00A0020A9
:100E8C00E804002019D90008E3BC0008F3BC0008F2
:100E9C0024000020FFBC0008E1BC000870B504462B
:100EAC00144D154EC0F30011284601F072FEC4F328
:100EBC004011284601F05CFE3178C4F3C0030022D7
:100ECC00284601F0E6FC3178C4F3400301222846A1
:100EDC0001F0DFFC317804F001030022284601F018
:100EEC00F1FC28463178C4F380030122BDE8704040
:100EFC0001F0E8BCE8040020E803002070B5094DBF
:100F0C00094C2978C0F3810600F003030022204627
:100F1C0001F061FE3346204629780122BDE870407D
:100F2C0001F059BEE8030020E80400206D4B73B5B6
:100F3C001B5C05460E461446002B40F0D0806A49D7
:100F4C006A4808F043FF691C0A22684808F0AAFFA7
:100F5C006749664808F03AFF0F2E00F2C080DFE8C0
:100F6C0006F008151D252D353C5C7D858D959DA5C0
:100F7C00AAAF294600225F48E3B201F0ECFC5E49BF
:100F8C005A4808F023FF0A22214639E0294600225C
:100F9C005848E3B201F0F7FC5849F1E72946002222
:100FAC005448E3B201F007FD5549E9E72946002210
:100FBC005048E3B201F017FD5249E1E729460022FF
:100FCC004C48E3B201F097FC4F49D9E72946494810
:100FDC00E2B201F0AFFD4D49D2E74D4B4D481978C7
:100FEC004D4B1B6893B9C4F387024255414801F03D
:100FFC0036FDA61049493D4808F0E8FE0A22314664
:10100C003A4802B0BDE8704008F04EBF425CE3B213
:10101C00384801F060FD4249B2E73F4B1B68DB07E3
:10102C000BD5404B1B7843B93F4D40492F482C60A2
:10103C0008F0CCFE0A222968E2E700263F23F022C2
:10104C0014212046009609F066F82946C3B20446DE
:10105C003246284801F067FC354991E729460122C0
:10106C002448E3B201F077FC324989E72946012292
:10107C002048E3B201F087FC2F4981E72946012281
:10108C001C48E3B201F097FC2C4979E72946012270
:10109C001848E3B201F0A7FC294971E7294601225F
:1010AC001448E3B201F027FC264969E7E0B2FFF7E8
:1010BC0025FF254964E7E0B2FFF7F0FE23495FE71F
:1010CC00E6B23346002229460A4801F02CFC294698
:1010DC0033460122074801F026FC1D4950E702B0B7
:1010EC0070BD00BF7A0400206BBE0008E00A00202F
:1010FC0010BD0008E80400201EBD00082BBD000830
:10110C0037BD000845BD000853BD000864BD00088C
:10111C00E803002016000020E403002070BD000846
:10112C007BBD0008140000200000002084BD0008D6
:10113C008CBD000899BD0008A6BD0008B2BD000812
:10114C00C1BD0008D0BD0008E2BD0008F7BD000815
:10115C0010BE0008044A431A002B1268B8BF5B4249
:10116C009342D8BF084670472000002010B50446B3
:10117C0000F001011C2008F0FBFA1D20C4F3400113
:10118C0008F0F6FA1E20C4F3800108F0F1FA1F20D3
:10119C00C4F3C00108F0ECFA094A0A4B11680A4A78
:1011AC005868B1FBF2F21E2151435A68121A91424F
:1011BC00FBDC132008F00CFBB0FA80F0400910BDEA
:1011CC00C4000020001000E040420F0010B504469F
:1011DC0000F001011C2008F0CBFA1D20C4F34001E3
:1011EC0008F0C6FA1E20C4F3800108F0C1FA1F20D3
:1011FC00C4F3C00108F0BCFA084A094B1168094A4B
:10120C005868B1FBF2F21E2151435A68121A9142EE
:10121C00FBDCBDE81040262008F03ABAC4000020E0
:10122C00001000E040420F002DE9F3470E20FFF7BD
:10123C00CDFF1E4B40F6E672186010230021009380
:10124C00032308F068FF0024194B1A4E1A4F1B4D4C
:10125C00DFF86C90DFF86CA0187033685FFA84F8D4
:10126C0040463B60FFF7B2FF56F8041BFFF772FFD6
:10127C0057F8042B46F8040C90420FD06B7840F6CC
:10128C00FF72002100932B7808F045FF414602467F
:10129C0099F80000FFF74AFE8AF800800134102C00
:1012AC0005F10205D9D102B0BDE8F087E8060020AF
:1012BC00A0060020A4060020A00400203BBF0008CC
:1012CC00E80300200004002070B5441CE4B2012C9B
:1012DC0086B026D0022C47D0032C47D0042C47D004
:1012EC00052C47D0062C47D0072C47D0082C47D0CC
:1012FC00244903A808F05EFF0A222146684608F03C
:10130C007CFF694603A808F0A0FF01461E4808F0C0
:10131C0077FD684608F009FF03A808F006FF06B041
:10132C0070BD1A4D1A4903A808F044FF0A22214641
:10133C00684608F062FF694603A808F086FF01467C
:10134C00114808F05DFD684608F0EFFE03A808F0B0
:10135C00ECFE00240F4E2A5DE1B23046013401F060
:10136C0075FAFF2CF7D1DAE70B4DDBE70B4DD9E71C
:10137C000B4DD7E70B4DD5E70B4DD3E70B4DD1E715
:10138C000B4DCFE720BE0008E00A00205BBF000831
:10139C0036BE0008E80400205AC0000859C10008F5
:1013AC0058C2000857C3000856C4000855C50008A9
:1013BC0054C600082DE9F74F4FF00008674BDFF8D3
:1013CC00E4910193664B674D674E00935FFA88F08A
:1013DC00FFF7CCFE019B009A03F8010B019312F866
:1013EC00013B9842009248D002F8010C28B199F8C0
:1013FC00003083F0010389F8003029783368F9B1A3
:10140C005A4A4FF0000C1478594A5A4F02EB041206
:10141C000F24387843FA04FE1EF0010F06D0107822
:10142C008C46B0FA80F0400910702020013CB4F1D9
:10143C00FF3F02F10102EDD1BCF1000F00D038707A
:10144C00DF0636D54C480278002A32D14B4C247832
:10145C007CB32021474B02701970494B49491A70D3
:10146C00494B1A70494B1A7001232B70484B1A7058
:10147C00484B1A703D4B1B78CA5408F10108B8F15F
:10148C00100F09F10109A1D100240126364D2C6061
:10149C00E0B2FFF76BFE2A6806FA04F3002800F0AE
:1014AC00508113430134102C2B60F1D103B0BDE8F3
:1014BC00F08F0029E1D113F0010F03F0020C03F0BF
:1014CC00040771D0BCF1000F19D11FBB31680C0798
:1014DC002FD4880609D501222A4B1A705A709A709B
:1014EC00DA701A715A719A71DA7101F014011429B7
:1014FC00C3D1294A137883F001031370BDE701228D
:10150C00264B1A705A709A70DA701A715A719A7155
:10151C00DA71DAE71F4A082013780133DBB2022BA9
:10152C0088BF0023137008F0E1FD1D4B01301870CB
:10153C00CCE70022174B10461A7008230C4C274698
:10154C001022013A12F0FF0207F8010BF9D1013B0E
:10155C0013F0FF0304F11004F1D1BAE7EA03002001
:10156C008F04002078040020E4030020E80300200E
:10157C002400002074040020150000208D0400209D
:10158C00830400207A0400208C04002076040020C0
:10159C0079040020140000208E0400208404002014
:1015AC007504002004000020674C6848684ABCF1B0
:1015BC00000F0CD094F800E001708EF0010E84F84E
:1015CC0000E0DFF890E1117029708EF800104FB137
:1015DC0000210778217087F0010707705D4F1170AB
:1015EC0029703970190709D500211778217087F0F7
:1015FC0001071770574F0170297039709F0609D574
:10160C000021117021700170297052490A7882F002
:10161C0001020A70590641BF4F490A7882F0010253
:10162C000A701A0641BF4D4A137883F001031370F8
:10163C00BCF1000F01D0FFF7CBFB0724DFF840B162
:10164C00DFF820A10123C4F10F073268BB4043F03F
:10165C004003934302D1E0B2FFF736FE3D4B1B78BB
:10166C004BB133683B41DB0742BF9AF8073083F03C
:10167C0001038AF80730344B1B784BB133683B417C
:10168C00D80742BF9BF8073083F001038BF8073073
:10169C002E4B1B7823B3324B324A1B78D35CFBB9ED
:1016AC0033683B41D9071BD52F4B1878411C0338A5
:1016BC0008F027FD2146FFF70DFB2C492C4808F0BC
:1016CC0085FB0A22611C2A4808F0ECFB29492848B2
:1016DC0008F07CFB244B0A221978254808F0FBFB08
:1016EC001B4B1B78E3B900221D4B95F800C01978F1
:1016FC001346214810F8017927B1BCF1000F01D134
:10170C003A46D9B20133082BF4D10AB1144B1970F3
:10171C00013C631C0BF1FF3B0AF1FF3A92D1ACE6A2
:10172C00336843FA07F7FA07DDD510230021134A73
:10173C0002EB0412013B13F0FF0302F8011BF9D179
:10174C00D1E722EA0303ADE6830400208C040020D9
:10175C007604002079040020150000208D04002060
:10176C00E80300207A040020A00600204CBE0008EC
:10177C00E00A002074BE0008F903002024000020B9
:10178C008404002070B510240A4D05EB001564206C
:10179C0015F8016B08F0AAFC1E28C8BFB6FA86F330
:1017AC0004F1FF34C4BF5B0905F8013C14F0FF04DD
:1017BC00EDD170BD24000020404B73B51B78404A1E
:1017CC00D3B1404B1978404B11B1197801311970D4
:1017DC001978072984BF0021197013780133DBB203
:1017EC00102B0CD01370394A1378013BDBB21370F9
:1017FC001BB937490B700123137002B070BD002167
:10180C00344C11702278012A0ED1334B1A780132E4
:10181C00D2B2072A94BF1A70197018782F4B1B5C20
:10182C00002BE0D1FFF7AEFF2378022BDBD12A4C43
:10183C002A4A23780133DBB2072B88BF002323709D
:10184C002378D65C002ECED12549264808F0BEFA66
:10185C0021780A22244D0131224808F023FB234928
:10186C00204808F0B3FA0A2229781E4808F033FB06
:10187C002878411C033808F044FC2178FFF72AFA39
:10188C000F2008F033FCC5B200F0F700042808BFA5
:10189C000B253C21304608F034FC154B314603EB4C
:1018AC004502527813F815300092642208F033FC8C
:1018BC00294602462078FFF739FB94E78D04002077
:1018CC00E903002015000020E80300207404002028
:1018DC007804002014000020750400207A040020F5
:1018EC004CBE0008E00A0020A006002074BE0008D0
:1018FC003BBF00082DE9FF47784C204601F007FB61
:10190C000221204602F00FFC754B0A222361754B15
:10191C0020461978013108F0C7FA0121204602F05F
:10192C0002FC00232361704B1B78002B00F0C48059
:10193C0020466E4908F041FA6D4E3378002B00F0CA
:10194C00C2806C49654808F051FA4FF4202323619A
:10195C00694B1B78002B00F0B88068495F4808F091
:10196C0045FA4FF4A0132361654B1B781BB16549F5
:10197C005A4808F03BFA644B1B781BB16349574833
:10198C0008F034FA624B1B781BB16249534808F0DB
:10199C002DFA36232361604B1B78002B00F09780C7
:1019AC005E494E4808F022FA03230122CDE90132A8
:1019BC002022802300214948009202F0ECF81425E3
:1019CC004FF02208564FDFF8A891DFF810A117F856
:1019DC00013B33B1494650462582A4F8128008F0E9
:1019EC0005FA0C35ADB2742DF1D114254FF02B083E
:1019FC004C4FDFF88091DFF8E4A017F8013B33B1CE
:101A0C00494650462582A4F8128008F0EFF90C35AF
:101A1C00ADB2742DF1D1444F3A782AB15A234349CF
:101A2C002E48236108F0E2F9414B424D23612B789B
:101A3C0043B14149294808F0C0F90A2229782748BE
:101A4C0008F049FA3B7813B92B78022B0BD13B4B9E
:101A5C003B492361214808F0B0F93A4B0A22197826
:101A6C001E4808F038FA384B384923611B4808F0F7
:101A7C00BDF93378D3B10024354D364E174F33783A
:101A8C0005EB0412D35C73B10123CDE901330B23B5
:101A9C0004EB440189001231009333220A233846A7
:101AAC0009B202F078F80134082CE8D10B4804B0E4
:101ABC00BDE8F04701F07ABD274B0A222046196891
:101ACC0008F0F0F938E725493CE7254946E7254B6E
:101ADC001B780BB1244964E7244962E70404002015
:101AEC003C000C00E80300208204002022BC00080B
:101AFC008D0400208CBE00088E0400208FBE0008D0
:101B0C00790400209ABE0008830400209FBE0008C0
:101B1C0076040020A4BE000878040020AABE0008A9
:101B2C00840400207A0400208C040020BDBE000830
:101B3C005A000A0014000020C1BE00085A0014000C
:101B4C00C6BE0008A006002014003500CBBE00085D
:101B5C0024000020E90300200000002097BE0008AC
:101B6C0094BE000815000020AFBE0008B4BE0008EB
:101B7C00B9BE0008BBBE000808B50F4B1B7853B9A3
:101B8C000E4B1B783BB90E4B1B7823B90D4B1B78B6
:101B9C000BB9FFF775F80C4B1B780BB1FFF72CF852
:101BAC00FFF70AFEFFF706FCFFF73EFBFFF7E8F82E
:101BBC00BDE80840FFF79EBE7604002079040020A3
:101BCC00830400208C0400208D04002038B5094DBE
:101BDC002A786AB1084C23780BB9FFF7CDFF23782C
:101BEC005A1C042B227003D92B780BB100232370C1
:101BFC0038BD00BF82040020E4060020036810B545
:101C0C0004460BB17430984794F87530DF2B0AD822
:101C1C00B02B7BD04ED8902B66D0A02B00F08C80B4
:101C2C00802B55D010BDE03B1F2BFBD801A252F8E6
:101C3C0023F000BF1D1D0008311C0008311C0008DA
:101C4C00311C0008311C0008311C0008311C000834
:101C5C00311C0008311C0008311C0008311C000824
:101C6C00311C0008311C0008311C0008311C000814
:101C7C00311C00084D1D0008691D00087B1D000863
:101C8C009D1D0008311C0008311C0008A11D000816
:101C9C00311C0008F91C0008091D0008051D00086E
:101CAC000D1D0008111D0008311C0008151D000831
:101CBC00A51D0008C02B41D0D02BB3D1E369002B5C
:101CCC00B0D094F8761094F87400BDE81040184722
:101CDC00A368002BA6D094F8772094F8761094F88B
:101CEC007400BDE810401847E368F2E7A36B002BC3
:101CFC0098D0BDE810401847E36BF8E7236CF6E783
:101D0C00636CF4E7A36CF2E7E36CF0E76369E0E77C
:101D1C00226A002A86D094F8771094F87630C9019C
:101D2C0001F47E5103F07F03194394F87400A1F57C
:101D3C000051BDE8104010472369CAE7A369BEE70C
:101D4C00636A002B3FF46EAFB4F8761004F17800A0
:101D5C00802928BF8021BDE810401847A36A002BBA
:101D6C003FF460AF94F87600BDE810401847E26A83
:101D7C00002A3FF457AF94F8773094F87600DB01E3
:101D8C0003F47E5300F07F001843BDE81040104769
:101D9C00236BE4E7636BAAE7236DA8E700F0CF029F
:101DAC00802A00F0EF0305D0E02803D0C03B584256
:101DBC00584170470120704703060BD500F10C0306
:101DCC00DBB2012B06D9FD2804D0EF2803D800F094
:101DDC00F000704700207047F8B5E02905460C4626
:101DEC0017461E469DF818001ED8411EC9B20F2971
:101DFC0022D860B200281FDA6B6D0143C9B2186893
:101E0C00FEF7E0FD6B6D07F07F01186804F0EF043E
:101E1C00FEF7D8FDC02C0FD06B6D06F07F01186853
:101E2C00BDE8F840FEF7CEBDF72905D905F1540001
:101E3C00BDE8F840FEF7C9BDF8BD000073B590F8D9
:101E4C007030044613F001020D4621D013F0FE0F42
:101E5C001ED090F8751081F0800060281DD894F881
:101E6C0074005B08A8421CBFB5FA85F25209022B1C
:101E7C000CD0032B0ED0012B0AD1009094F87730A4
:101E8C00204694F87620FFF7A7FF01E0002AF4D152
:101E9C0002B070BD002AFBD1EFE7A1F1F0030F2BCC
:101EAC00F6D801A252F823F0031F0008711F000896
:101EBC00471F0008271F00089D1E00089D1E0008D4
:101ECC00F51E00089D1E0008F51E00089D1E00084A
:101EDC00F51E0008F51E0008F51E00089D1E0008E2
:101EEC00F51E0008F51E000804F1540002B0BDE810
:101EFC007040FEF76ABDB4F8766004F17705802E69
:101F0C0094BFAE1905F18006B542C1D0636D15F8CA
:101F1C00011F1868FEF756FDF6E7636DF32194F880
:101F2C0076501868FEF74EFD636D05F07F0118685A
:101F3C0002B0BDE87040FEF745BD94F8773094F8D8
:101F4C007650F22145EAC315636D1868FEF73AFD29
:101F5C00636D05F07F011868FEF734FD636DC5F302
:101F6C00C611E4E794F8765094F877302D0103F01D
:101F7C000F0305F070051D43636DF1211868FEF722
:101F8C0021FD2946636DD2E72DE9F041B14C94F85F
:101F9C005860102E4DD8636D186803689B6898477D
:101FAC00002846D094F80D3123F0010384F80D314C
:101FBC00636D18680368DB689847C5B2FD2D07464A
:101FCC0037D0636E002B40F0058194F8598084F86B
:101FDC005B504046FFF7F0FEFFF7E0FE38B13806E5
:101FEC005FBF012384F85B8084F85C50636694F8CF
:101FFC005B502846FFF7E0FEDF2854D8B02800F0ED
:10200C00DF8000F29780A02800F0DA8000F0EF0368
:10201C00802B00F0D58094F90D01636840F001002D
:10202C0084F80D0103B198470023C4E9183384F8F0
:10203C005930894B1B7823B9884B1B780BB9FEF7A9
:10204C001FFE874B1A7862B19B7953B1834B1B7877
:10205C003BB9844A0320137883F00103137007F013
:10206C0012FC43F69824804B804D1B6894FBF3F4D0
:10207C002B68013C1C4407F004FC84427C4C80F22D
:10208C00678107F0FEFB286007F0FBFB794B1860BB
:10209C0001232370734B1B78002B40F06681BDE845
:1020AC00F041FFF769BDA0F1E0031F2BB3D801A2EB
:1020BC0052F823F0CD21000823200008232000082B
:1020CC0023200008232000082320000823200008D8
:1020DC0023200008232000082320000823200008C8
:1020EC0023200008232000082320000823200008B8
:1020FC0023200008D12100084B210008CD21000825
:10210C004B2100082320000823200008A7210008E9
:10211C00D1210008A7210008A7210008A721000849
:10212C00A7210008A721000823200008A7210008E8
:10213C00A721000800F0EF03C02B7FF46CAF022343
:10214C002366D4E91823013A9342C0F0FF8094F837
:10215C005C30012284F87630002305F00F05C4E9C9
:10216C001833013584F8750084F8745084F877308E
:10217C00C4F8FC2084F8F82094F87530902B18D112
:10218C0094F8773013B9802384F8753094F8743050
:10219C00B34257D0002E55D057E000230122C4E99A
:1021AC00183384F8750084F87430A4F8763084F809
:1021BC00F82094F8753083F08003602BE6D941E069
:1021CC000323BDE780232366002384F8780084F87A
:1021DC005930B6E701064FD5A5F1F0020F2A4BD8BE
:1021EC00DFE802F0154A4A4A4A4A4A150808080824
:1021FC00084A08080023A4F8763084F874300123C8
:10220C0084F87550C4F8FC3084F8F830B4E794F8CE
:10221C007820F02A02D0F72A7FF4FDAE5A1C234412
:10222C0083F878504FF47043A4F87430012384F889
:10223C00F8300023C4E91833A4F87620C4F8FC2045
:10224C0084F859300348FFF7D9FC31460148FFF7B1
:10225C00F5FDEEE6D4020020780400208D04002069
:10226C00EA0300208204002000000020E404002087
:10227C0077040020FC03002094F85B20F02A01D0A6
:10228C00F72A26D1E21882F87850D4F8608008F149
:10229C00FF3293425AD394F85B70F02F01D0F72F92
:1022AC001BD1F02394F8F75084F8F730304B3148B9
:1022BC0063678023C4F8FC30012384F8F830FFF7FF
:1022CC009DFCF72384F87830022384F879506366F8
:1022DC00AFE6E21882F85B50D7E73846FFF76CFDA3
:1022EC00054684F87500FFF759FD10B107F00F0093
:1022FC00013094F85C30B8F1030F84F876304FF06D
:10230C00000318BF1A46C4E918334FF0010308BF85
:10231C0094F85D20B02D84F8740084F8772084F84C
:10232C00F83006D008D8A02D03D005F0EF05802D8D
:10233C0008D184F859701FE7E02DFAD005F0EF05AD
:10234C00C02DF5E7002384F8593015E70133BEE7BB
:10235C00237853B1084B1D6807F093FA1435854266
:10236C0003D8064B1B7803B92370BDE8F08100BF7E
:10237C0000F08000D4020020FC0300208204002026
:10238C0030B5244B244A85B0CDE901320423002515
:10239C004022802100932148214B00F0ADFC2148C4
:1023AC0000F038F9204C214B214AC4E914531A602F
:1023BC004FF6FF73C4E91A3303238022294604F134
:1023CC007800C4E90055C4E90255C4E90455C4E9D0
:1023DC000655C4E90855C4E90A55C4E90C55C4E9C5
:1023EC000E55C4E91055C4E91255C4E91855A4F8A2
:1023FC00585084F85A5084F87030656784F8F85057
:10240C0009F00CFAC4E94055C4F80851A4F80C5171
:10241C0005B030BD801A0600A0860100040400201F
:10242C008C070020E8040020D4020020F0060020D5
:10243C00D0090020014800F08DBC00BF040400202E
:10244C0073B55E4C0622636D012547F612211868A0
:10245C0007F00EFB00264FF6FF73A4F85850C4E9A2
:10246C001A33C4E9186684F85A6007F00AFA032391
:10247C0084F87030524B4FF4E131E363514BC4F8A4
:10248C000001A364504B5148E360514B6667A36352
:10249C0084F8F860C4F8FC6007F018FE0A2007F016
:1024AC00F2F94C4800F0A8F90A2007F0ECF929469B
:1024BC00484800F07FFB642007F0E5F90C2007F09A
:1024CC00D3F829461C2007F0F9F829461D2007F0FF
:1024DC00F5F829461E2007F0F1F829461F2007F0D1
:1024EC00EDF82946152007F0E9F80221132007F032
:1024FC00E5F82946142007F0E1F80421262007F01E
:10250C00DDF831461B2007F0D9F8022007F0BEFE9B
:10251C00314C324B0670186046702B463C2202211F
:10252C002046009500F002FD20B92D49274807F000
:10253C005DFCFEE7204600F0EAFC2946204601F04F
:10254C00F2FD4FF0011363613323324620460093B2
:10255C0025213B23019501F0BBF9224B2046236139
:10256C00214907F043FC214B20462361204907F009
:10257C003DFC204B204623611F4907F037FC1F4BC5
:10258C00204623611E4907F031FC1E4B2046236177
:10259C001D4907F02BFC1D4B1D492361204607F0FC
:1025AC0025FC204601F002F840F6B83007F06BF934
:1025BC00042002B0BDE87040FEF786BED4020020B5
:1025CC005D09000899090008F10B0008E00A0020D9
:1025DC00D91B0008E804002004040020EC060020AD
:1025EC00DBBE000828000200F5BE000828000C0025
:1025FC00FFBE00082800160009BF000828002000B4
:10260C0013BF000828002A001DBF0008080038006E
:10261C0027BF000841F61813F0B503801A230446AF
:10262C00334D061D83700FCD0FC695E80F0005F1D5
:10263C00100786E80F000FCF04F124060FC60FCF4A
:10264C000FC697E80F0005F1400786E80F000FCF83
:10265C0004F154060FC697E80F0086E80F0005F149
:10266C00600304F174027035164618685968083313
:10267C0003C6AB423246F7D11B8833801D4B1A6818
:10268C00C4F886205A68C4F88A201A89A4F88E20C7
:10269C001A4652F80A0F9288C4F89000A4F89420B5
:1026AC001A4652F8101F1279C4F8961084F89A2022
:1026BC001A4653F81A0F52F8151F9B881279A4F872
:1026CC00A4304FF4807384F89F20A4F8A6310A4AF2
:1026DC000A4BC4F8A000C4E96A230023C4F8B03143
:1026EC004FF07E532046C4F89B10C4F8B431F0BDB3
:1026FC0058BB0008DABB000808070B050000FF03F5
:10270C00F8B50D46044600214078174607F030F81E
:10271C002A46012325212548254D01F0D9FD00210C
:10272C00A07807F025F82B68224A234EB3FBF2F26F
:10273C00716873685B1A9A42FBDC0121A07807F080
:10274C0017F82B681B4A7168B3FBF2F31A4E9B0007
:10275C007268521A9342FBDC0121607807F008F88A
:10276C0001233A462521114801F0B2FD0021A07841
:10277C0006F0FEFF2B680F4A7168B3FBF2F20E4EA7
:10278C0073685B1A9A42FBDC0121A07806F0F0FF1B
:10279C002A68084B7168B2FBF3F317225A430648B8
:1027AC0043685B1A9A42FBDCF8BD00BFF4060020BC
:1027BC00C400002040420F00001000E0F8B50546B0
:1027CC002E4600240021007806F0D2FF012007F0ED
:1027DC005AF8012116F8A60B06F0CAFF2746E1B2FB
:1027EC000022284606F8017B0134FFF789FFB4F577
:1027FC00807FF4D1F8BD000010B5044625211048A7
:10280C0001F0E6FCA078012106F058FF6078012168
:10281C0006F054FF2078012106F050FFA07801212A
:10282C0006F0A6FF2078012106F0A2FF60780021B7
:10283C0006F09EFF2046BDE81040FFF7BFBF00BF6B
:10284C00F4060020084490F8A600704710B50C461A
:10285C00431883F8A620FFF753FF204610BD10B590
:10286C0090F8A73190F8A6419A4228BF1A4690F8E2
:10287C00A831A24238BF22468B4228BF0B4602EB3E
:10288C00C2021044A3422CBFC118011991F8740064
:10289C0010BD70B505461E46FFF7E1FF00F12004A0
:1028AC00E4B2291991F8A6204EB142F080022846D4
:1028BC0081F8A6202146FFF723FF204670BD02F0C9
:1028CC007F02F4E770B505461E46FFF7C8FF00F11E
:1028DC002004E4B2291991F8A6204EB142F040022E
:1028EC00284681F8A6202146FFF70AFF204670BD36
:1028FC0002F0BF02F4E770B506461D46FFF7AFFFC6
:10290C0000F12004E4B2331993F8A62005F00F056A
:10291C0022F00F022A433046214683F8A620FFF707
:10292C00EFFE204670BD70B506461D46FFF797FFBB
:10293C0000F14004E4B2331993F8A62005F03F05EA
:10294C0022F03F022A433046214683F8A620FFF7A7
:10295C00D7FE204670BD70B505461E46FFF77FFFBB
:10296C0000F16004E4B22B1993F8A620284602F07B
:10297C000F0242EA0612D2B2214683F8A620FFF7D4
:10298C00BFFE204670BD70B506461D46FFF767FFBB
:10299C0000F16004E4B2331993F8A62005F00F059A
:1029AC0022F00F022A433046214683F8A620FFF777
:1029BC00A7FE204670BD70B505461E46FFF74FFFBB
:1029CC00A0F18004E4B22B1993F8A620284602F05B
:1029DC000F0242EA0612D2B2214683F8A620FFF774
:1029EC008FFE204670BD70B506461D46FFF737FFBB
:1029FC00A0F18004E4B2331993F8A62005F00F057A
:102A0C0022F00F022A433046214683F8A620FFF716
:102A1C0077FE204670BDF8B590F8A84105468C426B
:102A2C0028BF0C4690F8A61116468C4238BF0C46AF
:102A3C00A4F16007FFB23946D2B2FFF707FFEB19DA
:102A4C0093F8B620C6F30126A4F1500122F003023C
:102A5C0028463243C9B2FFF7F9FE3846F8BD10B527
:102A6C0090F8A84103468C4228BF0C4690F8A6115A
:102A7C0092008C4238BF0C46503CE4B2234493F88D
:102A8C00A61002F01C0221F01C010A4383F8A620B8
:102A9C002146FFF735FE204610BD10B590F8A84131
:102AAC0003468C4228BF0C4690F8A6118C4238BFC6
:102ABC000C46503CE4B2234493F8A61042B141F0CA
:102ACC002002214683F8A620FFF71AFE204610BDEF
:102ADC0001F0DF02F5E7F8B50446174600220D4673
:102AEC001E46FFF7DAFF94F8A92194F8A631BA42F2
:102AFC0028BF3A469A4238BF1A4629462046FFF765
:102B0C00AEFF94F8AA3194F8A621B34228BF3346FD
:102B1C00934238BF134604EB83032946B3F92420B0
:102B2C002046FFF778FF29462046BDE8F8400122F1
:102B3C00FFF7B3BF10B590F8A84103468C4228BFED
:102B4C000C4690F8A61152008C4238BF0C46403C03
:102B5C00E4B2234493F8A61002F00E0201F0010136
:102B6C000A4383F8A6202146FFF7CAFD204610BD74
:102B7C0008B5034690F8632141B142F08002BD21B3
:102B8C0083F86321FFF7BCFDBD2008BD02F07F0276
:102B9C00F5E708B5034690F8632141B142F04002D5
:102BAC00BD2183F86321FFF7ABFDBD2008BD02F00A
:102BBC00BF02F5E708B5034690F8632141B142F036
:102BCC002002BD2183F86321FFF79AFDBD2008BDCB
:102BDC0002F0DF02F5E770B506461D46FFF73FFE33
:102BEC00A0F12004E4B2331993F8A62005F00305F4
:102BFC0022F003022A433046214683F8A620FFF731
:102C0C007FFD204670BD002910B550DBB0F90C409B
:102C1C008C424CDD002A4ADBB0F90E40944246DD72
:102C2C00847E022C22D0032C29D0012C04D1D24337
:102C3C00048914440A4621B2012B26D0022B37D02A
:102C4C00002B34D11346002AB0F90840B8BFD31D6D
:102C5C0043F3CF0304FB03110123C06A02F0070204
:102C6C009340425C22EA0302425420E0C943D2431F
:102C7C0004892144448909B2224412B2DCE7C943D5
:102C8C0044890C44114622B2D6E71346002AB0F907
:102C9C000840B8BFD31D43F3CF0304FB0311C36A31
:102CAC0002F0070001228240585C02435A5410BDC6
:102CBC001346002AB0F90840B8BFD31D43F3CF0325
:102CCC0004FB03110123C06A02F0070203FA02F2AB
:102CDC00435C5A40C8E710B586B003AC84E80E00DC
:102CEC00059B2521009394E80C0001F099FA06B09D
:102CFC0010BD252101F0CCBA38B504461D4600F0B4
:102D0C0077FE114B114A236000239D4208BF1546E4
:102D1C006362C4E90A534FF6FF73FF22A386A4F83B
:102D2C0064300B4B84F83320A366012384F83620DF
:102D3C009DF91020204684F83720059AA4F86C30B1
:102D4C00A265069AE26538BDFCCB00088C07002012
:102D5C0000093D0010B50446C06A08B108F048FDF2
:102D6C00204610BD2DE9F0410446806A0D4690B115
:102D7C0094F9301001F061FDA06A002103681B6812
:102D8C009847A06A294603681B689847A06ABDE863
:102D9C00F04101F0C7BD226C216D1368606A23EA13
:102DAC000103136030B12A46BDE8F041012325210F
:102DBC0001F08EBA0821D4E90E2380201668A76C86
:102DCC00054214BF3E43BE4316601E68E76C0139D2
:102DDC0046EA07061E601E68E76C4FEA500026EABA
:102DEC0007061E60EAD1BDE8F08138B50446806A5A
:102DFC000D4680B1A16D01F01DFD002D204614BFC4
:102E0C00A721A621FFF7AEFFA06A90B1E16DBDE846
:102E1C00384001F00FBD606A20B104F164030ECBA1
:102E2C00FFF759FF626C616D136823EA01031360AD
:102E3C00E3E7626C616D1368606A0B43136008B161
:102E4C00FFF757FF38BD2DE9F0410446806A0D4667
:102E5C008F1840B394F9301001F0EFFCA06A0021F8
:102E6C00036801261B689847BD42A06A17D01F2E25
:102E7C000CD901F057FD94F93010A06A01F0DDFC7B
:102E8C00A06A0021036801261B689847A06A15F800
:102E9C00011B036801361B689847B6B2E4E7BDE82E
:102EAC00F04101F03FBD226C216D136823EA010350
:102EBC001360BD4229D0606A15F8012B20B10123A3
:102ECC00252101F005FAF4E74FF00808D4E90E13B8
:102EDC004FF0800CD1F800E0A06C12EA0C0F14BF7C
:102EEC0040EA0E002EEA000008601868E66CB8F1A3
:102EFC00010840EA060018601868E66C4FEA5C0CA2
:102F0C0020EA06001860E5D1D3E7BDE8F081B0F9FE
:102F1C000A300021DA1D48BF03F10E02B0F9083067
:102F2C00D2105A43C06A08F079BC00002DE9FF4169
:102F3C001E46C36A04460F4615469DF82880B3B159
:102F4C002046FFF7E4FFB4F90A00B4F90810202872
:102F5C001FDC20230122CDE9013273232038733981
:102F6C00009300EBD070A64B01EBD1711FE0B0F9D0
:102F7C000A30D81D48BF03F10E00B4F90830C01058
:102F8C00584308F02DFCE0620028D9D104B0BDE80C
:102F9C00F08140234FF0010CCDE9013C5223403825
:102FAC0052390093974B00EBD07001EBD17140F389
:102FBC004F0241F34F01204600F086FE84F8317039
:102FCC00A76A002F00F09880002D40F09380B4F990
:102FDC000A30202B0CBF3C253D2584F83050B8F12D
:102FEC00000F03D00021384601F020FCDEB194F92B
:102FFC003700002817DB012106F060FB012194F952
:10300C00370006F0B5FB012006F03DFC002194F9D9
:10301C00370006F0ADFB0A2006F035FC012194F9CF
:10302C00370006F0A5FBA06A002800F07781A16D9F
:10303C0001F000FC042220467349FFF704FFA17A3B
:10304C0020460139C9B2FFF78DFE70490422204693
:10305C00FFF7F9FE94F931302046012B0CBF1021FB
:10306C001421FFF77FFE042220466949FFF7EBFE8F
:10307C008F23684A84F86030A368934200F067811C
:10308C0002F50012934240F0578194F93130122529
:10309C00012B0CBF9F23CF2384F86030DA2120460C
:1030AC00FFF760FE29462046FFF75CFE8121204693
:1030BC00FFF758FE204694F86010FFF753FED92115
:1030CC002046FFF74FFE94F931302046012B0CBF00
:1030DC002221F121FFF746FE204606224E49FFF73A
:1030EC00B2FEA06A002800F03481E16D01F0A2FB71
:1030FC0001204BE76DB270E7012194F9350006F021
:10310C00DDFA012194F9360006F0D8FA94F935303D
:10311C00242B3FD8414A32F91320C2F30312042A5C
:10312C0044D83F4951F822200C32242B22643FD83A
:10313C003A4A32F8133003F00F020123934023650F
:10314C0094F93630242B41D8344A32F91320C2F387
:10315C000312042A9CBF324951F8227007F10C0269
:10316C00242B62643ED82D4A32F8133003F00F0240
:10317C00012393406365FA68656A1343FB60002D75
:10318C0052D0B8F1000F3FF431AF2521284601F0A1
:10319C001FF82BE7A3F12602D1B2092906D8214941
:1031AC0051F822101D4A32F91120B6E73A46BBE716
:1031BC00263BDAB2092A06D81A4A52F82320174BB2
:1031CC0033F81230B7E74FF40043B8E7A3F1260207
:1031DC00D1B20929C2D8134951F822100F4A32F939
:1031EC001120B4E7263BDAB2092A06D80D4A52F868
:1031FC0023200A4B33F81230B8E74FF40043B9E7F9
:10320C0013CA000853C7000854CC000858CC000857
:10321C005CCC00088000200060CC000834D700088B
:10322C00B00000200CD70008012194F9330006F0FF
:10323C0045FA012194F9340006F040FA94F9333040
:10324C00242B35D8494A32F91320C2F30312042A2D
:10325C003AD8474951F822200C32242BA26335D896
:10326C00424A32F8133003F00F0201239340A36457
:10327C0094F93430242B37D83C4A32F91320C2F35A
:10328C000312042A9CBF3A4951F8225005F10C0252
:10329C00242BE26334D8354A32F8133003F00F0292
:1032AC0001239340E364EA6822EA0303EB609DE6A2
:1032BC00A3F12602D1B2092906D82E4951F82210C1
:1032CC002A4A32F91120C0E72A46C5E7263BDAB272
:1032DC00092A06D8274A52F82320244B33F81230F7
:1032EC00C1E74FF40043C2E7A3F12602D1B209298A
:1032FC00CCD8204951F822101C4A32F91120BEE7D3
:10330C00263BDAB2092A06D81A4A52F82320174B60
:10331C0033F81230C2E74FF40043C3E7606A20B1C0
:10332C0004F164030ECBFFF7D6FC626C616D13687D
:10333C0023EA010313607DE60F4A934207D194F907
:10334C003130012B0CBF1023AF2384F860300225E1
:10335C00A4E6626C616D1368606A0B43136000280D
:10336C003FF4C6AEFFF7C5FCC2E600BF34D7000879
:10337C00B00000200CD700086000100070B5002AC7
:10338C00BDF810403FDBB0F90A5095423BDD0029F7
:10339C00BEBF5B1800211BB2B0F908605D18B542C6
:1033AC00C4BF731A1BB2002B2DDDD51006FB051103
:1033BC00C06A012C014402F007004FF0010202FA2E
:1033CC0000F2D2B216D0022C0BD0E4B9D2430B448B
:1033DC00D2B2994217D011F8010B104001F8010C30
:1033EC00F7E70B4499420ED011F8010B504001F84D
:1033FC00010CF7E70B44994205D011F8010B10436F
:10340C0001F8010CF7E770BDF0B50029BDF81460A8
:10341C0076DBB0F90850A94272DA002ABEBFD21886
:10342C0013B20022B0F90A40D718A742C4BFA31A9E
:10343C001BB2002B64DDC2F3C40405FB0411C76A84
:10344C0012F00702DBB207EB010424D0C2F1080230
:10345C00D2B2934238BF4FF0FF0C2B4D38BFA2EBCA
:10346C00030EAD5C3CBF4CFA0EFC0CEA0505012EBC
:10347C0007D0022E2ED04EB917F801C02CEA050544
:10348C0003E017F801C045EA0C057D54934237D38D
:10349C00B0F908100C449A1AD2B2072A0ED9022E8F
:1034AC001DD113462178083BC9432170B0F908108F
:1034BC00DBB2072B0C44F5D802F0070202B3134B16
:1034CC00012E9B5C19D0022E1BD0CEB9227822EA99
:1034DC00030314E017F801C085EA0C05D5E7002EAC
:1034EC0014BFFF25002513462570083BB0F90810C2
:1034FC00DBB2072B0C44F7D8DEE72278134323709A
:10350C00F0BD22785340FAE744CC00084CCC0008BC
:10351C0030B41446827EBDF80850022A0DD0032A1E
:10352C0018D0012A11D1E4430289144424B20A466A
:10353C000295214630BCFFF767BFE443428914442F
:10354C00CA18018924B2891A09B22246029530BCE4
:10355C00FFF714BFCA184189891A09B2E7E730B4DA
:10356C001446827EBDF80850022A0DD0032A18D0CA
:10357C00012A11D1E2180489A41A24B20A46029530
:10358C00214630BCFFF7FABEC94302891144E21848
:10359C00448909B2A41A24B22246029530BCFFF722
:1035AC0033BFC9434289114409B2E7E72DE9F04121
:1035BC000446806A002841D0A16D01F03BF9052238
:1035CC0020464A49FFF73FFC217A20460139C9B20F
:1035DC00FFF7C8FBD4E90A06B4F90A30DD1D48BF71
:1035EC0003F10E052389ED105D43ADB2354400287F
:1035FC003CD094F9301001F020F9A06A4021036806
:10360C0001271B689847AE42A06A25D01F2F0CD902
:10361C0001F088F994F93010A06A01F00EF9A06A53
:10362C004021036801271B689847A06A16F8011B04
:10363C00036801371B689847BFB2E4E7606A20B1A2
:10364C0004F164030ECBFFF746FB626C616D1368EB
:10365C0023EA01031360B2E701F064F9A06A0028C1
:10366C0039D0E16DBDE8F04101F0E4B8226C216D78
:10367C0013680B431360AE42F0D0606A16F8012B4E
:10368C0020B10123252100F023FEF4E74FF00808B8
:10369C00D4E90E138027D1F800C0D4F848E03A42A0
:1036AC0014BF4CEA0E0C2CEA0E0CC1F800C0D3F877
:1036BC0000C0E06CB8F101084CEA000CC3F800C083
:1036CC00D3F800C0E06C4FEA57072CEA000CC3F8A3
:1036DC0000C0E0D1CFE7626C616D1368606A0B4388
:1036EC00136008B1FFF705FBBDE8F08166CC00085C
:1036FC002DE9F04F1F4685B0BDF93880A7EB010AC4
:10370C00A8EB0209B9F1000FB8BFC9F10009BAF171
:10371C00000FB8BFCAF1000AD14583460C461646C5
:10372C00BDF83C3004DD3A46344647460E469046DA
:10373C00BC4205DD32464646904622463C4617467C
:10374C003A1B91B20091A8EB06010029B8BF49427F
:10375C00C2F3C035019111B24645B4BF01224FF0FE
:10376C00FF320D446D100292BC421CDCDBF80020D1
:10377C00D145D2F81080C7BF314622463246214689
:10378C0003935846C047019A039BAD1AA9B22DB2B8
:10379C00002D05DA029A1644009A36B255182DB24D
:1037AC00013424B2E0E705B0BDE8F08F704710B4E7
:1037BC000468A468A44610BC604730B4BDF8085037
:1037CC0004680295246BA44630BC604730B4BDF845
:1037DC00085004680295646BA44630BC604770B412
:1037EC00BDF90C50BDF810600468CDE90356A46B0C
:1037FC00A44670BC60472DE9F3411C4616460546AD
:10380C000F460368013CBDF82080DB6834449847C0
:10381C0024B22B68CDF80480009428461C6A3246EA
:10382C003B463946A04728462B685B6A02B0BDE888
:10383C00F04118472DE9F341174604461D460E4644
:10384C000368BDF82080DB689847CDE900782268D2
:10385C006B1E33442046156A31463A461BB2A847C4
:10386C00204623685B6A02B0BDE8F04118472DE999
:10387C00F3471E4603680C46DB6805461746BDF940
:10388C002880BDF82C9098472644B4422B680BDA5C
:10389C00CDF800902146D3F818A03A464346284666
:1038AC000134D04724B2F0E728465B6A02B0BDE889
:1038BC00F047184713B50191B0F90E10026800914A
:1038CC00946B0022B0F90C301146A04702B010BD29
:1038DC002DE9F34704460F4616461D460368BDF80E
:1038EC002C80DB68BDF9289098472368CDF80080C0
:1038FC00324639462046D3F81CA02B46D0472368C5
:10390C0009F1FF32CDF80080324439462046D3F815
:10391C001CA012B22B46D0472368CDF8008032464B
:10392C0039462046D3F818A04B46D047013D2368B2
:10393C00E919CDF8008020469D6932464B4609B204
:10394C00A847204623685B6A02B0BDE8F0471847D9
:10395C0070472DE9F7439942164680460D461C46A2
:10396C00BDF92870BDF82C90026812D1BE42C2BFBE
:10397C0033463E461F46CDF828907B1C146B9B1B90
:10398C00324629464046A4461BB203B0BDE8F0437C
:10399C006047BE420AD19942C2BF0B4625461C461F
:1039AC00CDF82890631C5B1B546BE9E7D3689847F0
:1039BC00CDE90079D8F8003040461F6A32462346DC
:1039CC002946B8474046D8F800305B6A03B0BDE8DA
:1039DC00F043184701F00303B0F90A208376B0F9DD
:1039EC000830C90759BF8381C2818281C381704766
:1039FC0030B50181002481814FF0FF31054D4281AA
:103A0C00C281054A4460C0E905120560046104776F
:103A1C00046230BD74D10008010100012DE9F04FA2
:103A2C001C4687B00192A2B29DF84030C2F101064B
:103A3C00C2EBC2325200029313B2049300238146AC
:103A4C000393029BBDF8447003F0040305938BB2FF
:103A5C0036B20093039BA34280F29A80002E07DBC0
:103A6C00049A013C023213B2164424B2049336B2C7
:103A7C00039A013213B295B2039306EB4506059BEC
:103A8C00013636B2F3B1009BBDF804801FFA84FAFC
:103A9C005919D9F8003008EB0A02D3F810B048468F
:103AAC003B4612B209B2D847009B08EB050203EB68
:103ABC000A01D9F800304846D3F810B012B23B4690
:103ACC0009B2D847029B99071ED5009BBDF804800C
:103ADC001FFA84FA5919D9F80030A8EB0A02D3F866
:103AEC0010B048463B4612B209B2D847009BA8EB2F
:103AFC00050203EB0A01D9F800304846D3F810B0A0
:103B0C0012B23B4609B2D847029B1A071ED5009B3E
:103B1C00BDF804A01FFA84F8A3EB0801D9F8003013
:103B2C000AEB0502D3F810B048463B4612B209B274
:103B3C00D847009B08EB0A02591BD9F800304846BD
:103B4C00D3F810B012B23B4609B2D847029BDB0740
:103B5C0080D5009BBDF804801FFA84FAA3EB0A0100
:103B6C00D9F80030A8EB05024846D3F810B012B2D1
:103B7C003B4609B2D847009BA8EB0A02591BD9F85F
:103B8C0000503B4648462D6912B209B2A84761E77E
:103B9C0007B0BDE8F08F2DE9F04F89B09346BDF921
:103BAC0048208A469A420592A8BF1A46BDF94C1085
:103BBC0002EBD2756E108E42A8BF0E460446016809
:103BCC000393C968BDF850701FFA86F988471FFA2D
:103BDC008AF3029303EB0908039B21689BB20393BE
:103BEC004FEA49039BB20493DDE903329B1A0FFAA7
:103BFC0088F81BB200975A462046CD690793414678
:103C0C00A847BDF814301FFA8BF56A1E21681A44B8
:103C1C000593009793B22046D1F81CB00693414609
:103C2C00079B12B2D847DDE904234D449B1A226846
:103C3C000FFA85FB1BB200975146204695690493F9
:103C4C005A46A847029B2268591E039B00971944A9
:103C5C0020469569049B5A461FFA81FA09B2A84777
:103C6C0001235A4641462046009301973346FFF7FD
:103C7C00D5FE0223AAEB090A0FFA8AFA5A465146D4
:103C8C002046009301973346FFF7C8FE069B51462A
:103C9C00A3EB090904230FFA89F94A46204600933D
:103CAC0001973346FFF7BAFE0823204600934A4695
:103CBC00334641460197FFF7B1FE204623685B6A05
:103CCC0009B0BDE8F04F18472DE9F04F00263546F6
:103CDC0089B00493BDF94C30BDF948800593036855
:103CEC00CDE90212DB680446BDF850A0984718F1E4
:103CFC00070348BF08F10E034FEAE30B0196039B41
:103D0C00019A05999A18BDF9043012B2994227DD2F
:103D1C004FF00009049B334406930FFA89F398453E
:103D2C001FFA89F117DD480705BF0698DB106D00F7
:103D3C00C55C18BFEDB22B060AD5029B079219443D
:103D4C00236820461B6909B21F465346B847079A99
:103D5C0009F10109E1E7019B5E4401330193CEE7D0
:103D6C00204623685B6A09B0BDE8F04F1847000095
:103D7C002DE9F04F91B017461E46026ABDF8683027
:103D8C008246BDF86C809DF870509DF8744005918A
:103D9C000293002A40F0B980B0F90C308B4240F30A
:103DAC003C81B0F90E30BB4240F33781062303FB54
:103DBC000513002B40F3318107EBC403002B40F3B8
:103DCC002C81037F1BB9AF2E84BF0136F6B2DAF813
:103DDC0000305046DB689847052309930023049371
:103DEC008F4B06EB860633440C93BBB206930C9BAD
:103DFC00049ABDF810609B5C4FF000090793ABB2BE
:103E0C000B93BDF81430039305FB06331BB20893D8
:103E1C0008230A93039B1E4436B2079ADAF8003043
:103E2C00D2074DD5012D06991FFA89F23BD1012CF1
:103E3C0039D1D3F810B0029B0A443146504612B225
:103E4C00D847079B09F101095B0807930A9B4FFAB6
:103E5C0089F9013B13F0FF030A93DED1049B013374
:103E6C005BB20493099B013B13F0FF030993BED192
:103E7C00029B43450FD0012DDAF8003034D1012CD0
:103E8C0032D10399CDF8008005319C693A4608235C
:103E9C00504609B2A0475046DAF800305B6A11B0C0
:103EAC00BDE8F04F184704FB0212029901910094EF
:103EBC00D3F814B050462B46089912B2D847C0E735
:103ECC00029A4245BDD0012D06991FFA89F206D1FE
:103EDC00012C04D1D3F810B00A444346ADE704FBDF
:103EEC000212CDF80480E2E70B9AE40002EB8201A7
:103EFC00039ACDF804800A44114600945C693A4652
:103F0C002B46504609B2A047C5E7137A5168F61AFA
:103F1C001268F6B20E9231F8362001EBC603049209
:103F2C009A78012D0892DA7893F906B00C9293F9ED
:103F3C000520099201D8012C53D9BDF924300793DF
:103F4C000FFA8BF306934FF00008C146DAF80030F5
:103F5C005046DB689847BBB20A935B44CDF80C80A3
:103F6C000F930C9B039A9A4295D2069B00271344FD
:103F7C000A9A039903FB04231BB20B9343460F9A33
:103F8C0002EB010B0FFA8BFB089A97423CD25A1C9E
:103F9C00D2B25B070D9207D1049B04990E9A0133A0
:103FAC009BB212F80190049319F0800F11D0012DDF
:103FBC00DAF80030BDF8141017D1012C15D1099A7C
:103FCC001B69114439441E465A465046029B09B29D
:103FDC00B0474FEA490901370D9B5FFA89F9FFB2E7
:103FEC00D2E70023CDE90633ADE7079A50463A44B1
:103FFC0002FB0511029A09B2CDE900425B690B9AEA
:10400C001E462B46B047E4E7039E089B01369844B6
:10401C00F3B25FFA88F80393A3E711B0BDE8F08F11
:10402C006BCC0008F0B5026A04460B4685B0002A3A
:10403C0034D10A2908D1438A0282427E03EBC2039F
:10404C006382012005B0F0BD0D29FAD0E17E007E1F
:10405C00657E71B10621B4F9106001FB0061B4F901
:10406C000C60B142C1BFB4F91210228201EBC5023F
:10407C006282E28ACDE902050192A28A2046009270
:10408C00B4F91010B4F91220FFF772FE237E228AC5
:10409C0003EB430302EB43032382D2E70A2907D144
:1040AC0000230382137B417E428A01FB0323C7E773
:1040BC000D29C6D0157AA942C3D3917A9942C0D39F
:1040CC0051685D1BEDB201EBC505AF782FB3E978F4
:1040DC0019B3E17E007E667E91B195F905103944E5
:1040EC00B4F9107000FB0171B4F90C70B94207DD22
:1040FC0000272782B4F91210127B02FB061262828F
:10410C00E28ACDE902060192A28A20460092B4F915
:10411C001010B4F91220FFF72BFE2979237E228A86
:10412C0001FB0323B8E7012938BF01210176417651
:10413C007047252970B504461BD800230C2505FBB8
:10414C0003F6A65FD8B2B1420DD00133042BF6D1E1
:10415C00012A0CD100230C2505FB03F2A65ED8B274
:10416C00013601D1A15270BD0133042BF4D1184694
:10417C00F9E70420F7E7000070B503464FF6FF722D
:10418C00012500240F4E00F130011A805E601D7273
:10419C005C720C338B42F8D10B490C4B8C69028648
:1041AC0033F81440A0F89040CC69496933F81440B6
:1041BC0033F81130A0F89240A0F89430A0F8962073
:1041CC0070BD00BF00093D000CD7000834D70008B3
:1041DC00252970B505460E4621D80122FFF7A9FF07
:1041EC00032804461BD8252E0BD0B5F99630013385
:1041FC0007D10121304605F061FA0121304605F066
:10420C00B7FA0C20002300FB045485F88530627A41
:10421C00237A616805F1340000F0DAF82E8670BD5F
:10422C0082B0F8B5252906AC05460E4684E80C008C
:10423C0029D80122FFF77DFF0328044623D80C2739
:10424C0007FB0057079BBDF820207B609DF82230B0
:10425C00252E3A81BB720BD0B5F99630013307D1BC
:10426C000121304605F02AFA0121304605F080FA8A
:10427C000C2000FB04547968237A627A05F134002F
:10428C0000F0A6F82E86BDE8F84002B0704700009A
:10429C002529F0B519D803464FF6FF7401260027DF
:1042AC000A4D00F13002B3F900C00C338C4501BF4C
:1042BC0023F80C4C43F8085C03F8046C03F8037CFB
:1042CC009342F0D14FF6FF730386F0BD00093D0019
:1042DC00F0B587B08DF80F200022252904460D4635
:1042EC001F468DF817203FD8FFF723FFB4F9303065
:1042FC0006469D4210D0032803D99DF8170007B03D
:10430C00F0BD0C2101FB004104F134000B7A4A7A18
:10431C00496800F05DF82586252D07D0B4F9963054
:10432C00013303D10021284605F022FA0C2000FBB2
:10433C000646B37A0DF1170201934FF47A730DF11F
:10434C000F01009304F13400012300F069F9252DCD
:10435C00D3D0012FD1D1B4F996300133CDD1394618
:10436C00284605F005FAC8E71046C8E70148FFF7EC
:10437C0003BF00BFF406002070B50D0E445991FA2E
:10438C00A1F3B3FA83F30F269B0006FA03F324EA96
:10439C00030491FAA1F1B1FA81F1890002FA01F159
:1043AC002143415170BD00000346074A106853B1C8
:1043BC00064A934205D002F57842934203D103F0AA
:1043CC00F5B803F0E3B87047C40000200038004093
:1043DC002DE9F74F0D46174698460446002800F085
:1043EC00D0808649B0F95E0004F0E2FB8449814636
:1043FC00B4F95C0004F0DCFB82498246B4F960003D
:10440C0004F0D6FB80490646B4F9620004F0D0FBF8
:10441C008346B9F1000F00F0B480BAF1000F00F040
:10442C00B080002E00F0AD805146484604F0E9FB08
:10443C0059468246304604F0E4FB0146814650461C
:10444C0004F0DFFBA065BAF1000F00F09A80B9F11F
:10445C00000F00F09680002800F09380B4F96230D1
:10446C0020605A1C14BF4FF480234FF40073A361D7
:10447C004FF482736360FFF797FFB5EB500FC0F0FA
:10448C0083800023002617F0FD0FE3610CBF334639
:10449C000123022F636134BF3346022323610723B8
:1044AC00B045E36214BF33468023B4F95E00C4E91F
:1044BC000836A660A662E660504904F059FBB4F9D0
:1044CC005C004F4904F054FBB4F960004D4904F012
:1044DC004FFB2369B342B4F9603008BF0225C3F324
:1044EC00031218BF0125042A8CBF3046474903F03C
:1044FC000F0398BF51F82200454A52F823100B0EB7
:10450C00C65891FAA1F2B2FA82F39A000F239340A3
:10451C00334091FAA1F2B2FA82F2022D4FEA8202F2
:10452C0023FA02F34FEA11254DD0042B02D10822B5
:10453C00FFF722FFC26822EA050295FAA5F50123CE
:10454C00B5FA85F503FA05F51543C5602E49B4F99E
:10455C00620004F00DFB23682E4A93423FD12E4B90
:10456C009A6942F480529A619B6903F480530093D8
:10457C00009B204603F02FF92268136843F0400398
:10458C00136003B0BDE8F08FB5EB900F01D3082397
:10459C0078E7B5EBD00F01D3102373E7B5EB101F01
:1045AC0001D318236EE7B5EB501F01D3202369E725
:1045BC00B5EB901F01D3282364E7B5EBD01F2CBFBC
:1045CC00302338235EE7042B02D10822FFF7D4FEF8
:1045DC00C36823EA050395FAA5F5C360B6E70F4A4D
:1045EC009342C6D10C4BDA6942F48042DA61DB6942
:1045FC0003F480430193019BBBE700BFE0D50008A7
:10460C00B0D5000810D6000840D60008B000002035
:10461C0024D3000800300140001002400038004054
:10462C002DE9F047DDF820800C4615461E469DF816
:10463C0024905BB1B8F1000F0BD0076800F0D4FBED
:10464C0082462644B44207D1002003E0B8F1000FA3
:10465C001BD10120BDE8F087BB689A07FCD514F884
:10466C00013B3B73B9F1000F05D1BB68DB07FCD5EF
:10467C00FB6805F8013BB8F1FF3FE3D000F0B4FB59
:10468C00A0EB0A004045DDD3E3E70220E2E7827DA0
:10469C00407D101A70470346427D817D914281BF57
:1046AC000169885C01325A7598BF4FF0FF30704732
:1046BC00827D437D9A4286BF0269D05C4FF0FF3009
:1046CC007047836DD3F8B8201AB1002159779977C8
:1046DC0010477047202938BF202138B5054680691E
:1046EC000C4607F07DF910B1A8612C7738BD214636
:1046FC00BDE83840014804F0A1BA00BFBCD10008A5
:10470C0013B5C37F04468DF80710BBB1817F037FBF
:10471C000131994201D9FFF7DDFFA06918B90123D6
:10472C00636002B010BD637F9DF80720C254637FA5
:10473C0001200133DBB26377A377F2E701220DF19D
:10474C000701243000F0F2F9B0FA80F04009E8E7F4
:10475C0070B5C37F04460E461546CBB1817F037FEF
:10476C001144994201D9FFF7B5FFA36923B901227E
:10477C001D466260284670BD607F2A46184431464B
:10478C0007F03EF8637F2B44DBB26377A377F1E746
:10479C0092B2243000F0CAF9002818BF0025E9E7CE
:1047AC0000214FF47A72C0E90112054A0260054AF1
:1047BC00D18DA0F88010928DA0F88220704700BF98
:1047CC0034D2000834D7000838B500230446C0E9B9
:1047DC000433C0E90633C0F8B8304B00DBB280F8C4
:1047EC002030C067A1F133004142414104F124055E
:1047FC0084F8B61084F8B72028464FF48042084954
:10480C0000F0AAF894F8B6304BB92846054900F0E8
:10481C0008FA2846BDE83840034900F0FBB938BD1A
:10482C00A0860100CF4600088D4800080A463321B7
:10483C00FFF7CABF243000F051B9002343774FF47F
:10484C0080734900C175C3837047000038B5037D80
:10485C0005468B420C4609D2202938BF202400691A
:10486C00214607F0BDF810B128612C7538BD2146E2
:10487C00BDE83840014804F0E1B900BFBCD10008E4
:10488C0070B5846D0546D4F8BC30466EEBB1627DD4
:10489C00A37D9A4219D331462046FFF7D7FF2369EF
:1048AC0023B94FF4CF71094804F0C8F93246206996
:1048BC0005F1700106F0A4FF0023A6756375304660
:1048CC00D4F8BC30BDE87040184770BDD4D1000896
:1048DC000346806918B100211A7F06F09FBF70470C
:1048EC0038B50446C9B94FF42A03636594F8B63059
:1048FC00012B15D1A37FA269E17D04F1240000F006
:10490C0049F9042828BF042045B22046FFF7E0FFF0
:10491C0000236377E383E8B238BD4FF02A43E4E722
:10492C000425F8E70121FFF7DBBF002110B5044691
:10493C0041758175006910B1227D06F06FFF00236F
:10494C0020466377A377FFF7C3FF10BD0148FFF73D
:10495C0027BF00BF8C0700202DE9F3410D461646FA
:10496C001F460446002800F086805349B0F95C00CD
:10497C0004F01EF951498046B4F95E0004F018F9B0
:10498C000146B8F1000F76D0002874D0404604F0F0
:10499C0038F9206000286ED0494B04F10408984285
:1049AC006CD103F5DE33DA6942F40012DA61DA69AC
:1049BC0002F400120092009A1A6942F400121A6171
:1049CC001A6922F400121A6142F21F03A4F8603033
:1049DC003C4BC3F800803949B4F95E0004F0C8F8C8
:1049EC00B4F95C00344904F0C3F8374823688542B5
:1049FC00636006D93548854203D93548854288BF5E
:104A0C0000203149FF238D428CBF4FF48045002597
:104A1C00C4E903570025E36194F893302A46AB426E
:104A2C000CBF2B4640230221C4E90835A060666107
:104A3C0094F96000A56184F8415000F029FD94F9C7
:104A4C00600000F057FD2A46022194F9610000F045
:104A5C001FFD94F9610000F04DFD404600F022FE70
:104A6C0020B140F2D5211B4804F0E8F8002363661E
:104A7C00022384F8913002B0BDE8F081164B9842C5
:104A8C00A9D103F5DC33DA6942F48002DA61DA6920
:104A9C0002F480020192019A1A6942F480021A61AE
:104AAC001A6922F480021A6142F22123A4F86030C0
:104ABC00044BC3F804808EE748D4000818D40008CF
:104ACC00005400404C080020A0860100801A06000B
:104ADC0040420F0054D2000800580040104B10B553
:104AEC009942044606D90F4B994203D90E4B994271
:104AFC0088BF00236068026822F001020260A36094
:104B0C00074B201D99428CBF4FF480410021E1607E
:104B1C0000F0C8FD6268136843F00103136010BD18
:104B2C00A0860100801A060040420F00202A30B5F2
:104B3C000ED800239CB2A24204D8D2B280F89020A6
:104B4C00002030BDCD5CC41884F870500133F1E7FF
:104B5C000120F6E710B564230446043000F042FE51
:104B6C0002280AD0032801D068B910BD94F841304E
:104B7C00202B0CBF02200520F7E794F84130202BA6
:104B8C0018BF0620F1E794F84130202B0CBF02200F
:104B9C000420EAE72DE9F34105460C4690461F46F2
:104BAC0000F022F906463FB901222146284602B000
:104BBC00BDE8F041FFF7CEBF2B6B043521460093C7
:104BCC0042463B46284600F0B7FE044650B1002052
:104BDC0002B0BDE8F08100F007F9841B284601F013
:104BEC005CFD30B9284601F055FD202801D0632C1E
:104BFC00F1D9284601F051FD632C07D8820605D463
:104C0C00430705D40028E2D00420E1E70520DFE7C4
:104C1C000320DDE720B119B18166043000F07CBFC0
:104C2C00704720B119B1C166043000F075BF7047F0
:104C3C00C36810B59A4204461DD179B9836E80F8C9
:104C4C008D100BB104389847204694F88C2004F151
:104C5C006C012023BDE8104000F0E8BE00230122C7
:104C6C00036680F88D20016E0423BDE810400144DA
:104C7C006C3100F016BF10BD10B590F88D300446A5
:104C8C00012B04D1036E13B1436E043898470223F1
:104C9C0084F88D30002320462366BDE8104000F0D8
:104CAC003BBF036E1F2BDEBF036E0133036690F810
:104CBC008D30012BDAB205D1016E042301446C3125
:104CCC0000F0EFBE7047002380F88C30704790F8EE
:104CDC008E300BB900F020BF70470000014B1868F4
:104CEC0001F018B84C080020014B186801F036BCD4
:104CFC004C080020014B586801F00CB84C080020FF
:104D0C00014B586801F02ABC4C08002003460A49A4
:104D1C0010B508680344EFF30882934205D90C22BE
:104D2C004FF0FF30054B1A6010BD054A054C121BA5
:104D3C009342F4D20B60F7E7A4000020FC1400208F
:104D4C000050002000040000FEE700001622024B79
:104D5C004FF0FF301A607047FC14002001207047A0
:104D6C007047000038B50E4B054618784FF47A732F
:104D7C00B3FBF0F30B4A1068B0FBF3F000F0DCFB74
:104D8C00044658B90F2D09D8024629464FF0FF307A
:104D9C0000F07EFB2046044B1D6038BD0120FCE773
:104DAC00A8000020C4000020AC000020074A08B571
:104DBC001368032043F01003136000F057FB00202E
:104DCC00FFF7D0FFFFF7CCFF002008BD002002400A
:104DDC00034A044B11681B780B441360704700BFE7
:104DEC00080B0020A8000020014B1868704700BF7A
:104DFC00080B0020F7B5002604460D460196FFF778
:104E0C00F3FF236807469A68D20508D50120A36AE8
:104E1C0084F8246043F02003A36203B0F0BD5A6809
:104E2C00D60503D4DB6A13F4700F3AD0394B022049
:104E3C001E6802F043FC2368374A1969B6FBF0F68A
:104E4C001142364A4DD1D8683549084249D11969C1
:104E5C00114257D1DA68334B1A4214BF2923142359
:104E6C005E43019BB34220D26A1C05D085B1FFF78B
:104E7C00BBFFC01BA8420BD8019B01330193F0E789
:104E8C00681C0FD025B1FFF7AFFFC01BA84208D993
:104E9C00A36A032043F00403A362002384F82430A4
:104EAC00BBE7226813689907EAD56FF012032268F2
:104EBC001360A36A43F40073A362936803F4602342
:104ECC00B3F5602F24D1207B10BBA36A23F480732D
:104EDC00A362A36ADB041BD4A36A43F00103A3629D
:104EEC009BE71969114203D1D9680E4A11420BD0C4
:104EFC0019690D4A114209D1DB68134214BFFC2316
:104F0C005423ADE72923ABE75423A9E7FC23A7E7F8
:104F1C00002082E7C40000202449922492244912E4
:104F2C002449920092244900499224000368D86CC9
:104F3C0070470000002373B5019390F824300446A9
:104F4C00012B6CD0012380F824304D680268062DAB
:104F5C00086805EB850322D81F26556B053B9E4040
:104F6C0025EA060500FA03F32B43536309288B68E3
:104F7C0000EB40054FF0070129D9D6681E3DA9402A
:104F8C0026EA0101AB400B43D360A0F11003012BC7
:104F9C0025D90020002384F8243002B070BD0C2DDC
:104FAC004FF01F0509D8166B233B9D4026EA0505DB
:104FBC0000FA03F32B431363D8E7D66A413B9D40B9
:104FCC0026EA050500FA03F32B43D362CEE71069FA
:104FDC00A94020EA0101AB400B431361D9E7114B07
:104FEC009A4216D193681B02D3D49368102843F4C9
:104FFC0000039360CDD10C4B0C4A1B68B3FBF2F24F
:10500C000A2353430193019B002BC2D0019B013B0C
:10501C00F8E7A36A012043F02003A362BAE7022059
:10502C00BBE700BF00240140C400002040420F0039
:10503C00806A7047002373B50193036804469A682D
:10504C00D20702D5002002B070BD9A6842F001026E
:10505C009A60124B124A1B68B3FBF2F30193019B4B
:10506C00C3B9FFF7C1FE064623689D6815F001051C
:10507C00E8D1FFF7B9FE801B0228F5D9A36A0120FD
:10508C0043F01003A362E36A84F8245043F0010355
:10509C00E362D8E7019B013BE0E700BFC4000020BE
:1050AC0040420F0010B590F824300446012B54D028
:1050BC00012380F82430FFF7BDFF002849D1A36AF3
:1050CC00274A23F4407323F0010343F48073A36253
:1050DC002368934204D123494A6812F4702F2ED1CD
:1050EC00A26A22F48012A2625A68520541BFA26AD7
:1050FC0022F4405242F48052A262A26A12F480520C
:10510C001CBFE26A22F00602E262002284F824202C
:10511C006FF002021A609A6802F46022B2F5602FF6
:10512C0013D10F4A934205D1A2F58062526812F452
:10513C00702F0AD19A6842F4A0029A6010BDA26A3C
:10514C0042F48012A2624A68CFE79A6842F4801255
:10515C00F3E7002384F82430F0E70220EEE700BFE9
:10516C00002801400024014038B5036804469A68C1
:10517C00D20701D4002038BD9A6822F001029A604F
:10518C00FFF732FE054623689B68DB07F2D5FFF775
:10519C002BFE401B0228F6D9A36A012043F0100312
:1051AC00A362E36A43F00103E362E4E7F8B5044663
:1051BC0000286ED0836A23B9C36280F8243004F0CF
:1051CC001BF82046FFF7D0FFA36A13F0100362D13F
:1051DC00002860D1A26AE569616822F4885222F045
:1051EC00020242F002022943A568A262227BB5F5B5
:1051FC00807F41EA420137D0012D14BF00274FF4C4
:10520C008077267D012E06D182BBA269013A47EA3E
:10521C00423646F400672268B5F5807F566826F45E
:10522C00694646EA0706566097681D4E06EA070669
:10523C0046EA0106966001D0012D02D12369013B9B
:10524C001B05D56A25F470052B43D3629268154B68
:10525C001340994213D10023E362A36A23F00303A2
:10526C0043F00103A362F8BD2F46CAE7A26A42F0DD
:10527C002002A262E26A42F00102E262CBE7A36A78
:10528C0023F0120343F01003A362E36A43F001031B
:10529C00E3620120E7E7A36A43F01003A362F8E797
:1052AC00FDF7E1FFFE0E1FFF38B50446002850D075
:1052BC00836A43F002038362FFF756FF054600281A
:1052CC0042D16FF01F02236823481A605968234AA1
:1052DC000A405A609968224A0A409A60DA6802F0D9
:1052EC007F42DA601A6902F040421A6159691D4A1C
:1052FC0011405961996911409961D9691140D9617D
:10530C00196A11401962596A11405962996A0A4026
:10531C009A62DA6A02F07F42DA62DA6A02F07F425B
:10532C00DA621A6B02F040421A635A6B02F0404286
:10533C005A63996B014099639A6B02409A632046B9
:10534C0003F08CFFE562A562002384F82430284624
:10535C0038BD0125FBE700BF0000C0FF00003FFF88
:10536C00F00601FF00F0FFFF10B590F82430044662
:10537C00012B11D0012380F82430FFF7F5FE38B94A
:10538C00A36A23F4885323F0010343F00103A362BF
:10539C00002384F8243010BD0220FCE7002373B5F1
:1053AC00019390F824300446012B5AD0012380F845
:1053BC002430FFF7D9FE0546002832D1A36A02201B
:1053CC0023F4885323F0020343F00203A362264B19
:1053DC001E6802F073F9B6FBF0F676000196019B9D
:1053EC001BBB2046FFF726FE2268936843F0080398
:1053FC009360FFF7F9FC064623689A68120718D4E5
:10540C009A6842F004029A60FFF7EEFC06462368A5
:10541C009B685B071FD4A36A23F0030343F00103CB
:10542C00A362002384F8243012E0019B013B01931A
:10543C00D5E7FFF7D9FC801B0A28DDD9A36A012523
:10544C0023F0120343F01003A362002384F82430EA
:10545C00284602B070BDFFF7C7FC801B0A28D6D9BE
:10546C00ECE70225F4E700BFC40000200749030263
:10547C00CA6803F4E06322F4E0621204120C1343D2
:10548C0043F0BF6343F40033CB60704700ED00E0A2
:10549C00164B30B5DC68C4F30224C4F10703251D98
:1054AC00042B28BF0423062D4FF0FF3598BF002492
:1054BC0005FA03F388BF033C21EA0303A34005FA72
:1054CC0004F422EA0402002843EA0203ACBF00F110
:1054DC006040074A4FEA0313DBB2ABBF00F56140F3
:1054EC0000F00F0080F80033135430BD00ED00E0E5
:1054FC0014ED00E0002808DB0123420900F01F0036
:10550C0003FA00F0014B43F82200704700E100E081
:10551C0000280DDB0122430900F01F0002FA00F005
:10552C00044A203342F82300BFF34F8FBFF36F8F31
:10553C00704700BF00E100E00138B0F1807F0AD273
:10554C00F021064B064A586082F8231000200722EF
:10555C0098601A6070470120704700BF10E000E0AF
:10556C0000ED00E0002809DB0122430900F01F00D8
:10557C0002FA00F0024A603342F82300704700BF81
:10558C0000E100E0704708B5FFF7FCFF08BD000024
:10559C0008B590F82130022B03D00423836301203B
:1055AC0008BD03681A6822F00E021A601A6822F00D
:1055BC0001021A60174A93421CD0143293421BD03A
:1055CC00143293421AD0143293421AD014329342AA
:1055DC001AD0143293420CBF4FF480134FF08073E7
:1055EC000D4A53604FF480730384436B7BB198472F
:1055FC000020D5E70123F3E71023F1E74FF4807384
:10560C00EEE74FF48053EBE74FF48033E8E71846AE
:10561C00C6E700BF080002400000024090F82100DD
:10562C0070470000044A08B55169014202D050612C
:10563C0003F006FF08BD00BF000401402DE9F84649
:10564C0006460F4691461D464FEA114A3368BAF199
:10565C00010F0CBF5C699C6927EA0404A4B2B4FA7C
:10566C0084F46409A14501D0002017E06A1CEED037
:10567C00FFF7BAFB089BC01AA84201D8002DE5D150
:10568C00002320220120336386F83D2086F83E302B
:10569C00326C86F83C3042F020023264BDE8F88669
:1056AC007047000070B5044608B9012070BD90F831
:1056BC003D3003F0FF021BB980F83C20FFF7F0FFF0
:1056CC002423226884F83D30136823F0010313600F
:1056DC0001F05CFF3F4A6368934294BF3E4A3F4AE5
:1056EC0090428CBF00220122002ADED13C4E22685F
:1056FC00B0FBF6F65168013821F03F01314351609F
:10570C003449156A8B4281BF4FF4967171434FF443
:10571C007A76B1FBF6F125F03F0594BF711C01318F
:10572C0029431162D1692B4D21F44F41AB4221F039
:10573C00FF0132D85B00B0FBF3F0431C40F6FC7069
:10574C00034242D0C3F30B030B43D3611168D4E97A
:10575C00073021F0C00103430B4313609168D4E977
:10576C00030321F40341034321F0FF010B43936036
:10577C00D168D4E9053021F0FF0103430B43D3601A
:10578C001368002043F0010313602023206484F885
:10579C003D30206384F83E0088E7A56855B903EBDB
:1057AC004303B0FBF3F30133C3F30B037BB143F4BB
:1057BC000043C9E719256B43B0FBF3F30133C3F383
:1057CC000B0323B143F44043BEE70423BCE701239E
:1057DC00BAE700BFA08601007F841E00FF083D00D1
:1057EC0040420F002DE9F04F044685B01E460F468F
:1057FC009146FFF7F9FA94F83D300546202B03D07B
:10580C00022005B0BDE8F08F00901923012220463C
:10581C004849FFF713FF0028F2D194F83C30012BD4
:10582C00EED0012384F83C3023684FF0010A1A684B
:10583C00DFF800B1D20758BF1A6807F0FE075CBF4B
:10584C0042F001021A601A6822F400621A602423E2
:10585C0084F83D3000232364A3F58033E36222688F
:10586C004FF001111368204643F4807313603346E4
:10587C0000220095FFF7E2FE08B10120C1E7236882
:10588C004FF0A0081F61FFF7AFFA054623685A696D
:10589C005B69C2F34002C3F3802394F83D10A02946
:1058AC0001D0134321D04FF02008236884F83D80A9
:1058BC005A6912F0020F1A6842F400721A6024D06E
:1058CC00002203925A69204603929B69012203939A
:1058DC00039B184919230095FFF7B0FE0028CCD183
:1058EC0084F83D8084F83C008BE7FFF77DFA401B81
:1058FC00B04200D80EB984F83D8023685A695B69C0
:10590C00C2F34002C3F38023C7E76FF480625946A9
:10591C005A612046192301220095FFF78FFE0028BB
:10592C00ABD10AF1010ACA4599D384F83D8084F8B9
:10593C003C00A2E702001000F7B50024009401948B
:10594C0090F83D40089D202C02D0022003B0F0BD01
:10595C00082D354F01D0012D1ED146F2A8163C68FA
:10596C00B4FBF6F6192474430194019C013C019498
:10597C00019C6CB92023046380F83D3080F83E40D4
:10598C00036C80F83C4043F0200303640120DDE706
:10599C000468A469A407E8D446F2A8163C68B4FBD2
:1059AC00F6F6192474430194019C013C0194019C6A
:1059BC00002CDFD004682668B705F5D490F83C605D
:1059CC00012EC2D02668F6075EBF266846F0010697
:1059DC002660266826F400662660212680F83D6045
:1059EC00102680F83E60002606644385438DC56210
:1059FC0041640385036B42620093009B112B05D11C
:105A0C00B5F52A0F02D0B5F12A4F03D1236843F420
:105A1C0080732360002380F83C306268184642F49F
:105A2C00E062626092E700BFC400002037B590F8D6
:105A3C003D4004F02804282C31D100292DD0002A17
:105A4C002BD090F83C40012C29D005682C68E40739
:105A5C005EBF2C6844F001042C602C6824F40064B4
:105A6C002C60292480F83D40202480F83E400024FE
:105A7C0004644285428DC36201946B694162019357
:105A8C00AB69028580F83C4020460193019B6B6812
:105A9C0043F4E0636B6003B030BD0120FBE70220F0
:105AAC00F9E737B590F83D4004F02804282C31D1A3
:105ABC0000292DD0002A2BD090F83C40012C29D065
:105ACC0005682C68E4075EBF2C6844F001042C6068
:105ADC002C6824F400642C602A2480F83D40202497
:105AEC0080F83E40002404644285428DC3620194D8
:105AFC006B6941620193AB69028580F83C4020469A
:105B0C000193019B6B6843F4E0636B6003B030BDA1
:105B1C000120FBE70220F9E790F83D30202B14D14F
:105B2C00282380F83D30036800201A68D2075EBF36
:105B3C001A6842F001021A601A6842F480621A6014
:105B4C005A6842F440725A6070470220704770479E
:105B5C007047704770477047002370B5406A026801
:105B6C0090F83D101468466B856B24F48064B36226
:105B7C00AB62146043851468736324F001046B6397
:105B8C00146090F83D40C9B2602C08D1202280F8F6
:105B9C003D2080F83E300364FFF7DDFF70BD01F05F
:105BAC00280128290DD1146844F0010414601468EC
:105BBC0044F480641460036380F83D10FFF787F8A9
:105BCC00ECE7202280F83D2080F83E30F6E700001C
:105BDC0010B590F83D2090F83E100446102903684B
:105BEC00D2B212D1222A10D1196821F400611960A5
:105BFC005968090504D4602A1CBF202284F83D2072
:105C0C000022226384F83E2007E002F028012829B4
:105C1C00EED10022226384F83D105A6812F400621F
:105C2C004CD05A68606B22F400625A6090F82130B4
:105C3C00012B364B28D04363FFF7AAFC50B12268E6
:105C4C00606B136823F001031360202384F83D304C
:105C5C00436B984794F83D30226CDBB2520712D557
:105C6C00282B10D122682046536823F4E06353603C
:105C7C00274B2022E3620023236384F83D2084F821
:105C8C003E30FEF7F9FF10BDA06B4363FFF780FCBD
:105C9C000028DFD023685A69520605D51A69636A51
:105CAC001A70636A013363622268A06B136823F075
:105CBC0001031360202384F83D30C9E794F83D10AC
:105CCC00602915D1202184F83D1022645A695006B0
:105CDC0005D51A69636A1A70636A013363622268B4
:105CEC002046136823F001031360FFF734FFB1E77C
:105CFC005A69510605D51A69636A1A70636A0133C9
:105D0C0063622046FEF7E3FFA4E700BF655B000873
:105D1C000000FFFF70B5036804465A68C16A90F82A
:105D2C003E5090F83D00102D8CB0EEB2C0B202D0B7
:105D3C00402E40F0B7829D695869C60707D4B1F56B
:105D4C002A0F02D0B1F12A4F52D10CB070BD91057F
:105D5C004ED5E26AB2F52A0F0CD10122E26294F818
:105D6C003E20402A11D1226D52B9626C02F0FE0223
:105D7C001A61EAE7E26AB2F12A4FF0D10822EDE7A4
:105D8C00626C42F00102D2B2F2E72269B2F5804FA6
:105D9C001BD194F83D20212A626C12D102F0FE0234
:105DAC001A61626B12B9A16B0029CED0926A1AB932
:105DBC00A26B926A002AC8D05A6842F400625A60F8
:105DCC00C3E742F00102D2B2EAE7226D32B9626C4B
:105DDC00D21102F0060242F0F002C9E7226D012A4C
:105DEC00B3D1626CD21102F0060242F0F102BFE7AD
:105DFC00060703D5910501D5626CE4E7860740F1EF
:105E0C00E680910540F1E38094F83E10E26A256B40
:105E1C0094F83D00C9B2222840F0D180206D40B9E1
:105E2C00402906D100905A6900929B690093009B0F
:105E3C008BE7216D81B92069B0F5404F0CD10191F0
:105E4C005A6901929A690192019A1A6842F4807215
:105E5C001A60236D013328E0618D89B251B902912A
:105E6C005A6902929A690292029A1A6842F4007272
:105E7C001A6019E0618D89B201294AD112F5803F6F
:105E8C001CD11A6822F480621A605A6812F40062FB
:105E9C000DD01A6822F480621A60002203925A69AB
:105EAC0003929B690393039B002323654DE70492A4
:105EBC005A6904929A690492049AD6E7082A1CD06B
:105ECC00202A1AD0122D0DD1012A16D11A6822F4CB
:105EDC0080621A60002205925A6905929B690593AB
:105EEC00059BE1E7102AF1D88F4921FA02F2D60777
:105EFC00ECD51A6842F48062EBE71A6822F48062EF
:105F0C001A60002206925A6906929A690692069ABB
:105F1C00ABE7618D89B2022933D1102A05D88249A9
:105F2C00D140C94311F0010120D0196841F400613E
:105F3C00196000210791596907919969079107998F
:105F4C00196821F48061196059680D05ACD512F5FA
:105F5C00803F06D0511E1F29A6D8744ACA40D007CC
:105F6C00A2D55A6842F480525A609DE7186840F4F2
:105F7C00806018600891596908919969089108998D
:105F8C00E2E7196841F480611960596809050ED57A
:105F9C0012F5803F07D0013A1F2A08D8634921FA2D
:105FAC0002F2D60703D55A6842F480525A60002296
:105FBC0009925A6909929B690993099B74E700221B
:105FCC000A925A690A929B690A930A9BBDE66D076D
:105FDC00596840F1AD800E053FF5B7AE0506C0F32C
:105FEC00800169D5500567D5002968D194F83D200A
:105FFC00258D94F83E10D2B2E06AC9B2C5B9212AF7
:10600C0018D1082878D0202876D010F5803F73D08E
:10601C005A6822F4E0625A6011232363002384F847
:10602C003E302023204684F83D30FFF790FD8CE66F
:10603C00212A05D040297FF488AE222A7FF485AE30
:10604C00628D92B21AB95A6822F48062B7E694F85B
:10605C003E20402A26D1226D62B9E26C012AA26C44
:10606C0004D1D2B21A61236D02331EE7C2F30722A8
:10607C001A61EEE6226D012A02D1A26CD2B2F7E7C8
:10608C00226D022A7FF461AE94F83D20222A04D1BD
:10609C001A6842F480721A6057E694F83D20212A5F
:1060AC007FF453AE626A12F8011B19616262638D50
:1060BC00013B9BB2638548E600293FF446AE92054E
:1060CC007FF543AEE16A94F83D20212A7FF43DAE82
:1060DC00628D92B2002AE5D108290DD020290BD06F
:1060EC0011F5803F08D0596821F4E0615960112303
:1060FC00236384F83E2094E75A68204622F4E06239
:10610C005A601A6842F400721A600023202223633A
:10611C0084F83D2094F83E2084F83E30402A84D107
:10612C00FFF717FD11E600BF14000100818000800D
:10613C000E053FF50AAE4506C0F3800148D5500563
:10614C0046D5002947D194F83D20222A7FF4FDAD95
:10615C00628D92B2032A14D91A69636A1A70636A3F
:10616C0001336362638D013B9BB26385638D9BB28C
:10617C00032B7FF4EAAD2268536823F480635360E9
:10618C00E3E5E06A02283FF4E0AD012A3FF6DDAD1D
:10619C001A6822F480621A605A6822F4E0625A602B
:1061AC001A69636A1A70636A01336362638D013B17
:1061BC009BB26385202384F83D3094F83E3084F8FC
:1061CC003E10402B68D121632046FFF7C3FCBCE591
:1061DC0000293FF4BAAD92057FF5B7ADE26A608D48
:1061EC00616A80B2042809D15A6822F480625A602C
:1061FC001B690B70636A0133636258E7608D80B270
:10620C0003280CD15868042A20F480605860EFD021
:10621C00022AEDD01A6822F480621A60E8E7608DD9
:10622C0080B20228E4D1012A01D0102A28D11A68A0
:10623C0022F480621A601B690B70626A531C6362E1
:10624C00638D013B9BB2638523681B695370636A42
:10625C00226801336362638D013B9BB26385536893
:10626C0023F440735360202384F83D3094F83E307F
:10627C00402B4FF0000384F83E300DD12363A3E78D
:10628C00042A01D0022A03D11A6842F48062D1E7B1
:10629C001A6842F40072CDE7122320462363FFF7FD
:1062AC0057FC52E5216C11B3002559698E0728D58E
:1062BC00960526D5226C02B19D6994F83D2002F01A
:1062CC002802282A16D15A686FEA950122F48062B6
