:020000040800F2
:102000000050002081230008912B0008952B000828
:10201000992B00089D2B0008A12B0008893500088A
:102020008935000889350008893500088935000898
:102030008935000889350008893500089D35000874
:102040008935000889350008893500088935000878
:102050008935000889350008E52B0008052C0008A3
:10206000252C0008452C0008652C0008D12A000802
:10207000E92A0008012B00081D2B0008392B000855
:10208000552B0008712B0008A1290008893500088C
:10209000A13E00088935000889350008852C000814
:1020A000AD370008D1370008F53700082D38000893
:1020B00081380008F13800086139000885320008CD
:1020C0009D32000891320008A932000889350008C5
:1020D00089350008653C0008B53C0008053D00084E
:1020E000CD2C0008893500088935000810B5054C4D
:1020F000237833B9044B13B10448AFF300800123B4
:10210000237010BD580D002000000000EC9700085F
:1021100008B5034B1BB103490348AFF3008008BD6A
:10212000000000005C0D0020EC97000802F0E2BF08
:102130000B4910B50A23092209680A4800F0D4F9AE
:102140000949032302220968084800F0CDF9BDE8D7
:10215000104007491B231A220968064800F0C4B939
:10216000BC010020740D0020C00100208C0D002057
:10217000C4010020A40D002010B5044600F060FC4E
:10218000034B2046BDE81040197800F0E4BB00BFC7
:10219000160000202DE9F0470546046801F04AFAD0
:1021A000002329684A0102F18442136080222260E0
:1021B0000122A2622361E3606B79626173B1934291
:1021C0000FD001212B685A015B0102F1844203F117
:1021D0008443C2F880121960BDE8F0874FF40043D1
:1021E00063644FF6FF73002448F6FF774FF0FF0853
:1021F0004FF06809CB62661C5FFA86FA51462846A2
:1022000001F02CFAB0B12A681AF0010F02F1340380
:1022100043F8247014BF002308231832641052F8C6
:10222000241008FA03F021EA000109FA03F30B4332
:1022300042F82430042E3446DDD1C2E738B50025FB
:10224000254A264C1368022043F01003136000F067
:1022500061FD002001F08AF865602368182023F4EE
:102260000023236001F08EF8102001F08BF800F0BD
:1022700043F8A560102001F079F8102001F09FF8D4
:102280000028FAD000F039F8154801F0A5F8182018
:1022900001F06CF8182001F092F80028FAD0022022
:1022A00001F054F800210F4801F026F80E4801F023
:1022B0006DF900F039F80D4B188800F0ADFB0C48B3
:1022C00000F0AEFB0B4801F09FF900F02FF800F092
:1022D00055F8FFF72BFF38BD0020024000100240E8
:1022E0000C000020002000083F190100140000200D
:1022F00079210008952100087047002108B508469B
:1023000001F0B8F84FF48061012001F0B3F800212A
:10231000022001F0AFF82D2001F0BCF8BDE8084024
:102320000021032001F0A6B800F008BD13B5114C40
:10233000032294F8CC10D4F8C00000F017FD4FF43D
:102340008033D4F8C00094F8CC1002688B4013613D
:1023500000230193019BB3F5007F02D2019B01335F
:10236000F7E7042200F002FD034802B0BDE8104088
:1023700002F0D2BF90A50008D810002000F01DBDCB
:1023800001498D460149084700500020912300086B
:1023900008B5114B1A68114B9A4217D10021104B06
:1023A000104A934214D306F0DFF90022114610467A
:1023B00002F058FE0C4B73B106F0C6F952F8040B4C
:1023C000043343F8040C8B42F8D3E7E70749FAE7F4
:1023D00019600433E5E7FEE744C50008000000206B
:1023E000580D00202815002049870008580D0020AE
:1023F0000D4B10B51A680AB90C4A1A601A680C49D4
:10240000891A814204DB09494442511AA14207DA80
:1024100006F094F90C234FF0FF320360104610BD14
:1024200010441860FAE700BFBC0D002028150020FA
:1024300090F50028FEE7C38882889B1AC2888188AD
:10244000914282BF028901329B1898B2704710B541
:10245000036904465868FFF7EEFF88B123695B689B
:102460009A88196892B2885C99881A89C0B292B227
:102470008A420FBF00229A88013292B29A8010BD20
:102480004FF0FF30FBE708B503695868FFF7D3FF4B
:1024900008BD03695B689988DA8892B28A421FBFD7
:1024A0009A881B6892B2985C14BFC0B24FF0FF309C
:1024B0007047026991688888CB889BB28342FAD1C1
:1024C000126813685B06FCD5704737B5056902AC26
:1024D00004F8011D01222146284601F0C3FA002814
:1024E000F8D0012003B030BD30B54FF0000C4FF4F0
:1024F0007A75C0E901C5034D016105600275437538
:1025000030BD00BFC8A700082DE9F74303690446A2
:10251000DB6888468B42914625D3067D134D3601F4
:10252000AB19477D586818B10022597B01F0DAF8E1
:10253000206901F04DFA39016A18127BAB19CDF808
:1025400004901B7B695800932069AB5901F029FB6B
:1025500020694246002101F049FB206903B0BDE833
:10256000F04301F05BBA03B0BDE8F08390A500082A
:102570000022FFF7C9BF0000044B02791B789A4282
:1025800002BF034B1B681860704700BFD00D0020CE
:10259000D40D0020002310B50446036072B6094B29
:1025A00019311970084B1860084801F02DF862B60F
:1025B000236823B9064A4421064802F01FFD20463D
:1025C00010BD00BFD00D0020D40D002079250008DB
:1025D000E4A70008F6A7000808B501210848FFF79E
:1025E000D9FF02210748FFF7D5FF03210648FFF76F
:1025F000D1FFBDE8084004210448FFF7CBBF00BF6E
:10260000C00D0020C40D0020C80D0020CC0D0020FE
:10261000F8B506460C4615468F18A74206D0336813
:1026200014F8011B1B6830469847F6E72846F8BDAA
:1026300070B505460C46084649B106F063FE2B68A6
:10264000024621462846BDE870409B68184770BD89
:1026500003688A689B680968184703681B681847FD
:1026600003685B68184738B50D210546FFF7F5FF8D
:102670000A2104462846FFF7F0FF204438BD38B54C
:102680000546FFF7E5FF04462846FFF7ECFF204428
:1026900038BD38B50546FFF7E3FF04462846FFF787
:1026A000E2FF204438BD38B50546FFF7D9FF0446A0
:1026B0002846FFF7D8FF204438BD2DE9704F9246D9
:1026C0009B465AEA0B0390B0064607D13021FFF72C
:1026D000C4FF0125284610B0BDE8708F00244FF0DC
:1026E00000099DF860805046594642464B4605F029
:1026F00063FD82468B4601340DEB040303F8012C85
:102700005AEA0B03EFD10025013C1DF804103046B6
:10271000092994BF30313731C9B2FFF79EFF054414
:10272000002CF1D1D6E72DE9F0411D46002A75F1C4
:10273000000307461446069E05DA2D21FFF78DFF9C
:10274000644265EB4505F6B2069622462B463846AE
:10275000BDE8F041FFF7B1BF07B5CB1700920A46BD
:10276000FFF7E1FF03B05DF804FB38B50546FFF75E
:10277000F3FF04462846FFF776FF204438BD07B52F
:10278000D2B200920023CAB2FFF797FF03B05DF800
:1027900004FB38B50546FFF7F2FF04462846FFF76D
:1027A00062FF204438BD10B50446006806F008F802
:1027B000204610BD10B50446006808B106F000F8C8
:1027C00000232360C4E9013310BD38B504460D462B
:1027D0000068013106F064FB10B1C4E90005012076
:1027E00038BD036810B5044623B143688B4201D35A
:1027F000012010BD2046FFF7E8FF0028F9D0A368AC
:10280000002BF5D122681370F2E770B50E46114621
:1028100004461546FFF7E5FF20B92046FFF7CAFF3B
:10282000204670BDA5603146206806F00DFDF7E733
:1028300038B500230446C0E9003383600D4639B142
:10284000084606F05FFD294602462046FFF7DDFFF9
:10285000204638BD38B5054608460C4606F052FD00
:10286000214602462846BDE83840FFF7CEBF1FB5D7
:10287000044600230846C4E90033A36001A900F020
:1028800055F8204601A9FFF7E5FF204604B010BD2A
:1028900070B505460E4609B9002070BD6AB184685E
:1028A00014442146FFF79DFF0028F5D02868AB6847
:1028B0003146184406F0C8FCAC600120EDE710B5C5
:1028C0008A6809680446FFF7E3FF10B92046FFF75E
:1028D00071FF204610BDFEE7704770B58AB061B148
:1028E000931E222B20D801AB1D4648B9AB4207D01E
:1028F0000A46AB4213D80023137008460AB070BDD5
:10290000B0FBF2F402FB14062046092EF4B203F1E8
:10291000010394BF3034573403F8014CE5E713F852
:10292000010D02F8010BE4E70021E6E7FFF7D5BF50
:1029300010B50446007900F06BFD2079BDE8104029
:1029400000F07EBD026841F48011936823F4602397
:10295000194391607047002330B51C461D4603EBB8
:102960004302072B01FA02F203F10103D8BF15431A
:102970000A2B44EA0204F2D10368DD601C6130BD19
:102980000368DA6A22F0F872DA6259639A6842F4EC
:1029900080029A601A689207FCD5D86C80B27047A2
:1029A00070B5134C21680B681D68A80706D51A6816
:1029B00022F002021A608B6803B198476A0708D5B3
:1029C000226811680B6823F004030B60136903B1DC
:1029D0009847EB070AD5226811680B6823F00103BA
:1029E0000B60D36813B1BDE87040184770BD00BFDD
:1029F0001C000020012203685B0103F1844303F5FE
:102A00008673191F1A6018680028FCD143F8042C3B
:102A10000B68002BFCD170470146042000F02ABD52
:102A200010B50446044B1868A047044B18682346A9
:102A3000BDE81040184700BF1C0000202000002007
:102A400010B50446FFF774FF20464FF46021FFF7EE
:102A500079FF012123682046BDE8104003F140437F
:102A600008335A015B0102F1844203F1844311658A
:102A70001960FFF7BFBF08B5142000F0C9FC04209F
:102A800000F0C6FCBDE80840042000F0D9BC0000FE
:102A90000122014B1A60704720000E420022014BB8
:102AA0001A60704720000E42431E092B06D8800092
:102AB00000F1804000F5D84001607047024A66216D
:102AC000024802F09BBA00BFFAAF00085FA80008F6
:102AD000044B10B51C68A3681BB1984701222368FA
:102AE0005A6010BD44000020044B10B51C682369D7
:102AF0001BB19847102223685A6010BD4400002083
:102B0000054B10B51C68A36923B198474FF4807238
:102B100023685A6010BD00BF44000020054B10B56B
:102B20001C68236A23B198474FF4805223685A6087
:102B300010BD00BF44000020054B10B51C68A36AFF
:102B400023B198474FF4803223685A6010BD00BF0C
:102B500044000020054B10B51C68236B23B1984737
:102B60004FF4801223685A6010BD00BF440000205B
:102B7000054B10B51C68A36B23B198474FF08072CA
:102B800023685A6010BD00BF440000200000000010
:102B9000012007E0022005E0032003E0042001E01B
:102BA0000520FFE70D4A0121116072B60C4A002191
:102BB0001160074902B4084902B486B005498E463F
:102BC000704700BFAFF30080AFF30080AFF3008029
:102BD00000000061F9FFFFFFE94F000814ED00E07D
:102BE00010E000E0054A08B5136833B15068984713
:102BF0000122034B5A6100BF00BF08BDD80D002061
:102C000000040140054A08B5936833B1D06898477D
:102C10000222034B5A6100BF00BF08BDD80D00203F
:102C200000040140054A08B5136933B1506998475B
:102C30000422034B5A6100BF00BF08BDD80D00201D
:102C400000040140054A08B5936933B1D06998473B
:102C50000822034B5A6100BF00BF08BDD80D0020F9
:102C600000040140054A08B5136A33B1506A984719
:102C70001022034B5A6100BF00BF08BDD80D0020D1
:102C8000000401402DE9F047002605244FF0010A19
:102C90000C4D0D4FD5F814900AFA04F819EA080FF4
:102CA00008D057F83420E30022B13B4458689047DD
:102CB00046EA080601340A2CEED16E6100BF00BF5F
:102CC000BDE8F08700040140D80D00202DE9F04751
:102CD00000260A244FF0010A0C4D0D4FD5F8149030
:102CE0000AFA04F819EA080F08D057F83420E3006C
:102CF00022B13B445868904746EA08060134102C3C
:102D0000EED16E6100BF00BFBDE8F0870004014056
:102D1000D80D0020034A136823F0070318431060FE
:102D2000704700BF0020024010B50446007900F053
:102D30006FFB2079BDE8104000F082BB08B5074862
:102D4000FFF7F2FF0648FFF7EFFF0648FFF7ECFF3B
:102D5000BDE808400448FFF7E7BF00BF8800002037
:102D60009000002098000020A000002070B50F25E2
:102D70000368CE0801F00700840053F82600092AF2
:102D800005FA04F520EA050514BF10460820A04006
:102D90002843082A43F8260007D10120DA6800FA00
:102DA00001F122EA0101D96070BD092AFCD101229A
:102DB000D86802FA01F10143F5E708B5032000F0F5
:102DC00027FBBDE80840032000F03ABB064B002873
:102DD000B7BF9A695A6820F000401043AABF104359
:102DE00098615860704700BF0000014003681A688E
:102DF00012F4985FFBD11A6842F480721A6070472F
:102E000003681A6812F4985FFBD11A6842F40072E2
:102E10001A601A6812F4985FFBD17047772318463E
:102E20000138FDD8704770B5044600F00CFA012255
:102E30001546216900294CD163691868A37F86680B
:102E400002FA03F31E4221D01B040361FFF7E6FFE1
:102E5000236903B9A36901221968E37F02FA03F326
:102E60001B040B61FFF7DAFF236903B9A369E17F54
:102E70001B688A401A61FFF7D1FF236903B96369B0
:102E80001A680123A17F8B40136170BDE37F02FAB2
:102E900003F3E1B9A069006880680342F9D0FFF745
:102EA000BDFF236903B9A3691968E37F02FA03F33D
:102EB0001B040B61FFF7B2FF236903B9A36919680B
:102EC000E37F05FA03F30B61FFF7A8FFB1E70846BC
:102ED000E1E70B46B1E710B5044690F8200000F09A
:102EE000AFFA94F82000BDE8104000F091BA00005D
:102EF00038B5036804461B680D46D8075CD4304BD0
:102F00001B689C4207D1690705D50220FFF75EFFC9
:102F100040F60903E3832A0702D52046FFF783FF23
:102F20002046FFF7D8FF204600F062F92268536878
:102F300024235360EB0740D548F21E0115F0020F21
:102F40004CF203034FF00B0008BF0B46C3F30B0119
:102F500009B943F00103D16921F47F6121F00F0128
:102F60000B43D36194F921301062002B08DB01225E
:102F7000591103F01F0302FA03F3124A42F82130F9
:102F800094F92230002B08DB0122591103F01F03B2
:102F900002FA03F30B4A42F82130204600F08AF986
:102FA00023685A6842F4E0625A601A6842F00102EB
:102FB0001A60012384F8233038BD2520B423C5E7E7
:102FC00054A9000800E100E0F8B51E4690F823304F
:102FD0000446012B0F46154604D0174AE521174831
:102FE00002F00CF8A583164D20462B686760E3605D
:102FF000032384F8233000F05DF9226820465368EB
:1030000043F400735360FFF7F1FE94F8230040B2DD
:10301000431C0AD0022809D0002EF6D02A68E368A3
:1030200033449A42F1D96FF00100F8BD012300202A
:1030300084F82330F9E700BFD0A80008EDA8000805
:10304000BC140020026870B55169466892695B4AF9
:10305000B5781268CB07044605F00105C26012D5A9
:103060000023F38000F026F923685A6842F4806256
:103070005A601DB11A6842F480621A6000213288D9
:1030800045EA42021A6111F00A0F10D0B388002DF0
:1030900056D0012B0AD122682046136823F480639E
:1030A0001360A38B012B48D9FFF7A0FE002101F08C
:1030B0008402802A14D1A58B002D5AD0F188B068E3
:1030C0004B1C9BB2F380415C22681161B18899422C
:1030D00005D1536823F4806353606B1EA3830021E2
:1030E00001F08402842A0DD1A18B2046002947D00B
:1030F000FFF77CFE22685369D907FCD5002163687D
:103100000C3363604B0654D52368B2681969F388A1
:10311000581CF080D154B388F288591E8A423ED19F
:1031200022682046136823F480631360A38B022B6C
:1031300031D9BDE87040FFF759BEFFF761FEB5E732
:10314000012B08D9F388B1685A1CF280CB5C226845
:1031500013612946ABE7002BFBD12046FFF750FE59
:103160002268536823F400735360022384F82330E9
:103170009CE7134A40F28511124801F03FFFAEE789
:10318000FFF73EFE2268536823F400735360022366
:1031900084F82330B6E7BDE87040FFF731BE9A42AD
:1031A00007D1A38B013B9BB2A3831BB9022384F8F5
:1031B000233070BD63680C336360FAE7BC140020F1
:1031C000FAAF0008EDA8000808B503685A6902F4D0
:1031D0007062826000225A619A61FFF711FE0268F4
:1031E000536823F4E0635360FF2380F8233008BD65
:1031F00090F8203010B5122B044612D1036903BB9E
:10320000826912790C2A0CD103B963691B790C2BE2
:1032100007D140F60903E28B9A4202D10220FFF760
:10322000D5FD206900B960690F22A17FFFF79EFDDF
:10323000206900B9A069E17F0F22BDE81040FFF7C7
:1032400095BD1A46DDE7026970B50446C2B98069CA
:103250000123E17F056803FA01F62E6102B9626974
:10326000A57F1268AB4013610722FFF77FFD20693D
:1032700000B96069A17F0722BDE87040FFF776BD05
:103280001046E5E70148FFF7DDBE00BFA8000020BB
:103290000148FFF7D7BE00BFCC0000200148FFF770
:1032A00093BF00BFA80000200148FFF78DBF00BFFB
:1032B000CC00002010B50446002190F9210000F058
:1032C00007F894F922000021BDE8104000F000B892
:1032D0000028A8BF00F160404FEA0111B8BF054BBC
:1032E000C9B2B5BF00F00F0000F56140195480F875
:1032F0000013704714ED00E010B5002421F0604188
:1033000021F07F01064A0143916060B20F21013430
:10331000FFF7DEFF2B2CF8D1F02382F8233010BD0D
:1033200000ED00E00449054BCA6802F4E062134373
:10333000CB60BFF34F8FFEE700ED00E00400FA051D
:10334000014B13F8100070472BAA0008064B5A686F
:1033500022F0030202435A6080005A6802F00C0215
:103360008242FAD1704700BF00100240030AC2B285
:10337000012003F1804303F50433196890400843AA
:10338000186070470121030A03F1804303F50433F9
:103390001A68C0B201FA00F022EA00001860704713
:1033A000030A03F1804303F504331A680123C0B212
:1033B00003FA00F0104214BF184600207047030AB9
:1033C00003F1804303F504331A680223C0B203FA01
:1033D00000F010407047000038B5436805461820DB
:1033E0001C68FFF7DDFF20B1064A8321064801F083
:1033F00005FE064A2968536823F474130B432343DC
:10340000536038BD0FAA0008A6A9000800100240AA
:1034100010B50446FFF794FF074B53F820200748E8
:1034200000EB4400437803EBC20301229B0003F14D
:1034300084431A6010BD00BFF00000202BAA0008D2
:1034400010B50446FFF77CFF084B53F820200848CE
:1034500000EB4400437803EBC20301229B0003F11D
:1034600084431A6000221A6010BD00BF08010020CA
:103470002BAA000810B5054A054C536854F82000E3
:1034800023EA00030B43536010BD00BF001002404D
:1034900058A9000810B50446FFF752FF074B53F830
:1034A0002020074800EB4400437803EBC2030022CE
:1034B0009B0003F184431A6010BD00BFFC00002094
:1034C0002BAA000801EBC000800000F184400260DC
:1034D000704710B504460079FFF79AFF2079BDE8E0
:1034E0001040FFF7ADBF012206210068FFF7EABFD9
:1034F000002206210068FFF7E5BF026838B554686E
:10350000034624F0E004546012680D464A4012F469
:10351000205F01D0FFF7ECFF1A6818461560BDE880
:103520003840FFF7E0BF134343F004031943FFF7AC
:10353000E4BFF8B51046069C9DF81C709DF820600D
:103540009DF8245081B10B2239462046FFF70EFC2E
:10355000042231462046FFF709FC0B22294620466B
:10356000BDE8F840FFF702BC19460422FFF7FEFB56
:10357000042239462046FFF7F9FB0B22314620464C
:10358000FFF7F4FB0422E9E7FEE700000722024B05
:1035900058601A60704700BF10E000E0044A1368EA
:1035A00001331360034B1B6803B11847704700BF1A
:1035B000BC140020580E002011F0010F70B501F16D
:1035C000FF340DBF082500256FF0FF016FF47F4128
:1035D0000068C4F34004183050F8246013433140AD
:1035E000AB400B4340F8243070BD02684B1E02F123
:1035F000404220329B0003EBC20301229B0003F1F7
:1036000084431A607047000010B504460548A0477F
:103610000548A0470548A0472346BDE81040044898
:10362000184700BF2801002050010020740100202D
:103630009801002010B504460079FFF7E9FE2079D3
:10364000BDE81040FFF7FCBE002241790368012964
:103650001A60DA6098BF1A627047000038B54B1ED6
:10366000032B0C46057905D90E4A40F205110E4888
:1036700001F0C4FC1E2D10D9212D0ED0202D0ED905
:10368000222D01D0252D04D1022C8CBF0020012039
:1036900038BD631E58425841FAE70120F8E7002080
:1036A000F6E700BF87AA0008A8AA0008002203685E
:1036B00003F140430C3301EBC3039B0003F184434C
:1036C00002311A6040F82120704738B504460D4693
:1036D00013460022FFF770FF29462046BDE8384018
:1036E000FFF783BFF8B54D1EEBB2032B04460E4621
:1036F000174604D92A4AD9212A4801F07FFC637968
:10370000022B04D1284ADC21264801F077FC63799A
:10371000022B16D0042F14D8DFE807F003142B2E49
:103720003A0031462046FFF7C1FF2368AD0003F1A0
:103730004043203305EBC3050023AD0005F184456C
:103740002B60F8BD0022236803F140430C3306EBE5
:10375000C3039B0003F184431A60082360223146AF
:103760002046FFF729FF31462046BDE8F840FFF725
:103770003CBF00231022F2E74FF2F11223689A6156
:1037800003229A6001225B0103F184431A60D8E7A7
:1037900031462046BDE8F8400122FFF796BF00BF42
:1037A00010AB0008A8AA00082CAB0008074A10B507
:1037B0001468E36821690B401B0606D5536A23B1E0
:1037C0009847236923F08003236110BD280100205E
:1037D000074A10B51468E36821690B40DB0706D57A
:1037E000936823B19847236923F00103236110BD37
:1037F00028010020F8B50C4D2F68FE683B691E407B
:1038000016F0400403D02C6A0CB1A0474024B30644
:1038100004D5EB6913B1984744F020043B6923EACF
:1038200004043C61F8BD00BF28010020F8B5134D29
:103830002F68FE683B691E4016F0100403D0AC6987
:103840000CB1A0471024310704D56B6913B1984718
:1038500044F00804720704D52B6913B1984744F06B
:103860000404B30704D5EB6813B1984744F002048D
:103870003B6923EA04043C61F8BD00BF2801002035
:10388000F8B51A4D2F68FE683B691E4016F04004DB
:1038900003D02C6A0CB1A0474024F30604D5AB69D1
:1038A00013B1984744F01004300704D56B6913B185
:1038B000984744F00804710704D52B6913B1984761
:1038C00044F00404B20704D5EB6813B1984744F000
:1038D0000204F30704D5AB6813B1984744F0010420
:1038E0003B6923EA04043C61F8BD00BF500100209D
:1038F000F8B51A4D2F68FE683B691E4016F040046B
:1039000003D02C6A0CB1A0474024F30604D5AB6960
:1039100013B1984744F01004300704D56B6913B114
:10392000984744F00804710704D52B6913B19847F0
:1039300044F00404B20704D5EB6813B1984744F08F
:103940000204F30704D5AB6813B1984744F00104AF
:103950003B6923EA04043C61F8BD00BF7401002008
:10396000F8B51A4D2F68FE683B691E4016F04004FA
:1039700003D02C6A0CB1A0474024F30604D5AB69F0
:1039800013B1984744F01004300704D56B6913B1A4
:10399000984744F00804710704D52B6913B1984780
:1039A00044F00404B20704D5EB6813B1984744F01F
:1039B0000204F30704D5AB6813B1984744F001043F
:1039C0003B6923EA04043C61F8BD00BF9801002074
:1039D00010B5002204463F21436810309A801860D9
:1039E000DA801981A36894F890009A80DA8004F153
:1039F000500219811A60FFF70BFD94F99130002BEA
:103A000008DB0122591103F01F0302FA03F3024AF3
:103A100042F8213010BD00BF00E100E00368DA6821
:103A200042F02C02DA60DA6842F40052DA60704741
:103A300010B5026883689C88D98889B2A142FAD1FE
:103A4000D1688C0402D511684906F9D5D16821F4F2
:103A50000051D16041688A8892B2CA809A8892B235
:103A6000DA8010BDF0B50B46064604688768B7F8E3
:103A700004C0FD88581AADB2654504D125682D06ED
:103A800001D5824210D8E36823F08003E3609042BE
:103A9000B3680DD39A88DB889BB293421EBFE3685C
:103AA00043F08003E360F0BD13F8010B6060DEE7D4
:103AB000DD889F880135BD42ECD0DF881D89ADB21D
:103AC000BD4203D19D88ADB2002DE3D0DD8811F851
:103AD00000C01F68ADB207F805C0DF881D8901303E
:103AE000ADB2BD420FBF0025DD880135ADB2DD802E
:103AF000CDE77FB5064600240A2201ADB1FBF2F303
:103B000002FB131101343031281900F8011C194649
:103B1000002BF3D114F1FF3401D204B070BD2B5D42
:103B20008DF8033001220DF103013046FFF79AFFB3
:103B30000028F7D0EEE703468288016892B2885CDD
:103B400099881A89C0B292B28A420FBF00229A881D
:103B5000013292B29A80704738B5C38882880133A7
:103B6000934204460D4607D0C28803899BB2934214
:103B700014D183889BB28BB92046FFF7DCFFE38822
:103B800022689BB2D554E28823899BB293420FBF2F
:103B90000023E38801339BB2E38038BD4FF0FF3050
:103BA000EDE770B51E460546084611460422059C01
:103BB000FFF7DCF80B229DF810103046FFF7D6F81F
:103BC0002A686302D16803F4F05321F4F051090428
:103BD000090C0B43D3601369240223F440531B04E4
:103BE00004F440541B0C1C43146170BD70B50646B0
:103BF00015460C4641B900F0ADF8044620B90D4A0F
:103C0000AE210D4801F0FAF919226243AD0064219A
:103C1000B2FBF5F2B2FBF1F001FB10231B013233D2
:103C2000B3FBF1F303F00F03346843EA00139BB2D4
:103C3000A36070BD45AB000851AB000810B5044649
:103C4000054B1868A047054B1868A047044B186837
:103C50002346BDE810401847BC010020C0010020E9
:103C6000C401002010B5104CE368980607D52368FE
:103C7000990604D561680D48C9B2FFF76DFFE36886
:103C80001A060BD523681B0608D509488288C38805
:103C90009BB2934203D0FFF74EFF606010BDE36814
:103CA00023F08003E360F9E7003801405C0E002058
:103CB000680E002010B5104CE368980607D52368FD
:103CC000990604D561680D48C9B2FFF745FFE3685E
:103CD0001A060BD523681B0608D509488288C388B5
:103CE0009BB2934203D0FFF726FF606010BDE368EC
:103CF00023F08003E360F9E700440040740E0020E5
:103D0000800E002010B5104CE368980607D5236894
:103D1000990604D561680D48C9B2FFF71DFFE36835
:103D20001A060BD523681B0608D509488288C38864
:103D30009BB2934203D0FFF7FEFE606010BDE368C4
:103D400023F08003E360F9E7004800408C0E002078
:103D5000980E002008B590F89000FFF7F1FA20B116
:103D60000128034818BF002008BD0248FCE700BF37
:103D700000A24A040051250230B548F28005094CE2
:103D8000226822F4804222F070022A4342402260DC
:103D9000236823F4E04323F040032B434B4023608C
:103DA00030BD00BF005C0040284B072818BF1870CA
:103DB0001A78052A48D8DFE802F003131E232B36B1
:103DC0004FF6FB71224A106C014011644FF43F41E1
:103DD000116406221A701F4B1B685A7B1A737047B6
:103DE0004FF6FB711A4A106C014011644FF43F41C9
:103DF0001164042202E002225A7003221A7006E0C3
:103E00005A78013AD2B25A705A78002AF1D07047E3
:103E10000F490A6C92B242F010020A6405221A702D
:103E20000A225A7070475A78013AD2B25A705A78B8
:103E3000002AECD14FF6EF720549086C02400A6483
:103E4000044A1268517B11730622D7E7C41400207C
:103E5000005C00408403002070B50446807B0E4661
:103E60001546FFF7D5FA084A084B09491A60094B6D
:103E700009480B600949C4E9016508600221117213
:103E80001B68BDE870401847D4140020F4140020CB
:103E9000CC140020A8030020F4030020F01400201C
:103EA0002DE9F047664D674A2B68546C1B68A4B235
:103EB0002340580506D56FF480635364624B1B683A
:103EC0005B6898472B681B682340990442BF6FF4D6
:103ED00000515C4A5164DA0406D56FF4C052594B64
:103EE00000205A64FFF760FF28680268224013052B
:103EF0000FD554490B6C9BB243F0080643F00C03FA
:103F00000E640B64037B4373032303736FF4C0538A
:103F10004B64970542BF6FF400714A4B5964D60554
:103F200006D56FF48072474B07205A64FFF73CFFB9
:103F30002B681B681C40200407D56FF4004848F626
:103F40000F79404F7C6C230401D4BDE8F08714F056
:103F50000F06C7F844804BD148F680033E681E42E6
:103F6000F0D0B3B2DFF8F080384D03F44052202196
:103F700003F030034FF400502B80A8F80020FFF727
:103F8000FBFEE10606F0800318D42BB9304A4FF44B
:103F9000A271304801F032F82A4A136823F4E14351
:103FA00023F070031B041B0C136000F001FF298831
:103FB000B8F80000BDE8F047FFF7DEBE43B13B684C
:103FC00023F4E14323F070031B041B0C3B60ECE77C
:103FD0003B68320523F070034FEA03534FEA135353
:103FE0003B6002D500F00CFDE1E700F065FEDEE786
:103FF000B40004F1804404F5B844D4F800A01AF4E5
:10400000004F0DD023682A6823F070031B051B0D99
:104010002360926806F18043013B52F823309847B1
:104020001AF0800F8ED0236806F1804603EA090358
:1040300023602B68013E5B6853F82630984781E780
:1040400084030020005C0040CC140020C214002037
:10405000BCAB0008D0AB0008C0140020800000F109
:10406000804000F5B840036823F4804323F07003D8
:1040700043F4004343F0800359400160704700005F
:1040800018B90722024B1B681A820248704700BF0A
:10409000F414002050040020002201214FF4E050CD
:1040A0000A4B1B689A720A4B19640A4909681A6418
:1040B0005A6418644FF43F405A64086018644FF41F
:1040C0008010054B18600A73704700BFF41400207D
:1040D000005C00408403002000E100E013B5104BB9
:1040E0001A68137803F07F03212B16D1022808D019
:1040F000222801D0022405E093780A4A03F0030342
:1041000013700024084B1B6823B102A901F8010DAC
:1041100002209847204602B010BD0224FAE700BFF3
:10412000F4140020A80E0020A40E002021B90128BC
:104130008CBF02200020704702207047044B1B6890
:104140009B7A1BB10522034B1B681A73704700BF93
:10415000F4140020840300200422024B1B681A730D
:10416000704700BF84030020054B1B689B78032B1E
:1041700004D8044901EBC30100F014BC00207047CF
:10418000F4140020DC030020014900F00BBC00BF48
:1041900098030020014900F005BC00BFA0030020E7
:1041A00037B5114C2268127802F07F02212A02D022
:1041B000022003B030BDA0F12003012B0B4B0C4DAE
:1041C0001B6888BF002523B102A901F8010D022058
:1041D0009847002DECD0236800249D615C82204626
:1041E000A8472046E5E700BFF4140020A40E0020F5
:1041F000814000081C491D4A0B68106D02F23C42C8
:1042000040002DE9F0411458002208461646184D8A
:10421000184FC4F30904A24213D3174A036012686B
:104220009B1ADBB2BF2B04D84FF440510320FFF799
:1042300015FF124B1B68ABB1BDE8F0410021012016
:104240001847D10757BF2968310A8EB2296802F191
:10425000010258BFC9B2F95403F1010358BF043534
:10426000DBB2D8E7BDE8F081AC0E0020005C004076
:1042700020620040C40E0020B40E0020B00E0020CA
:10428000F0B5204B204C214922681B689B1A13F083
:10429000FF0305D10A78013A52B20A7002B3F0BDA9
:1042A000012008700020402B28BF40230646184DEF
:1042B000184FB95C10F0010FC9B218BF46EA0121CE
:1042C00000F1010018BF296002F101020CBF8EB29B
:1042D00004358342D2B2ECD1D90748BF2E602260A8
:1042E0000D4A0E49106D40000B50536823F4E04313
:1042F00023F0400343F4004343F0800383F0300392
:104300005360CCE7BC0E0020C00E0020B80E002089
:1043100080610040C40F0020005C00401460004039
:1043200070B5104A104C136824681C1BE443E4B2B7
:104330008C4228BF0C466CB100210C4E8DB2AC42B1
:1043400001F1010108D81360094B1B781B0601D548
:10435000FFF796FF204670BD455DF5540133DBB293
:10436000ECE700BFBC0E0020C00E0020C40F0020F0
:10437000B80E00202DE9F04700254FF0C00948F69F
:104380008F1648F280074FF0400A434B434C1B689E
:10439000DFF838819D7283F80990256523682846E7
:1043A000334043F400732360236803EA08033B436C
:1043B00083F010032360226D394B520043F802A0B2
:1043C0008022236D5B0003F1804303F5C0431A6034
:1043D000236823F4E24323F070031B041B0C2360C7
:1043E000304B1B6893F82C1000F00AF94FF4405141
:1043F0002846FFF733FEA3682946334043F4C063E1
:10440000A360226D284B520013444FF480721A604F
:10441000A268022002EA08023A4382F02002A26067
:10442000FFF71CFEE36851463340E360226D1F4BEB
:10443000520013444FF4887203201A6000F0E0F831
:104440004FF440510320FFF709FE636829461E40E0
:104450006660226D164B520043F80290636801209B
:1044600003EA08033B4383F020036360FFF7F6FD94
:104470000122104B28461B681A7300F07DFCFF22B6
:104480000D4B1D600D4B1D600D4B1D600D4B1D60D8
:104490000D4B1A70BDE8F087F4140020005C00405A
:1044A00008600040CC1400202060004038600040CC
:1044B0001060004084030020AC0E0020B40E0020E9
:1044C000BC0E0020C00E0020B80E0020BF8FFFFFE2
:1044D000C20744BF034B1960830744BF024B1960F6
:1044E000704700BFB00E0020A40E002038B50C4667
:1044F000054638B10322FEF739FC4FF480312B68B2
:10450000A1401961034B044A18680449BDE83840CA
:10451000FFF7A2BC8403002034040020180400200C
:1045200009B1FFF7FDBE084670470000034B18684D
:10453000034B1B68C01AC0B2704700BFAC0E00200E
:10454000B40E00200A4B30B51A680A4B0A4C1B689F
:104550009B1ADBB2994228BF19464318984201D1F1
:10456000084630BDA55C013200F8015BD2B2F5E728
:10457000B40E0020AC0E0020C40E002010B5FFF7D2
:10458000E1FF094A044613680344DBB21360074A9B
:104590001268D31ADBB2402B04D84FF440510320E9
:1045A000FFF75CFD204610BDB40E0020AC0E0020CD
:1045B0000C4B30B51B680C4C0B442468DBB2E41A7E
:1045C000E4B28D18A54288BF621A084C0146104417
:1045D000814201D1104630BDE55C013301F8015B39
:1045E000DBB2F5E7B40E0020AC0E0020C40E0020B4
:1045F000024B187800F00100704700BFA80E0020A1
:104600000D4B0E4A1B6D3E2903EBC0004FEA4000E4
:1046100002440AD94B09C80604BF03F1FF339BB219
:104620009B0243F40043136070474B08C90748BF1F
:1046300001339B02F7E700BF005C00400C600040C4
:1046400010B5064C18B9012223681A8210BD044B1C
:104650001B681B68984720680A30F7E7F4140020AD
:10466000F014002010B5064C18B9012223681A82F4
:1046700010BD044B1B689B68984720680C30F7E717
:10468000F4140020F01400201E4B10B51C68002309
:1046900010B90223238210BD1B48038021780246F3
:1046A00011F07F0112D1617A8C0644BF022303709E
:1046B000037848064CBF23F0010343F00103137055
:1046C000124B1B681B6998470F48E4E70129E2D0A9
:1046D000022915D1217901F00F039B0003F18043DA
:1046E00003F5B84309061B6805D503F03003102B0A
:1046F000E6D10123E3E703F44053B3F5805FF7E726
:104700001846C8E7F4140020C6140020F014002056
:104710002DE9F843234FDFF8A0803D682C8AD4B9F7
:104720002E7A042E17D120490B78012B0ED11F4B66
:104730001A681F4B92B213445B001C6030230C704C
:10474000A8F800303B681E72BDE8F88310230726E6
:10475000A8F80030F6E7AB8A9C4294BF04260226F4
:104760009C4228BF1C46AB692046984781460020E2
:1047700000F0AAFB22460146484600F048FB2146CD
:10478000002000F0BDFB2B8A4FF440521B1B2B82F4
:104790006B8A1C443023A8F80030064B6C821A80C8
:1047A000D0E700BFF4140020C4100020505C00408B
:1047B00002300020C0140020C214002010B50A4BA3
:1047C0000A491B6849789A7891420AD3D97841B945
:1047D0009C8834B99A72064B1B685B6898472046E0
:1047E00010BD0220FCE700BFF4140020D803002015
:1047F000F014002038B50F4A0F4D12682B689269EB
:104800009978187990472B6804469A7A7AB170B9EA
:104810005A7962B9DB7853B9084B1B68DB68984753
:104820002B681A79DA729A781A73204638BD0224F6
:10483000FBE700BFCC140020F4140020F01400208B
:1048400038B52B4B1B68187810F07F0004D15A7ACA
:1048500022F020025A7238BD022847D15A88002A15
:10486000F9D15A79002AF6D11979224D21F0800028
:10487000840004F1804404F5B844226849B22D78DC
:104880000029B4BF02F0300202F4405285422DD913
:1048900062B39B7A53B30029236811DA03F0300323
:1048A000102B07D1C4B2204600F0FAFA302120467E
:1048B00000F0CEFA104B1B685B6998470020CAE7EE
:1048C00003F44053B3F5805FF4D10C4D58B90C4B51
:1048D00093F82C1000F022FB23682B409BB283F44A
:1048E00040532360E6E700F0C8FAF5E70220B2E79C
:1048F000F4140020D8030020F01400208FBFFFFF25
:10490000A803002038B51B4B1B4D18682D78017982
:1049100021F08004A30003F1804303F5B8431A6833
:1049200049B20029B4BF02F0300202F44052A5425D
:104930001DD94488DCB9D2B1827AC2B11A68002983
:10494000B5BF22F4E04222F4804222F0400222F07D
:104950007002B5BF92B292B282F0100282F480521D
:104960001A60064B1B689B699847002038BD0220DF
:10497000FCE700BFF4140020D8030020F01400204E
:1049800008B5064B1A68537A43F020035372044B60
:104990001B68DB699847002008BD00BFF4140020A5
:1049A000F0140020054B10B51C68628A18B98B887A
:1049B0009B1A238210BD08681044FBE7F414002002
:1049C00008B50B4B002093F82C1000F0A7FA094B08
:1049D0001B68187A082806D14FF48052064B1A80BB
:1049E0001022064B1A80A0F109035842584108BD15
:1049F000A8030020F4140020C0140020C2140020DA
:104A000073B5984D984E2B6831681A7A092A13D0DD
:104A1000964A89B20A4452001288520002F180423A
:104A200002F5C042117819705178597091885980F7
:104A3000118999809289DA8001221A72DA885C7869
:104A4000002A64D11A7812F07F024DD1092C03D1CB
:104A5000FFF7B4FE40BB16E0052C20D193F90220ED
:104A6000002A07DA08232A68137202B0BDE87040F2
:104A7000FFF7A6BFDA78002AF4D19A88002AF1D18C
:104A80009B7A002BEED13268794B92B2134400220C
:104A90005B001A603022774B1A800623E3E7032C71
:104AA00014D19A78012A08D0734B20461B685B69A1
:104AB0009847032828D10923D5E79A88002AF3D1FB
:104AC0005B7A9A06F0D5FFF75BFFC3E7012CEBD1C9
:104AD0009A78012AE8D19A88002AE5D15B7A9B0668
:104AE000E2D5FFF7ADFEB5E7012A04D10B2CDBD1EF
:104AF000FFF780FEAEE7022AD6D1012CF1D0032CBD
:104B0000D2D1FFF7FFFEA5E70028ABD1BBE7062C0B
:104B100012D11A7854065AD1DB78574A012B126801
:104B200002D1D369DBB952E0022B01D1136AF9E754
:104B3000032B4CD1536AF5E7002C54D15988002936
:104B400045D15A6822F0FF02B2F5003F3FD11A78F2
:104B500012F07F0216D19B88002B38D1474B0024DE
:104B60002A68204654829361984720464FF6FF7189
:104B70002B681A8A8A4233D0022801D0002A55D1E4
:104B800008222EE0012A0AD13B4A1879126892695C
:104B90009047E0B92B689B7A002BDFD117E0022AFF
:104BA00015D11A7902F00F018B00100603F1804332
:104BB000334803F5B8431B6800784CBF03F030035B
:104BC00003F44053884202D912F0700FE4D02A4B0C
:104BD0002A681B6850781B6998470328C6D12B6840
:104BE00009221A7241E7082C04D11B785B06EED12A
:104BF000244BB4E70A2CEAD11A7802F07F02012A8A
:104C0000E5D19A7A002AE2D059880029DFD15A6882
:104C100022F0FF02B2F5803FD9D1174A1879126805
:104C2000926990470028D2D1174B98E793F900106A
:104C3000002936DAD988104801910068019D90F862
:104C40002C00AA4284B205D9019A1A829C82FFF7ED
:104C50005FFD0AE78A42F9D2A24219D200210B4A2B
:104C60001170F3E7F4140020505C00400430002081
:104C700002300020C2140020CC1400208946000815
:104C8000D80300204146000865460008C4100020F3
:104C900092FBF0F100FB1122002AD7D1044A012136
:104CA000DEE703221A724FF44052024B1A80DCE610
:104CB000C4100020C0140020F8B5294E3468237AAF
:104CC000032B01D0052B43D1A369B3B1258AA5B12C
:104CD000A28A954228BF154628469847238A074648
:104CE0005B1B2382638A00202B44638200F0FAF866
:104CF0002A460146384600F099F8238A53B100212C
:104D00004FF44052174B08461A8000F0F9F8302251
:104D1000154B1A80218AA38A32688B4208D8032354
:104D20001372137A32681372BDE8F840FFF748BE79
:104D300009B10523F4E7062313720C4B18680C4BDA
:104D400080B203445B0019603021074B1980E8E70B
:104D5000072B03D1074B1B68DB6898470823E1E763
:104D6000F4140020C0140020C2140020505C004045
:104D700002300020CC14002030B5002248F68F7598
:104D8000094B1C78A24204D3084B40F08000186005
:104D900030BD02F1805303F5B8539B0019682940D8
:104DA000114319600132EDE7D80300204C5C00404C
:104DB00010B5134C23681A7A022A01D0042A09D1AB
:104DC000FFF7A6FC23681B7A22681372BDE8104027
:104DD000FFF7F6BD062A10D15A78052A09D11A78AC
:104DE000520606D19878FFF7C7FF064B1B681B6A6F
:104DF0009847054B1B689B6898470823E4E700BF6A
:104E0000F4140020F0140020CC140020704701F1AD
:104E10000051013201F540515210490002B970476A
:104E200030F8023B013A21F8043BF7E7002310B5C4
:104E300001F10051013201F54051521049009A42EE
:104E400000D110BD51F8234020F813400133F6E79C
:104E5000800000F1804000F5B8400368CA0623F4E2
:104E6000E04323F040039BB248BF83F010038A065F
:104E700048BF83F0200303607047800000F180404A
:104E800000F5B84003685B0409D5036823F4E043E8
:104E900023F070031B041B0C43F480430360704732
:104EA000800000F1804000F5B84003685B0609D53A
:104EB000036823F4E04323F070031B041B0C43F04E
:104EC0004003036070470000054B1B689BB203EB77
:104ED000C00000F1005000F54050400000887047CD
:104EE000505C0040044B1B689BB203EBC000034BBB
:104EF00003445B0018887047505C00400430002079
:104F0000044B1B689BB203EBC000034B03445B00E4
:104F100019607047505C0040023000200D4B0E4A73
:104F20001B683E299BB203EBC00002444FEA4202D9
:104F30000AD94B09C80604BF03F1FF339BB29B0299
:104F400043F40043136070474B08C90748BF01335F
:104F50009B02F7E7505C00400630002037B505465D
:104F600002AC04F8011D012221462846FEF77AFD15
:104F70000028F8D003B030BD38B505464C1E14F8F3
:104F8000011F01B938BD2846FFF7E8FFF7E7000029
:104F900008B5144B03221C680D212046FDF7E6FEE0
:104FA000002301211A464FF000504FF40055B2F58E
:104FB000007F0BD06AB1B3F5007F01D100230A4412
:104FC0009A420BD9266835610133F0E74FF0FF3183
:104FD000F1E7B3F5007F4FF00101EFD026683061B3
:104FE000F2E700BFCCA8000808B5034B0BB100F0F6
:104FF00049F862B6FFF7CCFF85500008F8B5144BAE
:1050000006460D4617460BB300F05CF804461149FE
:10501000FFF7B2FF39462046FFF7AEFF0E492046A4
:10502000FFF7AAFF31462046FFF7A6FF0B492046AF
:10503000FFF7A2FF29462046FEF75BFD0A21204626
:10504000FFF78CFF0D212046FFF788FFFFF7CCFF0D
:10505000C5500008B9AC0008CFAC0008D0AC0008BF
:10506000FDF7ECB808B500F061FE01F0ABFCFCE721
:1050700003F09EBB002203685B0103F18443C3F885
:10508000002170474FF0FF3310B50A4C0A48C4F8AE
:105090008030C4F88430FEF7B7FA0848FDF7C0FC4A
:1050A0000748FEF7CBFD4FF4002323604FF4801335
:1050B000236010BD00E100E049360008755000088B
:1050C000313A000810B5094B094C18680B2202212F
:1050D000FDF74CFE2068FEF77BFC20684FF416526B
:1050E0000021FEF783FD206810BD00BFC8A800089E
:1050F000C0010020034A136823F0E06343F080639B
:105100001360704704000140222838B542D80829AE
:1051100027D8DFE801F02D3005171A1D05202300E0
:10512000002404221C4B00011D18297B1858FDF790
:105130001DFE686870B3697B04B3BDE83840012286
:10514000FEF7D0BA00242246ECE700240922E9E762
:1051500000240822E6E701240B22E3E701240F22C2
:10516000E0E70E4A4C21BDE838400D48FFF746BF46
:1051700000240322D6E700240722D3E702684B1E4F
:1051800002F1404220329B0003EBC2039B0003F17B
:1051900084431C6038BD00BF90A50008FAAF00082A
:1051A000D3AC000808B501210848FDF7F3F9022146
:1051B0000748FDF7EFF903210648FDF7EBF9BDE8D5
:1051C000084004210448FDF7E5B900BFC8100020DD
:1051D000CC100020D0100020D4100020FFF7A6B97A
:1051E00007B501210DF10700FFF7ACF9012814BF45
:1051F0004FF0FF309DF8070003B05DF804FB07B5E2
:1052000001210DF10700FFF7B9F920B19DF8070062
:1052100003B05DF804FB4FF0FF30F9E708B50B78F9
:10522000222B0ED1FFF7E4F9094B1A78032A08D88C
:10523000DFE802F008020808002814BF0122022259
:105240001A7008BD002814BF01220322F8E700BF2E
:10525000E810002073B5274C2278022A44D1FFF7CA
:1052600065F9032840D9FFF761F90422011F0DEB0E
:105270000200FFF79DF99DF80430312B36D19DF8DF
:105280000530452B32D19DF80630412B2ED19DF8AB
:105290000730462B2AD1FDF7EEFBFDF7F9FB44F270
:1052A0004C210A20FDF700FCFDF7F8FB124B134CD4
:1052B00043F001036FF006054FF0C24620468546D5
:1052C0004FF001001946324604B402B401B401B4EF
:1052D00001B401B401B401B4AE467047084A40F2CB
:1052E0005F110848FFF78AFE02B070BD03232370E8
:1052F000FAE700BFE810002009530008000800206A
:10530000FAAF000848AD0008024B18460138FDD836
:10531000FEF708B87F4F1200094B10B5197871B924
:10532000012408461C70FFF7E1F820460549FFF705
:10533000CFF8BDE8104004490220FFF7C9B810BDFE
:10534000EA100020555200081D52000882B0019159
:10535000019B02B0FFF7E0BF70B516460D46B1B134
:105360000C4B1B681B7B052B11D10B4B1B7843B1DE
:105370000024A6420CD9311B2819FFF7D1F80444A8
:10538000F7E72846BDE870401146FFF7C9B800248A
:10539000204670BD84030020E910002007B502AB51
:1053A00003F8011D01221946FFF7D6FF03B05DF88F
:1053B00004FB38B5054608460C4603F0A3FF21461A
:1053C00002462846BDE83840FFF7C6BF70B50E4616
:1053D00015460024AC4205D2291B3019FFF7CEF840
:1053E0000444F7E7204670BD13B50446FFF79EF866
:1053F00030B101220DF107012046FFF7E7FFF5E785
:1054000002B010BD4FF47A720021034BC3E90112C0
:10541000024A1A60704700BFD8100020B8AD0008DB
:10542000044B03EB0013986810B1997BFDF7A8BA01
:10543000704700BF90A5000822280DD8074B000137
:1054400019181B58097B1B689A6801238B4013426B
:1054500014BF0120002070470020704790A500086D
:10546000222810B50ED8084B00011C181B58B1FAA1
:1054700081F11A680123207B49098340090103FA5D
:1054800001F1116110BD00BF90A5000810B50446E0
:1054900028B103F0E7FC90FBF4F303FB140420466F
:1054A00010BD00002DE9F8430D4600244FF001091E
:1054B0000646002128461F469046FFF7D1FF114BB4
:1054C00003EB0515B8F1000F19D0C4F1070147FA35
:1054D00001F101F001013046FFF7C2FF2B682A7B82
:1054E0001B6809FA02F2D96801345140D960D968C1
:1054F000082C82EA0102DA60E4D1BDE8F883214693
:10550000E5E700BF90A5000810B50A490A4C0868F5
:10551000A36800BF00BF0A688242F8D14820C3F5E3
:105520008C3303F5A073B3FBF0F34FF47A7000FBF8
:10553000023010BDBC14002010E000E038B5044675
:10554000FFF7E2FF05465CB1FDF7C6F9FFF7DCFFA8
:10555000401BB0F57A7FF6D3013C05F57A75F5D19D
:1055600038BD28B10C234343013B18460138FDD810
:10557000704700000E4B0F491A68096801328A42D1
:1055800030B41A60A8BF00224FF00004A8BF1A6010
:1055900009481A680244111A12F8015B35B904B1BE
:1055A00019600A2230BC0548FDF7DFB82C46F2E747
:1055B000F81000200C05002074040020D8100020F2
:1055C000002310B519460446084A024402F8331075
:1055D0000133102BFAD106490648FDF741F8214660
:1055E000BDE810400A220348FDF7D3B88904002023
:1055F000D4AD0008D8100020F8B50024094D0A4E9B
:105600000A4F2B68E1B299420BDA735C3BB9084B45
:1056100008481B7807EBC3035A5C02F014FD013401
:10562000EFE7F8BD0C05002074110020890400206C
:10563000D8110020DC1100202DE9F047082704468E
:10564000884690FBF7F700211420FFF709FF63421B
:1056500003F0070304F0070458BF5C42012303FA78
:1056600004F4E4B2E6430025DFF84890DFF848A0F0
:10567000F6B2D9F80030AB4215DDDAF80030BD42A1
:1056800003EB050205D15B5DB8F1000F09D02343A0
:10569000137013781E2101221F20FFF703FF01352D
:1056A000E7E73340F4E70121BDE8F0471420FFF7B6
:1056B000D7BE00BF7C040020D413002070B505467F
:1056C000144C154EC0F30011204602F03BFDC5F30B
:1056D0004011204602F025FDC5F3C00331780022B9
:1056E000204602F0B4FBC5F3400331780122204686
:1056F00002F0ADFB05F0010331780022204602F0F4
:10570000BEFBC5F3800331782046BDE8704001221E
:1057100002F0B5BBDC110020F81000202DE9F041AB
:105720000546DFF86C80164C00F00307C0F38106D5
:105730003B4698F800100022204602F025FD204646
:10574000104C334698F80010012202F01DFD0A2289
:1057500029462046FDF71DF80B492046FCF780FF3F
:105760000A2239462046FDF70AF808492046FCF788
:1057700077FF31462046BDE8F0410A22FCF7FFBF23
:10578000DC110020D810002026B000082DB0000841
:10579000F8100020044A431A002B1268B8BF5B427D
:1057A0009342D8BF084670476C04002010B50446E9
:1057B00000F001011C20FFF753FEC4F340011D203F
:1057C000FFF74EFEC4F380011E20FFF749FEC4F32D
:1057D000C0011F20FFF744FE1E20FFF7C2FE13206A
:1057E000FFF72AFEB0FA80F0400910BD10B504465C
:1057F00000F001011C20FFF733FEC4F340011D201F
:10580000FFF72EFEC4F380011E20FFF729FEC4F32C
:10581000C0011F20FFF724FE1E20FFF7A2FE00207C
:10582000FFF7FEFD10BD0000082870B50C4600F023
:10583000BD8016D8032854D00BD80128CBB27B49A1
:1058400048D03BD909780022794802F08CFB79498D
:105850003AE0052857D04DD306285CD0072870D0F1
:1058600070BD0D2800F0C68012D80A2800F0B08064
:10587000C0F0A5800B2800F0B4800C28F0D1CBB28A
:105880006A49012209786A4802F011FB6A491BE063
:105890000F2800F0B980C0F0B280832800F0BD80EE
:1058A000A128DDD1614ECDB22A463178604802F0A0
:1058B000ACFB3368614A6249D55405E0097800229F
:1058C0005B4802F022FB5F495F48FCF7C9FE0A22F1
:1058D000214666E009780022554802F02DFB5B491D
:1058E000F2E7CBB2514900220978514802F052FB4D
:1058F0005749E9E7CBB24D49002209784C4802F0FC
:10590000D6FA5449E0E7494BCAB24948197802F03F
:10591000EAFB5149D8E7454B484D18684F4BC1B297
:105920001B683BB9A410E2B22A54414802F06DFB57
:105930004B49C9E72A5CE3B23D4802F0A2FB494962
:10594000C2E7464D2A68BAB1012A89D10720FFF77C
:105950004DFF5A2380FB0301002871F1000304DA94
:1059600040F6FF72002380185941030B43EA0153AC
:105970003D4A4633136073E7CBB22C492C48097873
:1059800002F0ACFA39493048FCF76AFE0A22214697
:105990002D48FCF7EAFE36492B48FCF761FE0A2247
:1059A00029682948BDE87040FCF7DFBECBB21F492B
:1059B000012209781E4802F0A8FA2E4984E7CBB2EA
:1059C0001A49012209781A4802F0B6FA2A497BE7F7
:1059D000CBB2164901220978154802F0C4FA2749CA
:1059E00072E7CBB2114901220978114802F0D2FACC
:1059F000234969E7C8B2FFF791FE224964E7C8B2BC
:105A0000FFF75CFE20495FE7CBB208490122097825
:105A1000074802F063FA1D4956E7CBB2034900225A
:105A20000978034802F0B0FB19494DE7F81000204F
:105A3000DC1100200AAE0008AEAE00088004002091
:105A4000FCAE0008F1AD0008D8100020FEAD000843
:105A500018AE000826AE000837AE000880110020FE
:105A600043AE00084EAE00085804002057AE0008B0
:105A700061AE000877AE000884AE000890AE000862
:105A80009FAE0008C0AE0008D5AE0008EEAE00081C
:105A90000DAF00082DE9F84300241B4DDFF874908A
:105AA0001A4E1B4F6B685FFA84F8404649F8243061
:105AB000FFF79CFE55F8041FFFF76CFE59F82430E1
:105AC000286098421BD006EBC40356F834C05B68CC
:105AD000A3EB0C0383FB0001002871F1000304DA3F
:105AE00040F6FF72002380185941030B43EA01532B
:105AF0000CEB03014046FFF797FE87F80080013466
:105B0000102CCFD1BDE8F88390130020ECB0000832
:105B1000FC100020941100202DE9F0411D491E4881
:105B2000FCF7B7FD00241D4F1B4D1D4EE1B238465A
:105B300002F04FF90A2201462846FCF720FE013404
:105B400031462846FCF78CFDFF2CEFD11549124851
:105B5000FCF79FFD14491048FCF79BFD134C0E4EBB
:105B6000DFF83C80E71D002514F835100A22304686
:105B7000FCF7F2FD013541463046FCF771FD0F2D73
:105B8000F2D10134BC42EED1BDE8F04108490248EF
:105B9000FCF77FBD78B00008D8100020DC11002091
:105BA00089B000088BB000089AB000088904002072
:105BB000A6B00008F0B50130C4B2012C87B026D0E1
:105BC000022C4AD0032C4AD0042C4AD0052C4AD0AF
:105BD000062C4AD0072C4AD0082C4AD0264903A8C4
:105BE000FCF726FE0A2221466846FCF740FE69467D
:105BF00003A8FCF764FE01462048FCF740FD684618
:105C0000FCF7D1FD03A8FCF7CEFD07B0F0BD1C4D9D
:105C10001C4903A8FCF70CFE0A2221466846FCF743
:105C200026FE694603A8FCF74AFE01461348FCF726
:105C300026FD6846FCF7B7FD03A8FCF7B4FD2C462B
:105C4000114F05F1FF06611B14F8012BC9B238464C
:105C500002F0C3F8B442F6D1D7E70C4DD8E70C4DAB
:105C6000D6E70C4DD4E70C4DD2E70C4DD0E70C4DE8
:105C7000CEE70C4DCCE700BFB6B00008D81000202E
:105C8000ACB10008CCB00008DC110020ABB20008B9
:105C9000AAB30008A9B40008A8B50008A7B6000870
:105CA000A6B70008A5B8000838B50024084DFF20A5
:105CB000FFF7ECFBE1B2C2B20134284602F08DF8E6
:105CC000812CF4D103490448BDE83840FCF7E1BC1D
:105CD000DC110020E2B00008D810002070B50024CC
:105CE000084D0544642015F83460FFF7CFFB4628C3
:105CF000C4BF86F0010605F834600134102CF1D1E0
:105D000070BD00BF8904002010B5064B064C197801
:105D10002046012202F097F92046BDE810400121FB
:105D200002F085B8F8100020DC11002037B54FF4E0
:105D3000E1314F48FFF70AFB0A20FFF7FFFB47F668
:105D400012214C48FCF714FC4B4802F015F80A20CD
:105D5000FFF7F4FB0121484802F005FA6420FFF741
:105D6000EDFB00211C20FFF7CFF900211D20FFF7DC
:105D7000CBF900211E20FFF7C7F900211F20FFF7F4
:105D8000C3F900211520FFF7BFF904211320FFF705
:105D9000BBF900211420FFF7B7F903210020FFF71A
:105DA000B3F902211B20FFF7AFF9344C6420FFF751
:105DB000C5FBFFF7A9FF0420FFF7FCFE2068FFF7F3
:105DC00057F900232E4A106018462168994203DDD6
:105DD0001168C8540133F8E701232A4C00933C2290
:105DE0000221204601F0BEFB20B927492048FCF7DC
:105DF0005AFCFEE7204601F0A7FB2046042101F0F3
:105E0000DBF94FF470254FF001132049C4E9045326
:105E10002046FCF748FC204601F042FE4FF4FA70A1
:105E2000FFF78CFB204601F08FFB194925612046C6
:105E3000FCF739FC204601F033FE4FF4FA70FFF70F
:105E40007DFB204601F080FB2046022101F0B4F9E1
:105E5000104B114923612046FCF725FC204601F038
:105E60001FFE4FF4FA7003B0BDE83040FFF766BB89
:105E7000D8100020A40D0020DC1100207C0400209C
:105E8000D41300200011002049B0000863B00008BE
:105E900069B00008050014006FB0000870B5002458
:105EA00001260A4D2C60E0B2FFF780FC06FA04F1EF
:105EB00030B12A680A432A600134102CF3D170BD36
:105EC0002B6823EA01032B60F6E700BF8011002056
:105ED000024A135C83F001031354704774040020DA
:105EE000024A135C83F001031354704774110020BD
:105EF00070B50024094B0A4D0A4E187005443278DB
:105F000015F83410E3B29A4208BF81F0010120462F
:105F10000134FFF791FB102CF1D170BD710400200A
:105F200089040020D81100202DE9F04700256B4F8F
:105F30006B4CE8B2FFF73AFC6A4BE855EA5C8242E8
:105F400000F0C580E85420B1674AAB5C83F00103E0
:105F5000AB5423681A071ED50826DFF8A081DFF8A6
:105F60008891DFF89CA123683341DB0710D5C6F187
:105F70000F03C8F80030002351465C4889F806300A
:105F8000FCF76EFB0A22D8F800105848FCF7EDFB2E
:105F90000136102EE7D1236898071FD50826DFF8B1
:105FA0005C81DFF860A1DFF8449123683341D907B1
:105FB00011D5C6F10F0351464846C8F80030FCF72A
:105FC0004FFB0A22D8F800104846FCF7CEFB98F8A1
:105FD0000000FFF7F5FA0136102EE6D12368DA0744
:105FE0001FD5DE0606D51022414B42493F481A60B4
:105FF000FCF74FFB2368980606D508223C4B3E4928
:106000003A481A60FCF745FB082623683341D90754
:1060100004D5C6F10F00C0B2FFF7CCFD0136102E3B
:10602000F3D123681A061AD50826DFF8DCA0DFF8BA
:10603000BC9023683341DB070ED55146C6F10F08EB
:106040004846FCF726FB0A2241464846FCF78DFBF2
:106050005FFA88F0FFF744FF0136102EE9D123687C
:1060600098061AD50826DFF8A4A0DFF880902368E8
:106070003341D9070ED55146C6F10F084846FCF703
:1060800008FB0A2241464846FCF76FFB5FFA88F09E
:10609000FFF71EFF0136102EE9D12368DA0616D568
:1060A00008264FF0000ADFF85480DFF83C902368A0
:1060B0003341DB0708D5C6F10F00C8F80000C0B2B5
:1060C00089F806A0FFF714FF0136102EEFD1013535
:1060D000102D7FF42EAFBDE8F08700BF64110020C3
:1060E00080110020841100205C040020D8100020C2
:1060F0000C0500205AAF00086FAF0008F810002010
:1061000030AF000842AF000882AF000891AF00082E
:106110000F2210B50024084B1A70204600210134CC
:10612000FFF78AFA102CF8D10121BDE81040034B8B
:1061300009209971FFF780BA710400205C040020E7
:1061400010B40D4B1C680D4B1B780F2B07D10C4A5C
:10615000C3B2125DE1B20B4810BC01F092BF0A4B12
:1061600003EBC003195D81F00101195501B1012153
:1061700010BCFFF761BA00BFF810002071040020C6
:1061800080040020DC1100208904002038B53C4C3C
:10619000FFF784FE236803F0BB02BB2A6ED01A040B
:1061A0000CD5384D2B780F2B08D00020FFF7C8FFF7
:1061B00035493648FCF76DFA0F232B7023685B04D2
:1061C0000CD5304D2B780E2B08D00220FFF7B8FFEE
:1061D0002F492E48FCF75DFA0E232B7023689D048F
:1061E0000CD5284D2B780D2B08D00420FFF7A8FFE5
:1061F00028492648FCF74DFA0D232B702368D80454
:106200000CD5204D2B780C2B08D00520FFF798FFDC
:1062100021491E48FCF73DFA0C232B702368190511
:106220000CD5184D2B780B2B08D00720FFF788FFD3
:106230001A491648FCF72DFA0B232B7023685A05D0
:106240000CD5104D2B780A2B08D00920FFF778FFCA
:1062500013490E48FCF71DFA0A232B7023689B058F
:106260000CD5084C2378092B08D00B20FFF768FFCA
:106270000C490648FCF70DFA0923237038BD00BF0E
:1062800080110020F410002034B00008D810002045
:1062900037B000083AB000083DB0000840B0000830
:1062A00043B0000846B0000838B57C4CFFF7F6FD57
:1062B000236813B901217A4A11701B040BD5784D5C
:1062C0002B7843B10820FFF73BFF76497648FCF76F
:1062D000E0F900232B7023685D040BD5704D2B78FB
:1062E00043B10920FFF72CFF70496F48FCF7D1F943
:1062F00000232B70236898040BD5694D2B7843B18C
:106300000A20FFF71DFF6A496748FCF7C2F900231E
:106310002B702368D9040BD5614D2B7843B10B202A
:10632000FFF70EFF63496048FCF7B3F900232B70B9
:1063300023681A050BD55A4D2B7843B10C20FFF773
:10634000FFFE5D495848FCF7A4F900232B70236831
:106350005B050BD5524D2B7843B10D20FFF7F0FEB6
:1063600056495148FCF795F900232B7023689D0589
:106370000BD54B4D2B7843B10E20FFF7E1FE504972
:106380004948FCF786F900232B702368D8050BD504
:10639000434D2B7843B10F20FFF7D2FE49494248C5
:1063A000FCF777F900232B70236819060BD53C4DB9
:1063B0002B7843B10020FFF7C3FE43493A48FCF76E
:1063C00068F900232B7023685A060BD5344D2B78BF
:1063D00043B10120FFF7B4FE3C493348FCF759F9BB
:1063E00000232B7023689B060BD52D4D2B7843B1D2
:1063F0000220FFF7A5FE36492B48FCF74AF9002397
:106400002B702368DD060BD5254D2B7843B1032077
:10641000FFF796FE2F492448FCF73BF900232B7029
:10642000236818070BD51E4D2B7843B10420FFF7C6
:1064300087FE29491C48FCF72CF900232B702368A0
:1064400059070BD5164D2B7843B10520FFF778FE81
:1064500022491548FCF71DF900232B7023689A0781
:106460000BD50F4D2B7843B10620FFF769FE1C4971
:106470000D48FCF70EF900232B702368DB070BD5C2
:10648000074C237843B10720FFF75AFE1549064809
:10649000FCF7FFF80023237038BD00BF80110020F7
:1064A000F1100020BFAF0008D8100020C5AF0008D1
:1064B000CBAF0008D1AF0008D7AF0008DDAF0008B0
:1064C000E3AF0008E9AF0008EFAF0008F5AF000840
:1064D000FCAF000803B000080AB0000811B00008C3
:1064E00018B000081FB000080D4A08B513785BB15A
:1064F0000C4B19680C4B1B6814338B4204D80021D9
:1065000015201170FEF7ACFF084B1B780F2B03D141
:10651000BDE80840FFF73ABEBDE80840FFF7C4BE3B
:106520007C110020BC140020EC100020710400201D
:106530001FB50C4B0C4A0D4CCDE90132042340220F
:10654000009380210A4B204600F00AFF094A0A49BD
:10655000204602F0E7F8094804B0BDE8104001F019
:1065600031BB00BF801A0600A08601000011002088
:10657000D813002008000020AD730008DC110020B3
:106580002DE9F74F664D674800F0DEFF2878654C2F
:106590000F280BD0FFF7ACFC40230122CDE90032DD
:1065A000002280231146204600F02CFB4FF00117FB
:1065B0005D4E02215B4800F0FFFD5C4B3178C4E981
:1065C00004370A2201315748FCF7CFF84FF4A013E3
:1065D0002361574B0A22196852480131FCF7C5F86C
:1065E0000121504800F0E8FD0023C4E90437514B75
:1065F0001B78002B6FD050494A48FCF74AF83223E9
:1066000023614E4B9F79002F6CD04D494548FCF7D4
:106610004AF82B780F2B03D101210120FFF70CF84A
:106620005A232361474B1F78002F64D046493D48C9
:10663000FCF739F82B780F2B03D101210720FEF747
:10664000FBFF4FF44813414923613648FCF72BF810
:1066500001274FF02609DFF80081DFF800A1DFF8FD
:10666000C4B018F8013F33B12782A4F81290514604
:106670005846FCF718F80C37BFB2612FF1D100244F
:10668000DFF8DC80DFF8DC90264F33782A7808EBDF
:10669000C303195D00293BD00F2A04D1012104F165
:1066A0000800FEF7C9FF0222082304EB440114F896
:1066B00009008900CDE9003209B2282220BB384602
:1066C00000F06FFA0134082CDFD1164803B0BDE8A2
:1066D000F04F01F0E5B91E4B0A2219681148FCF78A
:1066E00044F88CE71B490F48FBF7DDFF2B780F2B95
:1066F00096D1394691E717490A48FBF7D4FF2B7822
:106700000F2B9ED1394699E7384600F07BFAD9E73E
:106710000F2AD7D104F10800FEF78EFFD2E700BFA1
:106720007104002000110020D81100204600140040
:10673000F81000207D1100209FAF00085C040020AD
:10674000A4AF000872040020A9AF0008ADAF000894
:1067500058040020D2AC000873040020BDAF00082C
:10676000890400207411002010B5264CFFF792F91F
:10677000FFF7DAFBFFF792FBFFF702FF226802F058
:106780000302032A01D1FFF7C3FC236803F081024F
:10679000A2F18101484248411B490C78844207D04C
:1067A000812A087001BF19490A7882F001020A7033
:1067B00003F00903A3F1090251425141144A107830
:1067C000884207D0092B117001BF124A137883F059
:1067D00001031370104B1B780F2B12D10F4B9B79B9
:1067E00023B10A4B1B780BB9FEF7C4FE0C4C627840
:1067F0000AB1FFF791F9A3781BB1BDE81040FFF78C
:1068000053BA10BD80110020F21000207D1100202D
:10681000F310002072040020710400205C040020AA
:1068200064110020012110B5194C15202378013383
:106830002370184B1A68184B1A60184B1970FEF722
:106840000FFE2378102B1DD100232370144B1B78CF
:10685000C3B1144B1A780132D2B2062A08BF0722FC
:106860001A70114A19781268914204BF00221A70F6
:1068700018780E4B1B5C2BB90D4B1B68984201D04E
:10688000FFF72CFAFFF770FFBDE81040FEF7B4BE2B
:10689000D8110020BC140020EC1000207C11002036
:1068A00072040020F51000200C0500207404002064
:1068B000F810002037B5394C237853B1384A39499C
:1068C000136808680A33834203DA0B681360FFF722
:1068D0004BFF3548FBF7D7FD00285DD03248FBF76A
:1068E000B6FDC0B28DF807009DF80730902B11D18E
:1068F0002D4D2846FBF7C7FD0028FAD02A48FBF7A4
:10690000A6FD294D2846FBF7BEFD0028FAD02648F3
:10691000FBF79DFD9DF80730FA2B09D12349244848
:10692000FBF7B7FE0022234B1A700122224B1A708C
:106930009DF80730FC2B06D120491D48FBF7A9FE26
:1069400000221D4B1A709DF80730802B08D1164D80
:106950002846FBF798FD0028FAD01348FBF777FD8F
:106960009DF80730F82B06D1154A13780133DBB2B6
:10697000042B09D813700C4C2046FBF784FD58B14A
:106980002046FBF764FDF7E7002313702378002B04
:10699000F1D0FFF747FFEEE703B030BD7D110020D7
:1069A000D4110020BC140020A40D00201BAF00084F
:1069B000D8100020D81100207304002026AF000852
:1069C000F010002010B5FFF775FF104B10491A6842
:1069D00042F6E06393FBF2F30E4A0868146823441E
:1069E00083420FDA0B6813600B4A137883F00103BC
:1069F00013700A4B1B780BB9FFF714FF0122084BE9
:106A00001A7010BDBDE81040FFF76EBD580400209D
:106A1000BC140020D4110020880400207D11002027
:106A2000700400202DE9F04F1D4685B0BDF93840B7
:106A30008146A31A83EAE37BABEBE37B6B1A002B63
:106A4000B8BF5B429B451646BDF83CA0019304DCF1
:106A500023460E462C4611461D46A64205DC2B4613
:106A60000D461946234634461E464B1B002BB8BF25
:106A70005B4202930223A6EB04081FFA88F80FFA80
:106A800088F797FBF3F300938D42ACBF4FF0FF33D1
:106A900001230393B44220DCD9F8003048465B69F7
:106AA0001F46019B9B45CCBF22462A465346CCBF7E
:106AB00029462146B847009A029BD71ABBB21AB2A0
:106AC000002A009206DA039A08EB030715443BB24A
:106AD0002DB20093013424B2DCE705B0BDE8F08F9D
:106AE000704710B40468E468A44610BC604730B432
:106AF000BDF8085004680295646BA44630BC60473A
:106B000030B4BDF8085004680295A46BA44630BCAC
:106B1000604770B4BDF90C50BDF810600468CDE951
:106B20000356E46BA44670BC60472DE9F3411C4654
:106B3000164605460F460368013CBDF820801B69D8
:106B40003444984724B22B68CDF8048000945C6AE2
:106B500028463B4632463946A04728462B689B6A62
:106B600002B0BDE8F04118472DE9F341174604464D
:106B70001D460E460368BDF820801B699847CDE985
:106B8000007822686B1E3344556A20461BB23A4691
:106B90003146A847204623689B6A02B0BDE8F04111
:106BA00018472DE9F3471E4603680C461B69054646
:106BB0001746BDF92880BDF82C9098472644B4426A
:106BC0002A680BDACDF80090D2F81CA02146434683
:106BD0003A4628460134D04724B2F0E72846936A63
:106BE00002B0BDE8F047184713B5B0F90E200468AD
:106BF000009200220191B0F90C30E46B1146A047DD
:106C000002B010BD2DE9F3470446884616461D46DE
:106C10000368BDF82C701B69BDF92890984723685C
:106C20000097D3F820A032462B4641462046D04755
:106C3000236809F1FF3200973244D3F820A041467F
:106C40002B46204612B2D04723680097D3F81CA0E9
:106C500032464B4641462046D0472368691E00977E
:106C60004144DD6920464B46324609B2A8472046DA
:106C700023689B6A02B0BDE8F047184770472DE9CA
:106C8000F347994280460C4615469946BDF928605F
:106C9000BDF82CA0076810D1B242DEBF33461D46B6
:106CA0001646CDF828A06B1C7D6B3246AC469B1B6C
:106CB0001BB202B0BDE8F0476047B2420DD1994225
:106CC000DCBF1C468946CDF828A0631CBC6BA3EB37
:106CD00009031BB24946A446EBE73B699847CDE957
:106CE000006AD8F8003040465E6A2A464B46214684
:106CF000B0474046D8F800309B6A02B0BDE8F04784
:106D0000184701F0030101298176B0F90830B0F984
:106D10000A2004D0032902D08381C2817047828176
:106D2000C38170474281C2814FF0FF32426140F21D
:106D3000011230B5028300240122054D4460056034
:106D40000181818104618476C2760477046230BD5A
:106D5000ACBE00082DE9F04F89B09A46BDF94C3021
:106D6000CDE903120593BDF85030BDF94890069364
:106D7000036800261B6905469847082309F10702A6
:106D800092FBF3FB34460196019A049B13441BB219
:106D90000293059ABDF904309A4226DD4FF00008AF
:106DA0000AEB060307930FFA88F34B4518DA1FFA2C
:106DB00088F14A0705BF079ADB106400D45C18BF4E
:106DC000E4B2230609D5039B029A19442B6809B241
:106DD0005B6928461F46069BB84708F10108E2E7B1
:106DE000019B5E4401330193CEE728462B689B6AE2
:106DF00009B0BDE8F04F18472DE9F04F91B01746A4
:106E00009946026ABDF86830044605910293BDF8C0
:106E10006C809DF870609DF87450002A40F0B88036
:106E2000B0F90C308B4240F33781B0F90E30BB42E1
:106E300040F33281062303FB0613002B40F32C8121
:106E400007EBC503002B40F32781037F33B9B9F16A
:106E5000AF0F84BF09F101095FFA89F92368204661
:106E60001B69984705230993002304938C4B09EB76
:106E700089094B440C931FFA87FA049A0C9B4FF034
:106E800000099B5CB2B20792BDF8142006930392EE
:106E9000BDF810300399079A02FB031212B2089250
:106EA00008220B441BB20A920B93069A2368D2075E
:106EB0004AD5012E1FFA89F239D1012D37D1D3F8E5
:106EC00014B0029B524412B20B992046D847069B3D
:106ED00009F101095B0806930A9B4FFA89F9013B06
:106EE00013F0FF030A93E0D1049B01335BB20493D8
:106EF000099B013B13F0FF030993BED1029B43455D
:106F00000ED0012E236832D1012D30D10399CDF856
:106F100000800531DD693A46082309B22046A847BA
:106F2000204623689B6A11B0BDE8F04F184705FB67
:106F300002A2029901910095D3F818B012B233461B
:106F400008992046D847C2E7029A4245BFD0012E91
:106F50001FFA89F206D1012D04D1D3F814B052449E
:106F60004346B0E705FB02A2CDF80480E3E7079AA9
:106F7000ED0002EB8201039ACDF804800A44114629
:106F800000959D693A46334609B22046A847C7E7AF
:106F9000137A5168A9EB030912685FFA89F90D9217
:106FA00031F8392001EBC90303929A78012E079238
:106FB000DA7893F906B00B9293F90520089201D87C
:106FC000012D4DD9BDF9203006930FFA8BF30493B0
:106FD0004FF00009CA46C846236820461B699847F7
:106FE000BBB209935B440F930B9B984598D2049BCB
:106FF000099A434403FB05231BB20A9300274B461F
:107000000F9A424412B20E92079A97423BD25A1CF0
:10701000D2B25B070C9207D1039B03990D9A0133FF
:107020009BB212F801A003931AF0800F10D0012E2A
:107030002268BDF8141017D1012D15D1089BD2F884
:1070400014B019443944029B0E9A09B22046D8471D
:107050004FEA4A0A01375FFA8AFAFFB20C9BD3E77C
:10706000002304930693B3E7069B20463B4403FBAF
:107070000611029B09B2CDE900533346D2F818B08D
:107080000A9AD847E4E7079B08F1010899445FFA98
:1070900089F95FFA88F8A7E711B0BDE8F08F00BF63
:1070A000A4B90008F0B5026A85B004460B46002A70
:1070B00034D10A2908D10282438A427E03EBC203FB
:1070C0006382012005B0F0BD0D29FAD0E17E007E7B
:1070D000657E71B10621B4F9106001FB0061B4F95D
:1070E0000C60B142C1BFB4F91210228201EBC5029B
:1070F0006282CDE90205E08AB4F912200190A08AEB
:10710000B4F9101000902046FFF776FE237E228A05
:1071100003EB430302EB43032382D2E70A2907D19F
:1071200000230382937A417E428A01FB0323C7E74F
:107130000D29C6D0157AA942C3D3517A9942C0D33A
:107140005D1B5168EDB201EBC505AF782FB3E9784F
:1071500019B3E17E007E667E91B195F90510394440
:10716000B4F9107000FB0171B4F90C70B94207DD7D
:1071700000272782B4F91210927A02FB061262826B
:10718000CDE90206E08AB4F912200190A08AB4F990
:10719000101000902046FFF72FFE2979237E228AC7
:1071A00001FB0323B8E7002908BF0121002A08BF1B
:1071B00001220176427670470A46FFF7F4BF036862
:1071C00001211B68184738B5011D0546002301221F
:1071D000406DFBF7F9FE44B2611C14D1686D836801
:1071E0005A0512D513F0020F14BF022403240268BB
:1071F000136823F001031360002380F8233095F80F
:107200005810FBF775FEE0B238BD13F4006F14BFE1
:1072100001240424EBE790F85810406DFBF768BE9A
:10722000426D11680B6823F001030B60002382F8A4
:1072300023307047024690F858300D4881420CBF09
:1072400043F0010323F00103506D82F858300368C6
:107250001968C9070AD5196821F0010119600023CE
:1072600080F8233092F85810FBF742BE704700BFF9
:10727000801A06000648074B074A0360074B084977
:107280001B684365002380F8583001F04BBA00BFFB
:10729000D813002000BF00080800002054A90008EF
:1072A00021720008002930B51ADBB0F90C408C427D
:1072B00016DD002A14DBB0F90E40944210DD847E06
:1072C000022C0ED0032C15D0012C04D1D2430489FA
:1072D00014440A4621B2012B12D020D3022B2FD006
:1072E00030BDD2430489013C611A448909B2224469
:1072F00012B2F0E74489013C641A114622B2EAE76F
:10730000082492FBF4F4B0F90850C06A05FB04119C
:1073100002F007029340425C13434354E0E7082322
:1073200092FBF3F3B0F90840C06A04FB0311012398
:1073300002F007029340425C22EA03024254CFE784
:10734000082392FBF3F3B0F90840C06A04FB031171
:10735000012302F0070203FA02F2435C5A40EDE710
:1073600038B504461D46FFF7DDFC0E4B0E4A236080
:1073700000239D4208BF15466362C4E90A53FF23F8
:1073800084F8333084F8343084F8353084F836307B
:107390009DF91030204684F83730059BA365069B85
:1073A000E36538BDB4C30008D8130020044B10B502
:1073B00004460360C06A08B101F002FA204610BD1D
:1073C000B4C30008F8B50446806A0E4680B194F94B
:1073D000301001F075F90021A06A01F08EF93146F4
:1073E000A06A01F08AF9A06ABDE8F84001F082B90C
:1073F000226C206D136823EA0003606A1360C8B929
:10740000D4E90E23082180201568A76C064214BF1A
:107410003D43BD4315601D68E76C013945EA07052A
:107420001D601D68E76C4FEA500025EA07051D60E6
:10743000EAD1F8BDBDE8F84001F02DB938B50446F1
:10744000806A0D4680B1A16DFFF7F4FE002D204645
:1074500014BFA721A621FFF7B5FFA06A58B1E16DBF
:10746000BDE83840FFF7E6BE626C616D136823EA41
:1074700001031360EAE7626C616D13680B431360EC
:1074800038BD2DE9F0410446806A0D468F1828B3B7
:1074900094F9301001F014F90021A06A01F02DF9DF
:1074A0000126AF42A06A15D01F2E0BD901F022F998
:1074B00094F93010A06A01F003F90021A06A01F0EC
:1074C0001CF9012615F8011BA06A013601F015F917
:1074D000F6B2E6E7BDE8F04101F00CB9226C216D8F
:1074E000136823EA01031360BD422BD0606A15F8CC
:1074F000011B10B101F0CFF8F6E74FF00808D4E90E
:107500000E238026D2F800C0D4F848E0314214BFE0
:107510004CEA0E0C2CEA0E0CC2F800C0D3F800C0E6
:10752000E06CB8F101084CEA000CC3F800C0D3F8D5
:1075300000C0E06C4FEA56062CEA000CC3F800C00D
:10754000E0D1D1E7BDE8F0810822B0F90A3000218E
:10755000073393FBF2F3B0F90820C06A5A4301F0F5
:107560002BBC00002DE9F0431E46C36A85B00446DB
:10757000884615469DF83070C3B12046FFF7E4FFFA
:10758000B4F90A20B4F90830202A4FF002011EDCB9
:10759000733B203A92FBF1F2012093FBF1F120239F
:1075A000CDE9013073230093A24B1EE0B0F90A30FD
:1075B0000820073393FBF0F3B4F90800584301F0B7
:1075C000F7F8E0620028D8D105B0BDE8F083523B5F
:1075D000403A92FBF1F24FF0010C93FBF1F14023A2
:1075E000CDE9013C52230093934B12B209B22046DD
:1075F000FFF7B0FB84F83180D4F82880B8F1000F91
:1076000000F09D80002D40F09880B4F90A30202BC6
:1076100014BF3D253C2584F83050002F00F0068132
:10762000D8F8003000219B6840469847E6B194F9AD
:107630003700002818DB0021C0B2FDF765FD0121ED
:1076400094F83700FDF70CFF0120FDF777FF0021CC
:1076500094F83700FDF704FF0A20FDF76FFF0121C2
:1076600094F83700FDF7FCFED4F82880B8F1000F3D
:1076700000F0C280A16D4046FFF7DCFD04226F4997
:107680002046FFF7FEFEA17A20460139C9B2FFF776
:1076900099FE6B4904222046FFF7F3FE94F931303E
:1076A0002046012B14BF14211021FFF78BFE04226A
:1076B00064492046FFF7E5FE8F23634A84F8603073
:1076C000A368934200F0AA8002F50012934240F0B2
:1076D0009A8094F931301225012B14BFCF239F23B8
:1076E00084F86030DA212046FFF76CFE29462046F8
:1076F000FFF768FE81212046FFF764FE94F86010D2
:107700002046FFF75FFED9212046FFF75BFE94F984
:1077100031302046012B14BFF1212221FFF752FE08
:10772000204606224949FFF7ACFEA06A002877D020
:10773000E16DFFF77FFD012046E76DB26BE7414643
:1077400094F83500FDF7E0FC41464FF0010894F84D
:107750003600FDF7D9FC94F935303D4D1B01EA1890
:10776000EB58D4F824901B680C332364137B08FA7D
:1077700003F3236594F936301B01E918EB581A68B6
:1077800002F10C0363640B7B08FA03F36365D168B1
:107790000B43D360B9F1000F06D0002F3FF446AF82
:1077A000484600F066FF41E7494694F83300FDF78C
:1077B000ABFC494694F83400FDF7A6FC94F933304D
:1077C0001B01EA18EB581B680C33A363137B08FA00
:1077D00003F3A36494F934301B01E918EB581A68D9
:1077E00002F10C03E3630B7B08FA03F3E364D16853
:1077F00021EA0303D36019E7626C616D136823EA21
:10780000010313603AE7134A934207D194F93130E8
:10781000012B14BFAF23102384F86030022561E7E9
:10782000626C616D13680B43136084E7002E7FF474
:10783000FEAE1FE7CCC100080CBF000810C4000852
:1078400014C4000818C40008800020001CC40008EC
:1078500090A500086000100070B5002ABDF8105017
:1078600041DBB0F90A4094423DDD0029BEBF5B1800
:1078700000211BB2B0F908605C18B442C4BF731A8F
:107880001BB2002B2FDD082492FBF4F406FB04113D
:10789000C06A012D014402F007004FF0010202FA14
:1078A00000F2D2B20BD013D3022D1CD10B4499425B
:1078B00019D011F8010B504001F8010CF7E70B4407
:1078C000994210D011F8010B104301F8010CF7E7B1
:1078D000D2430B44D2B2994205D011F8010B1040AB
:1078E00001F8010CF7E770BDF0B50029BDF8146090
:1078F00078DBB0F908C0614574DA002ABEBF9B1876
:1079000000221BB2B0F90A40D518A542C4BFA31A81
:107910001BB2002B66DDD2B2DDB2D3080CFB031123
:10792000C76A12F0070307EB010422D0C3F1080372
:10793000DBB2324A9D42D25C59D24FF0FF0CA3EB2E
:10794000050E4CFA0EFC012E0CEA020207D027D3DA
:10795000022E47D117F801C082EA0C0203E017F8A3
:1079600001C042EA0C029D427A543BD3B0F9082090
:107970001444EB1ADBB2072B26D9022E15D11A4676
:107980002178083AC9432170B0F90810D2B2072A09
:107990000C44F5D813F0070324D0194AD35C1BE03C
:1079A00017F801C02CEA0202DDE7002E14BFFF2504
:1079B00000251A462570083AB0F90810D2B2072AF5
:1079C0000C44F7D803F0070363B10D4A012ED35CD2
:1079D00005D008D3022E05D12278534001E0227849
:1079E00013432370F0BD227822EA0303F9E7012E46
:1079F000B5D0D5D3022EADD06444BAE700C4000898
:107A000008C4000830B41446827EBDF80850022A2B
:107A10000DD0032A18D0012A11D1E443028914445D
:107A200024B202950A46214630BCFFF75DBFE4430D
:107A3000428919441444028924B2511A09B20295A8
:107A4000224630BCFFF708BF42891944511A09B2D7
:107A5000E7E730B41446827EBDF80850022A0DD004
:107A6000032A18D0012A11D102891C44141B24B204
:107A700002950A46214630BCFFF7EEBECA43018993
:107A80001C440A4411B24289141B24B202952246B6
:107A900030BCFFF729BFCA4341890A4411B2E7E766
:107AA0002DE9F0410446806A00283DD0A16DFFF722
:107AB000C1FB052242492046FFF7E3FC217A20461C
:107AC0000139C9B2FFF77EFCD4E90A060823B4F9EC
:107AD0000A50073595FBF3F523895D43ADB2354474
